:020000040800F2
:1000000000800020450200089502000895020008C3
:100010009502000895020008950200080000000003
:100020000000000000000000000000009502000831
:1000300095020008000000009502000895020008E3
:100040009502000895020008950200089502000834
:100050009502000895020008950200089502000824
:100060009502000895020008950200089502000814
:100070009502000895020008950200089502000804
:100080009502000800000000950200089502000893
:1000900095020008950200089502000895020008E4
:1000A00095020008950200089502000895020008D4
:1000B00095020008950200089502000895020008C4
:1000C00095020008950200089502000895020008B4
:1000D00095020008950200089502000895020008A4
:1000E0009502000895020008950200089502000894
:1000F0009502000895020008950200080000000023
:1001000000000000950200080000000095020008B1
:100110009502000800000000950200089502000802
:100120009502000895020008950200089502000853
:100130009502000800000000000000009502000881
:1001400095020008950200089502000800000000D2
:10015000000000000000000000000000000000009F
:1001600000000000000000000000000095020008F0
:1001700095020008000000000000000000000000E0
:1001800000000000950200080000000000000000D0
:1001900000000000950200080000000000000000C0
:1001A0000000000000000000950200089502000811
:1001B0009502000895020008950200080000000062
:1001C0000000000095020008000000000000000090
:0801D0009502000895020008E9
:1001D80010B5054C237833B9044B13B10448AFF379
:1001E80000800123237010BD0000002000000000E3
:1001F800E002000808B5034B1BB103490348AFF3FD
:10020800008008BD0000000004000020E002000893
:1002180080B400AFFEE7000080B400AF064BD3F80F
:100228008830054A43F47003C2F8883000BFBD46E1
:100238005DF8047B704700BF00ED00E00D4885467F
:10024800FFF7EAFF0C480D490D4A002302E0D45895
:10025800C4500433C4188C42F9D30A4A0A4C002308
:1002680001E013600432A242FBD300F011F8FFF75B
:10027800CFFFFEE7008000200000002000000020E3
:1002880000030008000000201C000020FEE700001A
:1002980070B50D4D0D4C641BA4100026A64209D163
:1002A8000B4D0C4C00F018F8641BA4100026A64255
:1002B80005D170BD55F8043B98470136EEE755F86F
:1002C800043B98470136F2E7F8020008F8020008F4
:1002D800F8020008FC020008F8B500BFF8BC08BC2A
:1002E8009E467047F8B500BFF8BC08BC9E467047EC
:0402F800FD010008FC
:0402FC00D90100081C
:0400000508000245A8
:00000001FF
