:020000040800F2
:1000000000800020C5150008151600081516000808
:100010001516000815160008151600080000000047
:10002000000000000000000000000000151600089D
:100030001516000800000000151600081516000827
:1000400015160008151600081516000815160008E4
:1000500015160008151600081516000815160008D4
:1000600015160008151600081516000815160008C4
:1000700015160008151600081516000815160008B4
:1000800015160008000000001516000815160008D7
:100090001516000815160008151600081516000894
:1000A000311000081516000815160008151600086E
:1000B00015160008C50F00081516000815160008CB
:1000C0001516000815160008151600081516000864
:1000D0001516000815160008151600081516000854
:1000E0005D0F000815160008151600081516000803
:1000F0001516000815160008151600080000000067
:100100000000000015160008000000001516000889
:100110001516000800000000151600081516000846
:100120001516000815160008151600081516000803
:100130001516000800000000000000001516000859
:100140001516000815160008151600080000000016
:10015000000000000000000000000000000000009F
:10016000000000000000000000000000151600085C
:10017000151600080000000000000000000000004C
:10018000000000001516000800000000000000003C
:10019000000000001516000800000000000000002C
:1001A00000000000000000001516000815160008E9
:1001B00015160008151600081516000800000000A6
:1001C00000000000151600080000000000000000FC
:0801D0001516000815160008C1
:1001D80010B5054C237833B9044B13B10448AFF379
:1001E80000800123237010BD64000020000000007F
:1001F8007820000808B5034B1BB103490348AFF347
:10020800008008BD00000000680000207820000879
:1002180081F0004102E000BF83F0004330B54FEAAF
:1002280041044FEA430594EA050F08BF90EA020F1C
:100238001FBF54EA000C55EA020C7FEA645C7FEAAF
:10024800655C00F0E2804FEA5454D4EB5555B8BFD2
:100258006D420CDD2C4480EA020281EA030382EA43
:10026800000083EA010180EA020281EA0303362DD5
:1002780088BF30BD11F0004F4FEA01314FF4801CA8
:100288004CEA113102D0404261EB410113F0004FBA
:100298004FEA03334CEA133302D0524263EB430371
:1002A80094EA050F00F0A780A4F10104D5F1200E0F
:1002B8000DDB02FA0EFC22FA05F2801841F100016A
:1002C80003FA0EF2801843FA05F359410EE0A5F13E
:1002D80020050EF1200E012A03FA0EFC28BF4CF06F
:1002E800020C43FA05F3C01851EBE37101F0004525
:1002F80007D54FF0000EDCF1000C7EEB00006EEB32
:100308000101B1F5801F1BD3B1F5001F0CD34908BB
:100318005FEA30004FEA3C0C04F101044FEA445212
:1003280012F5800F80F09A80BCF1004F08BF5FEA99
:10033800500C50F1000041EB045141EA050130BD79
:100348005FEA4C0C404141EB0101013C28BFB1F58B
:10035800801FE9D291F0000F04BF01460020B1FAD6
:1003680081F308BF2033A3F10B03B3F120020CDAA9
:100378000C3208DD02F1140CC2F10C0201FA0CF087
:1003880021FA02F10CE002F11402D8BFC2F1200CEC
:1003980001FA02F120FA0CFCDCBF41EA0C019040A2
:1003A800E41AA2BF01EB0451294330BD6FEA0404EB
:1003B8001F3C1CDA0C340EDC04F11404C4F12002D6
:1003C80020FA04F001FA02F340EA030021FA04F3E8
:1003D80045EA030130BDC4F10C04C4F1200220FA3F
:1003E80002F001FA04F340EA0300294630BD21FA7D
:1003F80004F0294630BD94F0000F83F4801306BF43
:1004080081F480110134013D4EE77FEA645C18BF36
:100418007FEA655C29D094EA050F08BF90EA020FCD
:1004280005D054EA000C04BF1946104630BD91EAC5
:10043800030F1EBF0021002030BD5FEA545C05D1C8
:100448004000494128BF41F0004130BD14F5800407
:100458003CBF01F5801130BD01F0004545F0FE417B
:1004680041F470014FF0000030BD7FEA645C1ABFB0
:10047800194610467FEA655C1CBF0B46024650EAE7
:10048800013406BF52EA033591EA030F41F4002113
:1004980030BD00BF90F0000F04BF0021704730B599
:1004A8004FF4806404F132044FF000054FF000016E
:1004B80050E700BF90F0000F04BF0021704730B52F
:1004C8004FF4806404F1320410F0004548BF404204
:1004D8004FF000013EE700BF42004FEAE2014FEA59
:1004E80031014FEA02701FBF12F07F4393F07F4F34
:1004F80081F06051704732F07F4208BF704793F037
:100508007F4F04BF41F40021704730B54FF4607449
:1005180001F0004521F000411CE700BF50EA01024C
:1005280008BF704730B54FF000050AE050EA0102F5
:1005380008BF704730B511F0004502D5404261EB65
:1005480041014FF4806404F132045FEA915C3FF4A6
:10055800D8AE4FF003025FEADC0C18BF03325FEA43
:10056800DC0C18BF033202EBDC02C2F1200300FAF4
:1005780003FC20FA02F001FA03FE40EA0E0021FA19
:1005880002F11444BDE600BF70B54FF0FF0C4CF407
:10059800E06C1CEA11541DBF1CEA135594EA0C0FB9
:1005A80095EA0C0F00F0DEF82C4481EA030621EAF4
:1005B8004C5123EA4C5350EA013518BF52EA03352F
:1005C80041F4801143F4801338D0A0FB02CE4FF0E1
:1005D8000005E1FB02E506F00042E0FB03E54FF011
:1005E8000006E1FB03569CF0000F18BF4EF0010E09
:1005F800A4F1FF04B6F5007F64F5407404D25FEA05
:100608004E0E6D4146EB060642EAC62141EA5551B7
:100618004FEAC52040EA5E504FEACE2EB4F1FD0CF9
:1006280088BFBCF5E06F1ED8BEF1004F08BF5FEA77
:10063800500E50F1000041EB045170BD06F0004629
:1006480046EA010140EA020081EA0301B4EB5C04D6
:10065800C2BFD4EB0C0541EA045170BD41F48011CE
:100668004FF0000E013C00F3AB8014F1360FDEBFF3
:10067800002001F0004170BDC4F10004203C35DACF
:100688000C341BDC04F11404C4F1200500FA05F352
:1006980020FA04F001FA05F240EA020001F00042F3
:1006A80021F0004110EBD37021FA04F642EB060169
:1006B8005EEA430E08BF20EAD37070BDC4F10C0493
:1006C800C4F1200500FA04F320FA05F001FA04F257
:1006D80040EA020001F0004110EBD37041F1000143
:1006E8005EEA430E08BF20EAD37070BDC4F120054E
:1006F80000FA05F24EEA020E20FA04F301FA05F2B6
:1007080043EA020321FA04F001F0004121FA04F25D
:1007180020EA020000EBD3705EEA430E08BF20EA2D
:10072800D37070BD94F0000F0FD101F00046400067
:1007380041EB010111F4801F08BF013CF7D041EAE9
:10074800060195F0000F18BF704703F000465200ED
:1007580043EB030313F4801F08BF013DF7D043EABE
:100768000603704794EA0C0F0CEA135518BF95EA74
:100778000C0F0CD050EA410618BF52EA4306D1D1FB
:1007880081EA030101F000414FF0000070BD50EA1A
:10079800410606BF1046194652EA430619D094EAA4
:1007A8000C0F02D150EA013613D195EA0C0F05D18E
:1007B80052EA03361CBF104619460AD181EA0301E2
:1007C80001F0004141F0FE4141F470014FF000009A
:1007D80070BD41F0FE4141F4780170BD70B54FF035
:1007E800FF0C4CF4E06C1CEA11541DBF1CEA1355B5
:1007F80094EA0C0F95EA0C0F00F0A7F8A4EB050497
:1008080081EA030E52EA03354FEA013100F088808D
:100818004FEA03334FF0805545EA131343EA126356
:100828004FEA022245EA111545EA10654FEA00260B
:100838000EF000419D4208BF964244F1FD0404F5C4
:10084800407402D25B084FEA3202B61A65EB030520
:100858005B084FEA32024FF480104FF4002CB6EBDD
:10086800020E75EB030E22BFB61A754640EA0C005D
:100878005B084FEA3202B6EB020E75EB030E22BF9D
:10088800B61A754640EA5C005B084FEA3202B6EBDE
:10089800020E75EB030E22BFB61A754640EA9C009D
:1008A8005B084FEA3202B6EB020E75EB030E22BF6D
:1008B800B61A754640EADC0055EA060E18D04FEA2B
:1008C800051545EA16754FEA06164FEAC30343EACB
:1008D80052734FEAC2025FEA1C1CC0D111F4801F98
:1008E8000BD141EA00014FF000004FF0004CB6E791
:1008F80011F4801F04BF01430020B4F1FD0C88BF30
:10090800BCF5E06F3FF6AFAEB5EB030C04BFB6EB3A
:10091800020C5FEA500C50F1000041EB045170BD2D
:100928000EF0004E4EEA113114EB5C04C2BFD4EB5A
:100938000C0541EA045170BD41F480114FF0000EDE
:10094800013C90E645EA060E8DE60CEA135594EA5A
:100958000C0F08BF95EA0C0F3FF43BAF94EA0C0F5D
:100968000AD150EA01347FF434AF95EA0C0F7FF4D2
:1009780025AF104619462CE795EA0C0F06D152EA26
:1009880003353FF4FDAE1046194622E750EA41060A
:1009980018BF52EA43067FF4C5AE50EA41047FF41B
:1009A8000DAF52EA43057FF4EBAE12E74FEA41027E
:1009B80012F5001215D211D56FF47873B3EB6252A9
:1009C80012D94FEAC12343F0004343EA505311F0D0
:1009D800004F23FA02F018BF404270474FF0000062
:1009E800704750EA013005D111F0004008BF6FF0A0
:1009F800004070474FF00000704700BF80B400AF60
:100A0800524B1B68514A43F004031360504B1B6858
:100A18004F4A43F48073136000BF4D4B1B6803F4C7
:100A28008063002BF9D04A4B494A9B689360484B36
:100A3800474A9B689360464B454A9B689360444B82
:100A4800DB68434A43F00203D360414BDB68404A0A
:100A580043F03003D3603E4BDB683D4A43F4AA437E
:100A6800D3603B4B3A4ADB68D360394B384ADB6882
:100A7800D360374B364ADB68D360354B344ADB6882
:100A8800D360334BDB68324A43F08073D360304B1A
:100A98002F4ADB68D3602E4BDB682D4A43F0805326
:100AA800D3602B4B1B682A4A43F08073136000BF46
:100AB800274B1B6803F00073002BF9D0244B9B686D
:100AC800234A43F00303936000BF214B9B6803F064
:100AD8000C03002BF9D01E4B1B6E1D4A43F001037B
:100AE80013661B4BDB6C1A4A43F00103D364184BA3
:100AF800DB6C174A43F00203D364154BDB6C144AD2
:100B080043F00403D364124B9B6D114A43F0020374
:100B180093650F4B9B6D0E4A43F0040393650C4B92
:100B28001B6E0B4A43F400531366094B1B6E084AAD
:100B380043F480331366064B1B6E054A43F4805317
:100B4800136600BFBD465DF8047B70470020024075
:100B58000010024080B500AF4FF40051294800F062
:100B680033F903465AB2284B1A704FF4804125488E
:100B780000F02AF903465AB2244B1A70224B93F913
:100B88000020224B93F900309A4210D01E4B93F963
:100B980000301AB21E4BB3F900309A4203D01D4BF5
:100BA80001221A701BE01B4BFF221A7017E0164B2C
:100BB80093F900301AB2164BB3F900309A4208D0B4
:100BC800144B93F900301A46134B1B681344124A0E
:100BD80013600D4B93F900301AB20D4B1A800E4B6F
:100BE8001B68002B03DA0C4B00221A6006E00A4B44
:100BF8001B68642B02DD084B64221A60064B1B68D5
:100C0800184680BD000400488200002083000020B0
:100C180080000020880000208400002080B400AFFD
:100C28004FF090431B684FF0904203F07C431360F1
:100C3800634B1B68624A03F470731360614B1B6853
:100C4800604B00221A605E4B1B685D4A23F04063CC
:100C580013605B4B1B685A4A23F040531360584B90
:100C68001B68574A23F040431360554BDB68544ACE
:100C780043F08063D360524BDB68514A43F08053A2
:100C8800D3604F4BDB684E4A43F08043D3604FF04C
:100C980090431B684FF0904243F4805313604FF029
:100CA80090431B684FF0904243F480231360454BF8
:100CB8001B68444A43F4804313604FF090435B68D9
:100CC8004FF0904223F4805353604FF090435B6899
:100CD8004FF0904223F4802353603A4B5B68394AC3
:100CE80023F4804353604FF090431B684FF09042C9
:100CF80043F4000313604FF090431B684FF0904299
:100D080043F0007313604FF090435B6A4FF09042DA
:100D180043F4204353624FF090435B6A4FF0904294
:100D280043F420235362264B1B68254A43F400539F
:100D38001360234B1B6A224A43F0A06313624FF0EF
:100D480090431B684FF0904243F4007313604FF0D8
:100D580090431B684FF0904243F4006313604FF0D8
:100D680090431B684FF0904243F4004313604FF0E8
:100D780090431B6A4FF0904243F4A02313624FF054
:100D880090431B6A4FF0904243F4A00313624FF064
:100D980090431B6A4FF0904243F0A0431362084B04
:100DA8001B68074A43F004031360054B5B68044A59
:100DB80023F00403536000BFBD465DF8047B704711
:100DC800000400480008004880B483B000AF786091
:100DD8000B467B807B681A697B881340002B01D007
:100DE800012300E0002318460C37BD465DF8047B5C
:100DF800704780B483B000AF78600B467B801346A1
:100E08007B707B78002B05D17B881B041A467B6896
:100E18009A6105E07B78012B02D17A887B689A6118
:100E280000BF0C37BD465DF8047B704780B483B0C3
:100E380000AF78600B467B807B685A697B881340DB
:100E4800002B05D07B881B041A467B689A6102E058
:100E58007A887B689A6100BF0C37BD465DF8047BD1
:100E68007047000080B483B000AF0346FB7197F968
:100E78000730002B0BDBFB7903F01F02074997F9BA
:100E880007305B09012000FA02F241F8232000BF75
:100E98000C37BD465DF8047B704700BF00E100E0F9
:100EA80080B483B000AF03463960FB7197F907300F
:100EB800002B0ADB3B68DAB20C4997F907301201BC
:100EC800D2B20B4483F800230AE03B68DAB208493F
:100ED800FB7903F00F03043B1201D2B20B441A76DC
:100EE80000BF0C37BD465DF8047B704700E100E0A9
:100EF80000ED00E080B500AF144B5B69134A43F482
:100F080080535361124B1B68114A43F4004313602A
:100F18000F4BDB680E4A43F40043D36000212820BE
:100F2800FFF7BEFF2820FFF79DFF00211D20FFF7D8
:100F3800B7FF1D20FFF796FF00211820FFF7B0FF2D
:100F48001820FFF78FFF00BF80BD00BF00000140E1
:100F58000004014080B500AF144B5B6903F4004303
:100F6800002B21D0114B4FF400425A61104B5B6BA0
:100F7800002B15D10F4B1B881BB2002B02D0012B65
:100F880007D00EE0012000F0C5F80A4B01221A80B4
:100F980007E0002000F0BEF8064B00221A8000E0AF
:100FA80000BF054800F0D4FB00BF80BD000401402D
:100FB800003401408E0000209020000880B500AF6A
:100FC800134B1B6903F00103002B1ED0104B6FF06D
:100FD80001021A61FFF7BEFD03461AB20D4B1A80D3
:100FE8000C4B1B881BB2184600F0C0F80A4B5B6A12
:100FF8001AB20A4B1A8000F0D3F803461A46084B77
:101008001A8002210748FFF711FF00BF80BD00BF0B
:10101800000400408A000020000800408C000020E6
:10102800900000200004004880B400AF074B1B6903
:1010380003F00103002B03D0044B6FF001021A6187
:1010480000BFBD465DF8047B704700BF004001400B
:1010580080B483B000AF78604FF06043D3F8803E2F
:1010680003F00103002B13D04FF06043D3F8003E88
:1010780003F00103002B0BD000E000BF4FF06043EA
:101088001B68002BF9D04FF060437A68D2B21A700F
:101098007B6818460C37BD465DF8047B7047000036
:1010A80080B500AFFFF7AAFCFFF7B8FDFFF722FFF6
:1010B80000F0A4F900F0C0F900F00AFA00F054FAC0
:1010C800002000F027F8002000F050F8014800F058
:1010D8003FFBFEE7A420000880B586B000AFF860AB
:1010E800B9607A6000237B6100237B6109E0BB68FB
:1010F8005A1CBA601B781846FFF7AAFF7B690133B0
:101108007B617A697B689A42F1DB7B6818461837FD
:10111800BD4680BD80B582B000AF0346FB71FB7948
:10112800002B02D0012B0DD019E0012280210E489E
:10113800FFF75FFE00224FF400714FF09040FFF779
:1011480058FE0CE0002280210748FFF752FE0122DA
:101158004FF400714FF09040FFF74BFE00BF00BF07
:101168000837BD4680BD00BF0008004880B483B082
:1011780000AF0346FB80B7F90630642B07DCB7F9EC
:101188000630002B03DB054AB7F90630536300BF6E
:101198000C37BD465DF8047B704700BF0034014042
:1011A80080B500AF334B1B881BB21A46324B1A600E
:1011B800324B1B681BB203F010031AB22E4B9A81F4
:1011C8002D4B1A682C4B5B689A4206D12A4B002299
:1011D800DA81294BB3F90E3049E0274BB3F90C30CB
:1011E800002B1AD1244B1A68234B5B689A420CDAFD
:1011F800214B1B681946214BDB6A1F4A52689B1A10
:101208000B441A461C4B9A6021E01B4B1A681A4B78
:101218005B68D31A184A936019E0174B1A68164B83
:101228005B689A420CDD144B5B681946134BDB6A0A
:10123800114A12689B1A0B441A460F4B9A6006E033
:101248000D4B5A680C4B1B68D31A0B4A93600A4B18
:101258009B68184600F014F803461A46064BDA81D4
:10126800054B1B68044A5360034BB3F90E3018460C
:1012780080BD00BF8C0000209400002000080040C2
:1012880080B584B000AF78607A6813461B019B1A5A
:101298009B001846FFF70EF909A3D3E90023FFF7CF
:1012A8009DFA02460B4610461946FFF77FFB034698
:1012B800FB81B7F90E3018461037BD4680BD00BF18
:1012C800A6272CF180324B4080B586B000AFF8607D
:1012D800B9607A6000237B610AE0AFF300800146C1
:1012E800BB685A1CBA60CAB21A707B6901337B6149
:1012F8007A697B689A42F0DB7B6818461837BD46E6
:1013080080BD80B483B000AF78604FF0FF331846DB
:101318000C37BD465DF8047B704780B483B000AFDE
:10132800786039603B684FF400525A6000231846D1
:101338000C37BD465DF8047B704780B483B000AFBE
:101348007860012318460C37BD465DF8047B70476A
:1013580080B485B000AFF860B9607A6000231846A1
:101368001437BD465DF8047B7047000080B586B031
:1013780000AF7860144A154BD31A7B617B693B61D7
:10138800134B1B68002B02D1114B124A1A60104BE9
:101398001A687B6813443A699A4207D200F038F910
:1013A80003460C221A604FF0FF3309E0084B1B6814
:1013B800FB60074B1A687B681344054A1360FB6897
:1013C80018461837BD4680BD008000200004000084
:1013D800A4000020B800002080B400AF064BD3F86A
:1013E8008830054A43F47003C2F8883000BFBD4610
:1013F8005DF8047B704700BF00ED00E080B400AFEB
:101408000C4B1B680B4A43F004031360094BDB6861
:10141800084A43F00103D360064B54229A62054BF5
:101428001B68044A43F00103136000BFBD465DF822
:10143800047B70470004004080B400AF234B9B68D6
:10144800224A43F003039360204B9B691F4A43F0F1
:10145800010393611D4B9B691C4A43F4807393619C
:101468001A4B9B69194A43F0A0039361174B9B6978
:10147800164A43F420439361144B1B6A134A23F022
:1014880002031362114B1B6A104A23F0080313620C
:101498000E4B1B6A0D4A23F0200313620B4B1B6A89
:1014A8000A4A23F080031362084B00229A62074B12
:1014B8004FF6FF72DA62054B1B68044A43F00103DA
:1014C800136000BFBD465DF8047B7047000800400C
:1014D80080B400AF234B9B69224A43F060039361B9
:1014E800204B9B691F4A43F0080393611D4B1B68FF
:1014F8001C4A43F0800313601A4B1B68194A23F0F7
:1015080060031360174B1B6A164A23F00203136229
:10151800144B1B6A134A43F001031362114B1B6AF5
:10152800104A23F0040313620E4B5B6C0D4A43F41C
:10153800004353640B4B6322DA620A4BA9229A6276
:10154800084B5B69074A43F001035361054B1B686D
:10155800044A43F00103136000BFBD465DF8047BF5
:10156800704700BF0034014080B400AF124B1B68C5
:10157800114A43F0040313600F4BDB680E4A43F033
:101588000103D3600C4B40F2A3629A620A4B4CF2FF
:101598004F32DA62084B1B68074A43F08003136036
:1015A800054B1B68044A43F00103136000BFBD46A6
:1015B8005DF8047B704700BF004001400D48854638
:1015C800FFF70AFF0C480D490D4A002302E0D458E2
:1015D800C4500433C4188C42F9D30A4A0A4C002375
:1015E80001E013600432A242FBD300F017F8FFF7C2
:1015F80057FDFEE700800020000000206400002066
:101608002821000864000020B8000020FEE7000040
:10161800014B1868704700BF0000002070B50D4DE1
:101628000D4C641BA4100026A64209D10B4D0C4C8E
:1016380000F01EFD641BA4100026A64205D170BD53
:1016480055F8043B98470136EEE755F8043B9847B0
:101658000136F2E720210008202100082021000897
:101668002421000802440346934200D1704703F83E
:10167800011BF9E770B50E46054618B183690BB929
:1016880000F048FAAB69AC6813B9284600F042FA92
:101698002C4B9C4220D16C68636EDB0705D4A38970
:1016A800980502D4A06D00F0D3FAA38919071DD5B7
:1016B8002369DBB1013EA36816F8011F013BA36053
:1016C80039BB002B38DA22460A21284600F048F8B0
:1016D800013011D00A2511E01B4B9C4201D1AC68A6
:1016E800DAE71A4B9C4208BFEC68D5E72146284642
:1016F80000F088F80028DDD04FF0FF35636EDA0778
:1017080005D4A3899B0502D4A06D00F0A2FA28464F
:1017180070BD002B04DAA2699A4206DC0A2904D0BB
:1017280023685A1C22601970C5E72246284600F033
:1017380017F80130BFD1DFE723680A255A1C226059
:101748001D70DBE7E020000800210008C020000829
:10175800024B01461868FFF78DBF00BF000000204C
:10176800F8B50E461446054618B183690BB900F062
:10177800D1F9214B9C422BD16C68A369A360A38942
:101788001A072FD523696BB323692068C01A6369C8
:10179800F6B28342374604DC2146284600F026F993
:1017A80030BBA368013BA36023685A1C22601E70EB
:1017B80063690130834204D0A389DB0706D50A2E6A
:1017C80004D12146284600F011F988B93846F8BDF9
:1017D8000A4B9C4201D1AC68CFE7094B9C4208BF39
:1017E800EC68CAE72146284600F00CF80028CBD060
:1017F8004FF0FF37EAE700BFE020000800210008AB
:10180800C0200008324B70B51D6806460C4625B14D
:10181800AB6913B9284600F07DF92E4B9C420FD1D5
:101828006C68A389B4F90C2019072CD4DD0611D4EF
:101838000923336042F04003A3814FF0FF303EE0BC
:10184800254B9C4201D1AC68EBE7244B9C4208BF76
:10185800EC68E6E7580712D5616B41B104F144031F
:10186800994202D0304600F05BFA00236363A389F3
:1018780023F02403A3810023636023692360A389E1
:1018880043F00803A38123694BB9A38903F42073A8
:10189800B3F5007F03D02146304600F001FAA08955
:1018A800B4F90C2010F001030AD00023A360636987
:1018B8005B42A361236943B910F08000BAD170BDBF
:1018C800810758BF6369A360F4E70020F7E700BF0A
:1018D80000000020E020000800210008C0200008C7
:1018E8008A892DE9F041054610070C4658D44B6803
:1018F800002B05DC0B6C002B02DC0020BDE8F0811E
:10190800E66A002EF9D0002312F480522F682B606B
:1019180032D0606DA3895A0705D56368C01A636B16
:101928000BB1236CC01A00230246E66A216A2846D6
:10193800B047431CA38906D129681D292CD82A4AF7
:10194800CA40D60728D500226260D90422692260DD
:1019580004D5421C01D12B6803B96065616B2F6007
:101968000029CAD004F14403994202D0284600F065
:10197800D7F900206063C1E7216A01232846B047F0
:10198800411CC7D12B68002BC4D01D2B01D0162BAE
:1019980001D12F60B1E7A38943F04003A381ADE7EC
:1019A8000F69002FA9D093070E6808BF4B690F6015
:1019B80018BF0023A6EB07088B60B8F1000F9CDD69
:1019C800216AA66A43463A462846B047002806DCFC
:1019D800A38943F04003A3814FF0FF308EE707440B
:1019E800A8EB0008E9E700BF0100402038B50B6903
:1019F80005460C4613B90025284638BD18B1836939
:101A08000BB900F087F8144B9C421BD16C68B4F9F1
:101A18000C30002BEFD0626ED00704D4990502D4A5
:101A2800A06D00F015F928462146FFF759FF636EAF
:101A3800DA070546E0D4A3899B05DDD4A06D00F044
:101A480008F9D9E7054B9C4201D1AC68DFE7044BA4
:101A58009C4208BFEC68DAE7E02000080021000893
:101A6800C0200008002310B50446C0E90033C0E9CF
:101A78000433836081814366C281836119460822E9
:101A88005C30FFF7EFFD054B6362054BA362054B26
:101A9800E362054B2462236310BD00BF091F0008E1
:101AA8002B1F0008631F0008871F0008014900F06A
:101AB800AFB800BFF519000870B568224D1E554330
:101AC8000E4605F1740100F097F9044640B1002173
:101AD800C0E900160C30A06005F16802FFF7C2FDEE
:101AE800204670BD014800F0B3B800BFA90000202F
:101AF800014800F0AEB800BFA9000020014800F07E
:101B0800A7B800BFAA000020014800F0A2B800BF93
:101B1800AA00002010B50446FFF7F0FFA3691BB127
:101B2800BDE81040FFF7F0BFC4E912332365134B3B
:101B3800134A1B68A262A34204BF0123A361204683
:101B480000F020F86060204600F01CF8A0602046F5
:101B580000F018F80022E06004216068FFF782FFB7
:101B6800A06801220921FFF77DFFE0680222122107
:101B7800FFF778FF0123A361D2E700BFBC2000086C
:101B8800B51A0008F8B50746FFF7ACFF1E4B1E68EC
:101B9800B36913B93046FFF7BDFF4836D6E90134BB
:101BA800013B03D533680BB33668F7E7B4F90C503B
:101BB800D5B9164BE36004F15800656600F047F8A4
:101BC800FFF796FFC4E90155C4E904552560A561EE
:101BD8000822294604F15C00FFF744FDC4E90D55CD
:101BE800C4E912552046F8BD6834D9E704213846BF
:101BF800FFF762FF044630600028D5D1FFF778FF71
:101C08000C233B60EEE700BFBC2000080100FFFF8B
:101C18002DE9F8430646884600F148040027D4E930
:101C28000195B9F1010905D52468002CF7D138468A
:101C3800BDE8F883AB89012B07D9B5F90E3001331C
:101C480003D029463046C04707436835E9E770475F
:101C58007047704770B50E46B1F90E10002996B05E
:101C680014461D4608DAB6F90C3000222A601A0616
:101C780010D44FF480630EE06A4600F0A7F90028FC
:101C8800F1DB019A02F47042A2F500535A425A411C
:101C98002A60EEE740230020236016B070BD0000E4
:101CA8008B8973B59D0706460C4607D504F1470393
:101CB800236023610123636102B070BD01AB6A46F2
:101CC800FFF7C8FF00990546304600F095F848B977
:101CD800B4F90C309A05EFD423F0030343F0020360
:101CE800A381E3E70D4BB362A389206043F080032F
:101CF800A381009B6361019B20615BB1B4F90E1065
:101D0800304600F075F928B1A38923F0030343F0A6
:101D18000103A381A0890543A581CDE7B51A000871
:101D280037B5002944D051F8043C0190002BA1F1AB
:101D38000404B8BFE41800F07DF91E4A019813683E
:101D480033B96360146003B0BDE8304000F078B97F
:101D5800A34208D9256861198B4201BF19685B68DD
:101D680049192160EDE71A465B680BB1A342FAD91D
:101D780011685518A5420BD1246821445418A34270
:101D88001160E0D11C685B68536021441160DAE798
:101D980002D90C230360D6E7256861198B4204BF7A
:101DA80019685B68636004BF491921605460CAE719
:101DB80003B030BDAC00002070B50E4E0C46316843
:101DC800054611B900F08CF830602146284600F02D
:101DD80087F8431C0AD0C41C24F00304A04207D08F
:101DE800211A284600F07CF8013001D14FF0FF3469
:101DF800204670BDB00000202DE9F041CD1C25F033
:101E0800030508350C2D38BF0C25002D074601DBCE
:101E1800A94205D90C233B6000263046BDE8F08175
:101E28002E4E00F007F933681C4634BB2946384665
:101E3800FFF7C2FF431C04464DD134682646002EE6
:101E480040D123683146384604EB030800F048F8CF
:101E580080453AD1216803356D1A25F00305083508
:101E68000C2D38BF0C2529463846FFF7A5FF013051
:101E78002BD023682B4423600EE02268521B1ED40B
:101E88000B2A16D96119A342256018BF59606368E7
:101E980008BF316062514B60384604F10B0600F010
:101EA800CFF826F00706231DF21AB6D09B1BA350C5
:101EB800B3E76268A3420CBF32605A60ECE723467E
:101EC8006468B2E734467668B9E70C233B60384665
:101ED80000F0B6F8A1E72560DEE700BFAC000020FF
:101EE80038B5064D0023044608462B60FFF73EFA36
:101EF800431C02D12B6803B1236038BDB400002015
:101F080010B50C46B1F90E1000F0A0F80028ABBFD0
:101F1800636DA3891B1823F48053ACBF6365A38149
:101F280010BD2DE9F0411F468B89DB0505460C469F
:101F3800164605D5B1F90E100223002200F068F804
:101F4800A389B4F90E1023F48053A38132463B468B
:101F58002846BDE8F04100F017B810B50C46B1F9B5
:101F68000E1000F055F8431CA38915BF606523F4D3
:101F7800805343F48053A38118BFA38110BDB1F9E6
:101F88000E1000F013B8000038B5074D0446084697
:101F9800114600222A601A46FFF79EF8431C02D118
:101FA8002B6803B1236038BDB400002038B5064D56
:101FB8000023044608462B60FFF7A3F9431C02D10F
:101FC8002B6803B1236038BDB400002038B5074D35
:101FD80000230446084611462B60FFF79EF9431C70
:101FE80002D12B6803B1236038BD00BFB4000020C4
:101FF80038B5064D0023044608462B60FFF79DF9C7
:10200800431C02D12B6803B1236038BDB400002003
:1020180038B5074D04460846114600222A601A467C
:10202800FFF796F9431C02D12B6803B1236038BD32
:10203800B40000200148FFF70BBE00BFA800002035
:102048000148FFF706BE00BFA800002038B5074DBD
:1020580004460846114600222A601A46FFF734F95A
:10206800431C02D12B6803B1236038BDB4000020A3
:10207800F8B500BFF8BC08BC9E467047F8B500BF6D
:08208800F8BC08BC9E4670473D
:1020900073776974636820696E74657272757074A1
:1020A00000000000496E697469616C697A61746945
:1020B0006F6E20646F6E652E00000000040000202B
:1020C0000000000000000000000000000000000010
:1020D0000000000000000000000000000000000000
:1020E00000000000000000000000000000000000F0
:1020F00000000000000000000000000000000000E0
:1021000000000000000000000000000000000000CF
:1021100000000000000000000000000000000000BF
:04212000FD010008B5
:04212400D9010008D5
:102128000400002000000000E02000080021000852
:10213800C0200008000000000000000000000000AF
:102148000000000000000000000000000000000087
:102158000000000000000000000000000000000077
:102168000000000000000000000000000000000067
:102178000000000000000000000000000000000057
:042188000000000053
:04000005080015C515
:00000001FF
