:020000040800F2
:100000000080002011070008610700086107000850
:100010006107000861070008610700080000000090
:100020000000000000000000000000006107000860
:100030006107000800000000610700086107000870
:1000400061070008610700086107000861070008F0
:10005000610700086107000829050008610700081A
:1000600061070008610700086107000861070008D0
:1000700061070008610700086107000861070008C0
:100080006107000800000000610700086107000820
:1000900061070008610700086107000861070008A0
:1000A0006107000861070008610700086107000890
:1000B0006107000861070008610700086107000880
:1000C0006107000861070008610700086107000870
:1000D0006107000861070008610700086107000860
:1000E0006107000861070008610700086107000850
:1000F00061070008610700086107000800000000B0
:10010000000000006107000800000000610700080F
:10011000610700080000000061070008610700088F
:10012000610700086107000861070008610700080F
:1001300061070008000000000000000061070008DF
:10014000610700086107000861070008000000005F
:10015000000000000000000000000000000000009F
:10016000000000000000000000000000610700081F
:10017000610700080000000000000000000000000F
:1001800000000000610700080000000000000000FF
:1001900000000000610700080000000000000000EF
:1001A000000000000000000061070008610700086F
:1001B00061070008610700086107000800000000EF
:1001C00000000000610700080000000000000000BF
:0801D000610700086107000847
:1001D80010B5054C237833B9044B13B10448AFF379
:1001E80000800123237010BD64000020000000007F
:1001F800C411000808B5034B1BB103490348AFF30A
:10020800008008BD0000000068000020C41100083C
:1002180080B400AF464B1B68454A43F004031360A3
:10022800444B1B68434A43F48073136000BF414B3F
:100238001B6803F48063002BF9D03E4B3D4A9B6852
:1002480093603C4B3B4A9B6893603A4B394A9B68A6
:100258009360384BDB68374A43F00203D360354B71
:10026800DB68344A43F03003D360324BDB68314AF1
:1002780043F4AA43D3602F4B2E4ADB68D3602D4B3F
:100288002C4ADB68D3602B4B2A4ADB68D360294BA6
:10029800284ADB68D360274BDB68264A43F0807323
:1002A800D360244B234ADB68D360224BDB68214AA6
:1002B80043F08053D3601F4B1B681E4A43F0807382
:1002C800136000BF1B4B1B6803F00073002BF9D0B1
:1002D800184B9B68174A43F00303936000BF154B04
:1002E8009B6803F00C03002BF9D0124B1B6E114ACC
:1002F80043F0010313660F4BDB6C0E4A43F0010316
:10030800D3640C4BDB6C0B4A43F00403D364094BF6
:10031800DB6C084A43F02003D364064B1B6E054A86
:1003280043F48053136600BFBD465DF8047B7047F5
:10033800002002400010024080B400AF4FF090430C
:100348001B684FF0904203F07F4313602D4B1B68EE
:100358002C4B00221A602C4B1B682B4B00221A6076
:100368004FF090431B684FF0904243F400731360C2
:100378004FF090431B684FF0904243F400631360C2
:100388004FF090431B684FF0904243F48053136042
:100398004FF090431B684FF0904243F400431360C2
:1003A8004FF090431B684FF0904243F48053136022
:1003B800144B1B68134A43F480131360114B1B68DA
:1003C800104A43F0807313604FF090431B6A4FF05C
:1003D800904243F4A02313624FF090431B6A4FF0FE
:1003E800904243F4A00313624FF090431B6A4FF00E
:1003F800904243F0A043136200BFBD465DF8047B02
:10040800704700BF000800480014004880B483B05B
:1004180000AF0346FB7197F90730002B0BDBFB7924
:1004280003F01F02074997F907305B09012000FA1A
:1004380002F241F8232000BF0C37BD465DF8047B6B
:10044800704700BF00E100E080B483B000AF03460E
:100458003960FB7197F90730002B0ADB3B68DAB289
:100468000C4997F907301201D2B20B4483F80023E4
:100478000AE03B68DAB20849FB7903F00F03043B52
:100488001201D2B20B441A7600BF0C37BD465DF894
:10049800047B704700E100E000ED00E080B500AFAC
:1004A8001D4B5B691C4A43F0200353611A4B9B6840
:1004B800194A43F005039360184B184A1B681360E8
:1004C800164B164A1B681360144B9B68134A43F477
:1004D80000539360114B9B68104A43F001039360EB
:1004E8000E4BDB680D4A43F40053D3600B4BDB68BB
:1004F8000A4A43F00103D36000212820FFF7A4FF34
:100508002820FFF783FF01210620FFF79DFF062023
:10051800FFF77CFF00BF80BD0000014000040140E0
:1005280080B400AF00BFBD465DF8047B704780B45F
:1005380083B000AF78604FF06043D3F8803E03F09B
:100548000103002B13D04FF06043D3F8003E03F0B3
:100558000103002B0BD000E000BF4FF060431B6885
:10056800002BF9D04FF060437A68D2B21A707B68DA
:1005780018460C37BD465DF8047B704780B500AF60
:10058800FFF746FEFFF7D8FEFFF788FF014800F0A7
:1005980085F9FEE7DC11000880B586B000AFF86089
:1005A800B9607A6000237B6100237B6109E0BB6846
:1005B8005A1CBA601B781846FFF7B9FF7B690133EC
:1005C8007B617A697B689A42F1DB7B681846183749
:1005D800BD4680BD80B586B000AFF860B9607A606E
:1005E80000237B610AE0AFF300800146BB685A1C18
:1005F800BA60CAB21A707B6901337B617A697B6819
:100608009A42F0DB7B6818461837BD4680BD80B437
:1006180083B000AF78604FF0FF3318460C37BD4603
:100628005DF8047B704780B483B000AF78603960B0
:100638003B684FF400525A60002318460C37BD46F9
:100648005DF8047B704780B483B000AF7860012305
:1006580018460C37BD465DF8047B704780B485B0FA
:1006680000AFF860B9607A60002318461437BD46B9
:100678005DF8047B7047000080B586B000AF7860F5
:10068800144A154BD31A7B617B693B61134B1B687A
:10069800002B02D1114B124A1A60104B1A687B6862
:1006A80013443A699A4207D200F058F803460C22DC
:1006B8001A604FF0FF3309E0084B1B68FB60074BDB
:1006C8001A687B681344054A1360FB681846183794
:1006D800BD4680BD0080002000040000800000208E
:1006E8009800002080B400AF064BD3F88830054A44
:1006F80043F47003C2F8883000BFBD465DF8047B40
:10070800704700BF00ED00E00D488546FFF7EAFF9F
:100718000C480D490D4A002302E0D458C450043354
:10072800C4188C42F9D30A4A0A4C002301E013602A
:100738000432A242FBD300F017F8FFF71FFFFEE7D1
:100748000080002000000020640000205C120008E7
:100758006400002094000020FEE70000014B1868A8
:10076800704700BF0000002070B50D4D0D4C641B94
:10077800A4100026A64209D10B4D0C4C00F01EFD1A
:10078800641BA4100026A64205D170BD55F8043B91
:1007980098470136EEE755F8043B98470136F2E7EB
:1007A8005412000854120008541200085812000885
:1007B80002440346934200D1704703F8011BF9E74E
:1007C80070B50E46054618B183690BB900F048FAB2
:1007D800AB69AC6813B9284600F042FA2C4B9C422E
:1007E80020D16C68636EDB0705D4A389980502D411
:1007F800A06D00F0D3FAA38919071DD52369DBB1D1
:10080800013EA36816F8011F013BA36039BB002B0A
:1008180038DA22460A21284600F048F8013011D07B
:100828000A2511E01B4B9C4201D1AC68DAE71A4B50
:100838009C4208BFEC68D5E72146284600F088F8B6
:100848000028DDD04FF0FF35636EDA0705D4A389A1
:100858009B0502D4A06D00F0A2FA284670BD002BBB
:1008680004DAA2699A4206DC0A2904D023685A1CD1
:1008780022601970C5E72246284600F017F80130B3
:10088800BFD1DFE723680A255A1C22601D70DBE709
:100898001412000834120008F4110008024B014633
:1008A8001868FFF78DBF00BF00000020F8B50E469E
:1008B8001446054618B183690BB900F0D1F9214BEC
:1008C8009C422BD16C68A369A360A3891A072FD512
:1008D80023696BB323692068C01A6369F6B283423F
:1008E800374604DC2146284600F026F930BBA368C9
:1008F800013BA36023685A1C22601E7063690130A3
:10090800834204D0A389DB0706D50A2E04D12146E9
:10091800284600F011F988B93846F8BD0A4B9C42C0
:1009280001D1AC68CFE7094B9C4208BFEC68CAE725
:100938002146284600F00CF80028CBD04FF0FF37AE
:10094800EAE700BF1412000834120008F411000886
:10095800324B70B51D6806460C4625B1AB6913B914
:10096800284600F07DF92E4B9C420FD16C68A38974
:10097800B4F90C2019072CD4DD0611D409233360EF
:1009880042F04003A3814FF0FF303EE0254B9C42EC
:1009980001D1AC68EBE7244B9C4208BFEC68E6E762
:1009A800580712D5616B41B104F14403994202D052
:1009B800304600F05BFA00236363A38923F0240325
:1009C800A3810023636023692360A38943F008039C
:1009D800A38123694BB9A38903F42073B3F5007F7E
:1009E80003D02146304600F001FAA089B4F90C2062
:1009F80010F001030AD00023A36063695B42A3617E
:100A0800236943B910F08000BAD170BD810758BF7F
:100A18006369A360F4E70020F7E700BF0000002047
:100A28001412000834120008F41100088A892DE90C
:100A3800F041054610070C4658D44B68002B05DCDE
:100A48000B6C002B02DC0020BDE8F081E66A002E6A
:100A5800F9D0002312F480522F682B6032D0606DD9
:100A6800A3895A0705D56368C01A636B0BB1236C59
:100A7800C01A00230246E66A216A2846B047431C8A
:100A8800A38906D129681D292CD82A4ACA40D60725
:100A980028D500226260D9042269226004D5421C4C
:100AA80001D12B6803B96065616B2F600029CAD03A
:100AB80004F14403994202D0284600F0D7F90020F7
:100AC8006063C1E7216A01232846B047411CC7D1AA
:100AD8002B68002BC4D01D2B01D0162B01D12F6001
:100AE800B1E7A38943F04003A381ADE70F69002F65
:100AF800A9D093070E6808BF4B690F6018BF002381
:100B0800A6EB07088B60B8F1000F9CDD216AA66A86
:100B180043463A462846B047002806DCA38943F0F6
:100B28004003A3814FF0FF308EE70744A8EB00088D
:100B3800E9E700BF0100402038B50B6905460C46BF
:100B480013B90025284638BD18B183690BB900F0E0
:100B580087F8144B9C421BD16C68B4F90C30002BFD
:100B6800EFD0626ED00704D4990502D4A06D00F0CE
:100B780015F928462146FFF759FF636EDA0705463F
:100B8800E0D4A3899B05DDD4A06D00F008F9D9E76E
:100B9800054B9C4201D1AC68DFE7044B9C4208BF7F
:100BA800EC68DAE71412000834120008F41100089F
:100BB800002310B50446C0E90033C0E9043383605C
:100BC80081814366C2818361194608225C30FFF740
:100BD800EFFD054B6362054BA362054BE362054BD2
:100BE8002462236310BD00BF551000087710000869
:100BF800AF100008D3100008014900F0AFB800BFDB
:100C0800410B000870B568224D1E55430E4605F18C
:100C1800740100F097F9044640B10021C0E90016BC
:100C28000C30A06005F16802FFF7C2FD204670BDD8
:100C3800014800F0B3B800BF85000020014800F06B
:100C4800AEB800BF85000020014800F0A7B800BF7B
:100C580086000020014800F0A2B800BF86000020EE
:100C680010B50446FFF7F0FFA3691BB1BDE81040BB
:100C7800FFF7F0BFC4E912332365134B134A1B680F
:100C8800A262A34204BF0123A361204600F020F81A
:100C98006060204600F01CF8A060204600F018F8BC
:100CA8000022E06004216068FFF782FFA06801224B
:100CB8000921FFF77DFFE06802221221FFF778FF84
:100CC8000123A361D2E700BFF0110008010C00085E
:100CD800F8B50746FFF7ACFF1E4B1E68B36913B99A
:100CE8003046FFF7BDFF4836D6E90134013B03D54E
:100CF80033680BB33668F7E7B4F90C50D5B9164B1F
:100D0800E36004F15800656600F047F8FFF796FFC6
:100D1800C4E90155C4E904552560A561082229469E
:100D280004F15C00FFF744FDC4E90D55C4E9125510
:100D38002046F8BD6834D9E704213846FFF762FF3A
:100D4800044630600028D5D1FFF778FF0C233B60BC
:100D5800EEE700BFF01100080100FFFF2DE9F8439E
:100D68000646884600F148040027D4E90195B9F100
:100D7800010905D52468002CF7D13846BDE8F88369
:100D8800AB89012B07D9B5F90E30013303D02946B9
:100D98003046C04707436835E9E7704770477047F2
:100DA80070B50E46B1F90E10002996B014461D46CE
:100DB80008DAB6F90C3000222A601A0610D44FF46B
:100DC80080630EE06A4600F0A7F90028F1DB019A7B
:100DD80002F47042A2F500535A425A412A60EEE7E3
:100DE80040230020236016B070BD00008B8973B5C6
:100DF8009D0706460C4607D504F147032360236187
:100E08000123636102B070BD01AB6A46FFF7C8FFFA
:100E180000990546304600F095F848B9B4F90C3009
:100E28009A05EFD423F0030343F00203A381E3E719
:100E38000D4BB362A389206043F08003A381009B1C
:100E48006361019B20615BB1B4F90E10304600F07C
:100E580075F928B1A38923F0030343F00103A381A3
:100E6800A0890543A581CDE7010C000837B5002905
:100E780044D051F8043C0190002BA1F10404B8BF00
:100E8800E41800F07DF91E4A0198136833B96360CD
:100E9800146003B0BDE8304000F078B9A34208D927
:100EA800256861198B4201BF19685B68491921607F
:100EB800EDE71A465B680BB1A342FAD911685518D9
:100EC800A5420BD1246821445418A3421160E0D1F3
:100ED8001C685B68536021441160DAE702D90C236F
:100EE8000360D6E7256861198B4204BF19685B68FF
:100EF800636004BF491921605460CAE703B030BD7C
:100F08008800002070B50E4E0C463168054611B9B0
:100F180000F08CF830602146284600F087F8431C22
:100F28000AD0C41C24F00304A04207D0211A284682
:100F380000F07CF8013001D14FF0FF34204670BD3D
:100F48008C0000202DE9F041CD1C25F00305083563
:100F58000C2D38BF0C25002D074601DBA94205D909
:100F68000C233B6000263046BDE8F0812E4E00F091
:100F780007F933681C4634BB29463846FFF7C2FFD9
:100F8800431C04464DD134682646002E40D12368C0
:100F98003146384604EB030800F048F880453AD15A
:100FA800216803356D1A25F0030508350C2D38BF67
:100FB8000C2529463846FFF7A5FF01302BD02368BA
:100FC8002B4423600EE02268521B1ED40B2A16D92C
:100FD8006119A342256018BF5960636808BF316072
:100FE80062514B60384604F10B0600F0CFF826F04A
:100FF8000706231DF21AB6D09B1BA350B3E76268FD
:10100800A3420CBF32605A60ECE723466468B2E73B
:1010180034467668B9E70C233B60384600F0B6F8EA
:10102800A1E72560DEE700BF8800002038B5064D3F
:101038000023044608462B60FFF71EFB431C02D121
:101048002B6803B1236038BD9000002010B50C4612
:10105800B1F90E1000F0A0F80028ABBF636DA389AA
:101068001B1823F48053ACBF6365A38110BD2DE921
:10107800F0411F468B89DB0505460C46164605D50B
:10108800B1F90E100223002200F068F8A389B4F920
:101098000E1023F48053A38132463B462846BDE810
:1010A800F04100F017B810B50C46B1F90E1000F079
:1010B80055F8431CA38915BF606523F4805343F496
:1010C8008053A38118BFA38110BDB1F90E1000F0A1
:1010D80013B8000038B5074D0446084611460022EB
:1010E8002A601A46FFF758FA431C02D12B6803B14D
:1010F800236038BD9000002038B5064D0023044613
:1011080008462B60FFF783FA431C02D12B6803B112
:10111800236038BD9000002038B5074D00230446F1
:10112800084611462B60FFF77EFA431C02D12B6854
:1011380003B1236038BD00BF9000002038B5064DCC
:101148000023044608462B60FFF77DFA431C02D1B2
:101158002B6803B1236038BD9000002038B5074DD7
:1011680004460846114600222A601A46FFF776FA16
:10117800431C02D12B6803B1236038BD90000020C6
:101188000148FFF70BBE00BF840000200148FFF7AD
:1011980006BE00BF8400002038B5074D0446084647
:1011A800114600222A601A46FFF714FA431C02D19E
:1011B8002B6803B1236038BD90000020F8B500BF4C
:1011C800F8BC08BC9E467047F8B500BFF8BC08BC20
:0411D8009E46704778
:1011DC00496E697469616C697A6174696F6E2064B7
:1011EC006F6E65000400002000000000000000008D
:1011FC0000000000000000000000000000000000E3
:10120C0000000000000000000000000000000000D2
:10121C0000000000000000000000000000000000C2
:10122C0000000000000000000000000000000000B2
:10123C0000000000000000000000000000000000A2
:08124C0000000000000000009A
:04125400FD01000890
:04125800D9010008B0
:10125C0004000020000000001412000834120008E2
:10126C00F411000800000000000000000000000065
:10127C000000000000000000000000000000000062
:10128C000000000000000000000000000000000052
:10129C000000000000000000000000000000000042
:1012AC000000000000000000000000000000000032
:0412BC00000000002E
:0400000508000711D7
:00000001FF
