:020000040800F2
:100000000080002011040008610400086104000859
:100010006104000861040008610400080000000099
:100020000000000000000000000000006104000863
:100030006104000800000000610400086104000879
:1000400061040008610400086104000861040008FC
:1000500061040008610400086104000861040008EC
:1000600061040008610400086104000861040008DC
:1000700061040008610400086104000861040008CC
:100080006104000800000000610400086104000829
:1000900061040008610400086104000861040008AC
:1000A000610400086104000861040008610400089C
:1000B000610400086104000861040008610400088C
:1000C000610400086104000861040008610400087C
:1000D000610400086104000861040008610400086C
:1000E000610400086104000861040008610400085C
:1000F00061040008610400086104000800000000B9
:100100000000000061040008000000006104000815
:100110006104000800000000610400086104000898
:10012000610400086104000861040008610400081B
:1001300061040008000000000000000061040008E5
:100140006104000861040008610400080000000068
:10015000000000000000000000000000000000009F
:100160000000000000000000000000006104000822
:100170006104000800000000000000000000000012
:100180000000000061040008000000000000000002
:1001900000000000610400080000000000000000F2
:1001A0000000000000000000610400086104000875
:1001B00061040008610400086104000800000000F8
:1001C00000000000610400080000000000000000C2
:0801D00061040008610400084D
:1001D80010B5054C237833B9044B13B10448AFF379
:1001E80000800123237010BD0000002000000000E3
:1001F800AC04000808B5034B1BB103490348AFF32F
:10020800008008BD0000000004000020AC040008C5
:1002180080B400AF404B1B683F4A43F004031360AF
:100228003E4B1B683D4A43F48073136000BF3B4B51
:100238001B6803F48063002BF9D0384B374A9B685E
:100248009360364B354A9B689360344B334A9B68BE
:100258009360324BDB68314A43F00203D3602F4B83
:10026800DB682E4A43F03003D3602C4BDB682B4A03
:1002780043F4AA43D360294B284ADB68D360274B51
:10028800264ADB68D360254B244ADB68D360234BBE
:10029800224ADB68D360214BDB68204A43F0807335
:1002A800D3601E4B1D4ADB68D3601C4BDB681B4ABE
:1002B80043F08053D360194B1B68184A43F080738E
:1002C800136000BF154B1B6803F00073002BF9D0B7
:1002D800124B9B68114A43F00303936000BF0F4B16
:1002E8009B6803F00C03002BF9D00C4BDB6C0B4A1A
:1002F80043F00103D364094BDB6C084A43F0040361
:10030800D364064B1B6E054A43F48053136600BF43
:10031800BD465DF8047B7047002002400010024093
:1003280080B400AF4FF090431B684FF0904203F049
:100338007F431360264B1B68254B00221A604FF041
:1003480090431B684FF0904243F4007313604FF0E2
:1003580090431B684FF0904243F4006313604FF0E2
:1003680090431B684FF0904243F4805313604FF062
:1003780090431B684FF0904243F400431360144BC2
:100388001B68134A43F480131360114B1B68104A0F
:1003980043F0807313604FF090431B6A4FF0904214
:1003A80043F4A02313624FF090431B6A4FF090422E
:1003B80043F4A00313624FF090431B6A4FF090423E
:1003C80043F0A043136200BFBD465DF8047B70474D
:1003D8000008004880B500AFFFF71AFFFFF7A0FF3D
:1003E800FEE7000080B400AF064BD3F88830054A1A
:1003F80043F47003C2F8883000BFBD465DF8047B43
:10040800704700BF00ED00E00D488546FFF7EAFFA2
:100418000C480D490D4A002302E0D458C450043357
:10042800C4188C42F9D30A4A0A4C002301E013602D
:100438000432A242FBD300F011F8FFF7CBFFFEE72E
:10044800008000200000002000000020CC040008EC
:10045800000000201C000020FEE7000070B50D4DD4
:100468000D4C641BA4100026A64209D10B4D0C4C60
:1004780000F018F8641BA4100026A64205D170BD30
:1004880055F8043B98470136EEE755F8043B984782
:100498000136F2E7C4040008C4040008C4040008D4
:1004A800C8040008F8B500BFF8BC08BC9E467047F1
:0C04B800F8B500BFF8BC08BC9E467047B9
:0404C400FD0100082E
:0404C800D90100084E
:0400000508000411DA
:00000001FF
