:020000040800F2
:1000000000800020B10B0008010C0008010C000862
:10001000010C0008010C0008010C000800000000A1
:10002000000000000000000000000000010C0008BB
:10003000010C000800000000010C0008010C000881
:10004000010C0008010C0008010C0008010C00085C
:10005000010C0008010C0008010C0008010C00084C
:10006000010C0008010C0008010C0008010C00083C
:10007000010C0008010C0008010C0008010C00082C
:10008000010C000800000000010C0008010C000831
:10009000010C0008010C0008010C0008010C00080C
:1000A000010C0008010C0008010C0008010C0008FC
:1000B000010C0008A9070008010C0008010C000849
:1000C000010C0008010C0008010C0008010C0008DC
:1000D000010C0008010C0008010C0008010C0008CC
:1000E00071070008010C0008010C0008010C000851
:1000F000010C0008010C0008010C000800000000C1
:1001000000000000010C000800000000010C0008C5
:10011000010C000800000000010C0008010C0008A0
:10012000010C0008010C0008010C0008010C00087B
:10013000010C00080000000000000000010C000895
:10014000010C0008010C0008010C00080000000070
:10015000000000000000000000000000000000009F
:10016000000000000000000000000000010C00087A
:10017000010C00080000000000000000000000006A
:1001800000000000010C000800000000000000005A
:1001900000000000010C000800000000000000004A
:1001A0000000000000000000010C0008010C000825
:1001B000010C0008010C0008010C00080000000000
:1001C00000000000010C000800000000000000001A
:0801D000010C0008010C0008FD
:1001D80010B5054C237833B9044B13B10448AFF379
:1001E80000800123237010BD64000020000000007F
:1001F8006416000808B5034B1BB103490348AFF365
:10020800008008BD00000000680000206416000897
:1002180080B400AF4F4B1B684E4A43F00403136091
:100228004D4B1B684C4A43F48073136000BF4A4B24
:100238001B6803F48063002BF9D0474B464A9B6840
:100248009360454B444A9B689360434B424A9B6882
:100258009360414BDB68404A43F00203D3603E4B56
:10026800DB683D4A43F03003D3603B4BDB683A4AD6
:1002780043F4AA43D360384B374ADB68D360364B24
:10028800354ADB68D360344B334ADB68D360324B82
:10029800314ADB68D360304BDB682F4A43F0807308
:1002A800D3602D4B2C4ADB68D3602B4BDB682A4A82
:1002B80043F08053D360284B1B68274A43F0807370
:1002C800136000BF244B1B6803F00073002BF9D0A8
:1002D800214B9B68204A43F00303936000BF1E4BE9
:1002E8009B6803F00C03002BF9D01B4B1B6E1A4ABA
:1002F80043F001031366184BDB6C174A43F0010304
:10030800D364154BDB6C144A43F00203D364124BDD
:10031800DB6C114A43F00403D3640F4B9B6D0E4A08
:1003280043F0020393650C4B9B6D0B4A43F00403A7
:100338009365094B1B6E084A43F400531366064B3A
:100348001B6E054A43F48053136600BFBD465DF833
:10035800047B7047002002400010024080B500AFC7
:100368004FF400512F4800F041F903465AB22E4B82
:100378001A704FF480412B4800F038F903465AB2FE
:100388002A4B1A70284B93F90020284B93F9003018
:100398009A4210D0244B93F900301AB2244BB3F987
:1003A80000309A4203D0234B01221A701BE0214BE4
:1003B800FF221A7017E01C4B93F900301AB21C4B3D
:1003C800B3F900309A4208D01A4B93F900301A4614
:1003D800194B1B681344184A1360134B93F90030E8
:1003E8001AB2134B1A80144B1B68002B05DA124BF8
:1003F8001B681E33104A13600FE00F4B1A680F4B2F
:1004080083FB021313441911D317C91A0B461B0196
:100418005B1A5B00D11A084B1960074B1B6818461A
:1004280080BD00BF00040048820000208300002037
:1004380080000020880000208400002089888888A7
:1004480080B400AF4FF090431B684FF0904203F028
:100458007F431360634B1B68624A03F47F63136036
:10046800614B1B68604B00221A605E4B1B685D4A3B
:1004780023F0406313605B4B1B685A4A23F04053D8
:100488001360584B1B68574A23F040431360554B81
:10049800DB68544A43F08063D360524BDB68514AAF
:1004A80043F08053D3604F4BDB684E4A43F08043A0
:1004B800D3604FF090431B684FF0904243F4805351
:1004C80013604FF090431B684FF0904243F4802331
:1004D8001360454B1B68444A43F4804313604FF054
:1004E80090435B684FF0904223F4805353604FF081
:1004F80090435B684FF0904223F4802353603A4B5B
:100508005B68394A23F4804353604FF090431B687B
:100518004FF0904243F4000313604FF090431B6880
:100528004FF0904243F0007313604FF090435B6AC2
:100538004FF0904243F4204353624FF090435B6A7C
:100548004FF0904243F420235362264B1B68254A00
:1005580043F400531360234B1B6A224A43F0A06301
:1005680013624FF090431B684FF0904243F40073BE
:1005780013604FF090431B684FF0904243F40063C0
:1005880013604FF090431B684FF0904243F40043D0
:1005980013604FF090431B6A4FF0904243F4A0233E
:1005A80013624FF090431B6A4FF0904243F4A0034C
:1005B80013624FF090431B6A4FF0904243F0A04300
:1005C8001362084B1B68074A43F004031360054B8A
:1005D8005B68044A23F00403536000BFBD465DF81E
:1005E800047B7047000400480008004880B483B0CA
:1005F80000AF78600B467B807B681A697B88134064
:10060800002B01D0012300E0002318460C37BD461B
:100618005DF8047B704780B483B000AF78600B4608
:100628007B8013467B707B78002B05D17B881B046D
:100638001A467B689A6105E07B78012B02D17A889B
:100648007B689A6100BF0C37BD465DF8047B704734
:1006580080B483B000AF78600B467B807B685A69B2
:100668007B881340002B05D07B881B041A467B68C7
:100678009A6102E07A887B689A6100BF0C37BD46B0
:100688005DF8047B7047000080B483B000AF034678
:10069800FB7197F90730002B0BDBFB7903F01F0286
:1006A800074997F907305B09012000FA02F241F87F
:1006B800232000BF0C37BD465DF8047B704700BFA0
:1006C80000E100E080B483B000AF03463960FB71FD
:1006D80097F90730002B0ADB3B68DAB20C4997F927
:1006E80007301201D2B20B4483F800230AE03B68BA
:1006F800DAB20849FB7903F00F03043B1201D2B2C6
:100708000B441A7600BF0C37BD465DF8047B704772
:1007180000E100E000ED00E080B500AF104B5B6940
:100728000F4A43F4805353610E4B1B680D4A43F440
:10073800004313600B4BDB680A4A43F40043D36061
:1007480000212820FFF7BEFF2820FFF79DFF00218A
:100758001D20FFF7B7FF1D20FFF796FF00BF80BDE4
:10076800000001400004014080B500AF094B5B69FF
:1007780003F40043002B0AD0064B4FF400425A61A1
:1007880002210548FFF764FF044800F0D7FA00BFCC
:1007980080BD00BF00040140000400487C1600082A
:1007A80080B500AF0A4B1B6903F00103002B0CD086
:1007B800074B6FF001021A6102210648FFF748FF54
:1007C800FFF7CCFD0346044A136000BF80BD00BF9D
:1007D80000040040000400488C00002080B483B06E
:1007E80000AF78604FF06043D3F8803E03F0010318
:1007F800002B13D04FF06043D3F8003E03F0010301
:10080800002B0BD000E000BF4FF060431B68002BAB
:10081800F9D04FF060437A68D2B21A707B681846F4
:100828000C37BD465DF8047B7047000080B500AF0B
:10083800FFF7EEFCFFF704FEFFF76EFF00F0F2F89B
:1008480000F00EF900F064F9002000F025F80248E5
:1008580000F074FAFEE700BF9016000880B586B075
:1008680000AFF860B9607A6000237B6100237B6188
:1008780009E0BB685A1CBA601B781846FFF7AEFF40
:100888007B6901337B617A697B689A42F1DB7B681B
:1008980018461837BD4680BD80B582B000AF034604
:1008A800FB71FB79002B02D0012B0DD019E001223E
:1008B80080210E48FFF7AFFE00224FF400714FF081
:1008C8009040FFF7A8FE0CE0002280210748FFF7C0
:1008D800A2FE01224FF400714FF09040FFF79BFEFB
:1008E80000BF00BF0837BD4680BD00BF00080048F4
:1008F80080B586B000AFF860B9607A6000237B618C
:100908000AE0AFF300800146BB685A1CBA60CAB25D
:100918001A707B6901337B617A697B689A42F0DBE4
:100928007B6818461837BD4680BD80B483B000AFD9
:1009380078604FF0FF3318460C37BD465DF8047BEE
:10094800704780B483B000AF786039603B684FF47B
:1009580000525A60002318460C37BD465DF8047BE8
:10096800704780B483B000AF7860012318460C3715
:10097800BD465DF8047B704780B485B000AFF86071
:10098800B9607A60002318461437BD465DF8047BC9
:100998007047000080B586B000AF7860144A154BE8
:1009A800D31A7B617B693B61134B1B68002B02D117
:1009B800114B124A1A60104B1A687B6813443A6943
:1009C8009A4207D200F01AF903460C221A604FF037
:1009D800FF3309E0084B1B68FB60074B1A687B680C
:1009E8001344054A1360FB6818461837BD4680BD96
:1009F800008000200004000090000020A8000020D3
:100A080080B400AF064BD3F88830054A43F470032E
:100A1800C2F8883000BFBD465DF8047B704700BF50
:100A280000ED00E080B400AF0C4B1B680B4A43F0AC
:100A380004031360094BDB68084A43F00103D360E1
:100A4800064B54229A62054B1B68044A43F0010383
:100A5800136000BFBD465DF8047B7047000400408A
:100A680080B400AF294B9B68284A43F00303936086
:100A7800264B9B69254A43F001039361234B9B69ED
:100A8800224A43F480739361204B9B691F4A43F0C9
:100A9800A00393611D4B9B691C4A43F42043936157
:100AA8001A4B1B6A194A23F002031362174B1B6A7D
:100AB800164A23F008031362144B1B6A134A23F0E7
:100AC80020031362114B1B6A104A23F08003136240
:100AD8000E4B9B6A0D4A23F0010393620B4B1B6874
:100AE8000A4A43F080031360084BDB6A074A43F065
:100AF800FF03D362054B1B68044A43F001031360EC
:100B080000BFBD465DF8047B704700BF0008004089
:100B180080B400AF234B9B69224A43F06003936182
:100B2800204B9B691F4A43F0080393611D4B1B68C8
:100B38001C4A43F0800313601A4B1B68194A23F0C0
:100B480060031360174B1B6A164A23F002031362F3
:100B5800144B1B6A134A43F001031362114B1B6ABF
:100B6800104A23F0040313620E4B5B6C0D4A43F4E6
:100B7800004353640B4B6322DA620A4BA9229A6240
:100B8800084B5B69074A43F001035361054B1B6837
:100B9800044A43F00103136000BFBD465DF8047BBF
:100BA800704700BF003401400D488546FFF728FF15
:100BB8000C480D490D4A002302E0D458C4500433B0
:100BC800C4188C42F9D30A4A0A4C002301E0136086
:100BD8000432A242FBD300F017F8FFF727FEFEE726
:100BE8000080002000000020640000201417000886
:100BF80064000020A4000020FEE70000014B1868F4
:100C0800704700BF0000002070B50D4D0D4C641BEF
:100C1800A4100026A64209D10B4D0C4C00F01EFD75
:100C2800641BA4100026A64205D170BD55F8043BEC
:100C380098470136EEE755F8043B98470136F2E746
:100C48000C1700080C1700080C17000810170008EC
:100C580002440346934200D1704703F8011BF9E7A9
:100C680070B50E46054618B183690BB900F048FA0D
:100C7800AB69AC6813B9284600F042FA2C4B9C4289
:100C880020D16C68636EDB0705D4A389980502D46C
:100C9800A06D00F0D3FAA38919071DD52369DBB12C
:100CA800013EA36816F8011F013BA36039BB002B66
:100CB80038DA22460A21284600F048F8013011D0D7
:100CC8000A2511E01B4B9C4201D1AC68DAE71A4BAC
:100CD8009C4208BFEC68D5E72146284600F088F812
:100CE8000028DDD04FF0FF35636EDA0705D4A389FD
:100CF8009B0502D4A06D00F0A2FA284670BD002B17
:100D080004DAA2699A4206DC0A2904D023685A1C2C
:100D180022601970C5E72246284600F017F801300E
:100D2800BFD1DFE723680A255A1C22601D70DBE764
:100D3800CC160008EC160008AC160008024B014659
:100D48001868FFF78DBF00BF00000020F8B50E46F9
:100D58001446054618B183690BB900F0D1F9214B47
:100D68009C422BD16C68A369A360A3891A072FD56D
:100D780023696BB323692068C01A6369F6B283429A
:100D8800374604DC2146284600F026F930BBA36824
:100D9800013BA36023685A1C22601E7063690130FE
:100DA800834204D0A389DB0706D50A2E04D1214645
:100DB800284600F011F988B93846F8BD0A4B9C421C
:100DC80001D1AC68CFE7094B9C4208BFEC68CAE781
:100DD8002146284600F00CF80028CBD04FF0FF370A
:100DE800EAE700BFCC160008EC160008AC160008AD
:100DF800324B70B51D6806460C4625B1AB6913B970
:100E0800284600F07DF92E4B9C420FD16C68A389CF
:100E1800B4F90C2019072CD4DD0611D4092333604A
:100E280042F04003A3814FF0FF303EE0254B9C4247
:100E380001D1AC68EBE7244B9C4208BFEC68E6E7BD
:100E4800580712D5616B41B104F14403994202D0AD
:100E5800304600F05BFA00236363A38923F0240380
:100E6800A3810023636023692360A38943F00803F7
:100E7800A38123694BB9A38903F42073B3F5007FD9
:100E880003D02146304600F001FAA089B4F90C20BD
:100E980010F001030AD00023A36063695B42A361D9
:100EA800236943B910F08000BAD170BD810758BFDB
:100EB8006369A360F4E70020F7E700BF00000020A3
:100EC800CC160008EC160008AC1600088A892DE933
:100ED800F041054610070C4658D44B68002B05DC3A
:100EE8000B6C002B02DC0020BDE8F081E66A002EC6
:100EF800F9D0002312F480522F682B6032D0606D35
:100F0800A3895A0705D56368C01A636B0BB1236CB4
:100F1800C01A00230246E66A216A2846B047431CE5
:100F2800A38906D129681D292CD82A4ACA40D60780
:100F380028D500226260D9042269226004D5421CA7
:100F480001D12B6803B96065616B2F600029CAD095
:100F580004F14403994202D0284600F0D7F9002052
:100F68006063C1E7216A01232846B047411CC7D105
:100F78002B68002BC4D01D2B01D0162B01D12F605C
:100F8800B1E7A38943F04003A381ADE70F69002FC0
:100F9800A9D093070E6808BF4B690F6018BF0023DC
:100FA800A6EB07088B60B8F1000F9CDD216AA66AE2
:100FB80043463A462846B047002806DCA38943F052
:100FC8004003A3814FF0FF308EE70744A8EB0008E9
:100FD800E9E700BF0100402038B50B6905460C461B
:100FE80013B90025284638BD18B183690BB900F03C
:100FF80087F8144B9C421BD16C68B4F90C30002B59
:10100800EFD0626ED00704D4990502D4A06D00F029
:1010180015F928462146FFF759FF636EDA0705469A
:10102800E0D4A3899B05DDD4A06D00F008F9D9E7C9
:10103800054B9C4201D1AC68DFE7044B9C4208BFDA
:10104800EC68DAE7CC160008EC160008AC160008C5
:10105800002310B50446C0E90033C0E904338360B7
:1010680081814366C2818361194608225C30FFF79B
:10107800EFFD054B6362054BA362054BE362054B2D
:101088002462236310BD00BFF5140008171500087B
:101098004F15000873150008014900F0AFB800BFEC
:1010A800E10F000870B568224D1E55430E4605F144
:1010B800740100F097F9044640B10021C0E9001618
:1010C8000C30A06005F16802FFF7C2FD204670BD34
:1010D800014800F0B3B800BF95000020014800F0B7
:1010E800AEB800BF95000020014800F0A7B800BFC7
:1010F80096000020014800F0A2B800BF960000202A
:1011080010B50446FFF7F0FFA3691BB1BDE8104016
:10111800FFF7F0BFC4E912332365134B134A1B686A
:10112800A262A34204BF0123A361204600F020F875
:101138006060204600F01CF8A060204600F018F817
:101148000022E06004216068FFF782FFA0680122A6
:101158000921FFF77DFFE06802221221FFF778FFDF
:101168000123A361D2E700BFA8160008A110000858
:10117800F8B50746FFF7ACFF1E4B1E68B36913B9F5
:101188003046FFF7BDFF4836D6E90134013B03D5A9
:1011980033680BB33668F7E7B4F90C50D5B9164B7A
:1011A800E36004F15800656600F047F8FFF796FF22
:1011B800C4E90155C4E904552560A56108222946FA
:1011C80004F15C00FFF744FDC4E90D55C4E912556C
:1011D8002046F8BD6834D9E704213846FFF762FF96
:1011E800044630600028D5D1FFF778FF0C233B6018
:1011F800EEE700BFA81600080100FFFF2DE9F8433D
:101208000646884600F148040027D4E90195B9F15B
:10121800010905D52468002CF7D13846BDE8F883C4
:10122800AB89012B07D9B5F90E30013303D0294614
:101238003046C04707436835E9E77047704770474D
:1012480070B50E46B1F90E10002996B014461D4629
:1012580008DAB6F90C3000222A601A0610D44FF4C6
:1012680080630EE06A4600F0A7F90028F1DB019AD6
:1012780002F47042A2F500535A425A412A60EEE73E
:1012880040230020236016B070BD00008B8973B521
:101298009D0706460C4607D504F1470323602361E2
:1012A8000123636102B070BD01AB6A46FFF7C8FF56
:1012B80000990546304600F095F848B9B4F90C3065
:1012C8009A05EFD423F0030343F00203A381E3E775
:1012D8000D4BB362A389206043F08003A381009B78
:1012E8006361019B20615BB1B4F90E10304600F0D8
:1012F80075F928B1A38923F0030343F00103A381FF
:10130800A0890543A581CDE7A110000837B50029BC
:1013180044D051F8043C0190002BA1F10404B8BF5B
:10132800E41800F07DF91E4A0198136833B9636028
:10133800146003B0BDE8304000F078B9A34208D982
:10134800256861198B4201BF19685B6849192160DA
:10135800EDE71A465B680BB1A342FAD91168551834
:10136800A5420BD1246821445418A3421160E0D14E
:101378001C685B68536021441160DAE702D90C23CA
:101388000360D6E7256861198B4204BF19685B685A
:10139800636004BF491921605460CAE703B030BDD7
:1013A8009800002070B50E4E0C463168054611B9FC
:1013B80000F08CF830602146284600F087F8431C7E
:1013C8000AD0C41C24F00304A04207D0211A2846DE
:1013D80000F07CF8013001D14FF0FF34204670BD99
:1013E8009C0000202DE9F041CD1C25F003050835AF
:1013F8000C2D38BF0C25002D074601DBA94205D965
:101408000C233B6000263046BDE8F0812E4E00F0EC
:1014180007F933681C4634BB29463846FFF7C2FF34
:10142800431C04464DD134682646002E40D123681B
:101438003146384604EB030800F048F880453AD1B5
:10144800216803356D1A25F0030508350C2D38BFC2
:101458000C2529463846FFF7A5FF01302BD0236815
:101468002B4423600EE02268521B1ED40B2A16D987
:101478006119A342256018BF5960636808BF3160CD
:1014880062514B60384604F10B0600F0CFF826F0A5
:101498000706231DF21AB6D09B1BA350B3E7626858
:1014A800A3420CBF32605A60ECE723466468B2E797
:1014B80034467668B9E70C233B60384600F0B6F846
:1014C800A1E72560DEE700BF9800002038B5064D8B
:1014D8000023044608462B60FFF75CFA431C02D140
:1014E8002B6803B1236038BDA000002010B50C465E
:1014F800B1F90E1000F0A0F80028ABBF636DA38906
:101508001B1823F48053ACBF6365A38110BD2DE97C
:10151800F0411F468B89DB0505460C46164605D566
:10152800B1F90E100223002200F068F8A389B4F97B
:101538000E1023F48053A38132463B462846BDE86B
:10154800F04100F017B810B50C46B1F90E1000F0D4
:1015580055F8431CA38915BF606523F4805343F4F1
:101568008053A38118BFA38110BDB1F90E1000F0FC
:1015780013B8000038B5074D044608461146002246
:101588002A601A46FFF76AF9431C02D12B6803B197
:10159800236038BDA000002038B5064D002304465E
:1015A80008462B60FFF7C1F9431C02D12B6803B131
:1015B800236038BDA000002038B5074D002304463D
:1015C800084611462B60FFF7BCF9431C02D12B6873
:1015D80003B1236038BD00BFA000002038B5064D18
:1015E8000023044608462B60FFF7BBF9431C02D1D1
:1015F8002B6803B1236038BDA000002038B5074D23
:1016080004460846114600222A601A46FFF7B4F934
:10161800431C02D12B6803B1236038BDA000002011
:101628000148FFF70BBE00BF940000200148FFF7F8
:1016380006BE00BF9400002038B5074D0446084692
:10164800114600222A601A46FFF752F9431C02D1BC
:101658002B6803B1236038BDA0000020F8B500BF97
:10166800F8BC08BC9E467047F8B500BFF8BC08BC7B
:041678009E467047D3
:10167C0073776974636820696E74657272757074BF
:10168C0000000000496E697469616C697A61746963
:10169C006F6E20646F6E652E000000000400002049
:1016AC00000000000000000000000000000000002E
:1016BC00000000000000000000000000000000001E
:1016CC00000000000000000000000000000000000E
:1016DC0000000000000000000000000000000000FE
:1016EC0000000000000000000000000000000000EE
:1016FC0000000000000000000000000000000000DE
:04170C00FD010008D3
:04171000D9010008F3
:101714000400002000000000CC160008EC160008AD
:10172400AC160008000000000000000000000000EB
:1017340000000000000000000000000000000000A5
:101744000000000000000000000000000000000095
:101754000000000000000000000000000000000085
:101764000000000000000000000000000000000075
:041774000000000071
:0400000508000BB133
:00000001FF
