:020000040800F2
:1000000000800020190A0008690A0008690A00082F
:10001000690A0008690A0008690A0008000000006F
:10002000000000000000000000000000690A000855
:10003000690A000800000000690A0008690A00084F
:10004000690A0008690A0008690A0008690A0008C4
:10005000690A0008690A0008690A0008690A0008B4
:10006000690A0008690A0008690A0008690A0008A4
:10007000690A0008690A0008690A0008690A000894
:10008000690A000800000000690A0008690A0008FF
:10009000690A0008690A0008690A0008690A000874
:1000A000690A0008690A0008690A0008690A000864
:1000B000690A0008690A0008690A0008690A000854
:1000C000690A0008690A0008690A0008690A000844
:1000D000690A0008690A0008690A0008690A000834
:1000E000690A0008690A0008690A0008690A000824
:1000F000690A0008690A0008690A0008000000008F
:1001000000000000690A000800000000690A0008F9
:10011000690A000800000000690A0008690A00086E
:10012000690A0008690A0008690A0008690A0008E3
:10013000690A00080000000000000000690A0008C9
:10014000690A0008690A0008690A0008000000003E
:10015000000000000000000000000000000000009F
:10016000000000000000000000000000690A000814
:10017000690A000800000000000000000000000004
:1001800000000000690A00080000000000000000F4
:1001900000000000690A00080000000000000000E4
:1001A0000000000000000000690A0008690A000859
:1001B000690A0008690A0008690A000800000000CE
:1001C00000000000690A00080000000000000000B4
:0801D000690A0008690A000831
:1001E00010B5054C237833B9044B13B10448AFF371
:1001F00000800123237010BD640000200000000077
:10020000DC1A000808B5034B1BB103490348AFF3E0
:10021000008008BD0000000068000020DC1A000813
:1002200001F0FF01102A2BDB10F0070F08D010F8A7
:10023000013B013A8B422DD010F0070F42B3F6D1AB
:10024000F0B441EA012141EA014122F007047FF0C4
:1002500000070023F0E80256083C85EA010586EA1B
:10026000010685FA47F5A3FA87F586FA47F6A5FA57
:1002700087F68EB9EED1F0BC01F0FF0102F0070263
:1002800032B110F8013B013A83EA010313B1F8D10E
:100290000020704701387047002D06BF35460338EF
:1002A000073815F0010F07D1013015F4807F02BF28
:1002B000013015F4C03F0130F0BC0138704700BF79
:1002C00080B400AF4C4B1B684B4A43F004031360EF
:1002D0004A4B1B68494A43F48073136000BF474B85
:1002E0001B6803F48063002BF9D0444B434A9B689E
:1002F0009360424B414A9B689360404B3F4A9B68E6
:1003000093603E4BDB683D4A43F00203D3603B4BB6
:10031000DB683A4A43F03003D360384BDB68374A36
:1003200043F4AA43D360354B344ADB68D360334B84
:10033000324ADB68D360314B304ADB68D3602F4BE5
:100340002E4ADB68D3602D4BDB682C4A43F0807368
:10035000D3602A4B294ADB68D360284BDB68274AE5
:1003600043F08053D360254B1B68244A43F08073CD
:10037000136000BF214B1B6803F00073002BF9D002
:100380001E4B9B681D4A43F00303936000BF1B4B49
:100390009B6803F00C03002BF9D0184B1B6E174A17
:1003A00043F001031366154BDB6C144A43F0010361
:1003B000D364124BDB6C114A43F00203D3640F4B3E
:1003C000DB6C0E4A43F00403D3640C4B9B6D0B4A69
:1003D00043F080539365094B9B6D084A43F0040337
:1003E0009365064B1B6E054A43F48053136600BFAA
:1003F000BD465DF8047B70470020024000100240BB
:1004000080B500AF4FF400512D4800F01FF90346AE
:100410005AB22C4B1A704FF48041294800F016F95B
:1004200003465AB2284B1A70264B93F90020264BEC
:1004300093F900309A420FD0224B93F90020234BBE
:1004400093F900309A4203D0214B01221A7019E02F
:100450001F4BFF221A7015E01A4B93F900201B4B1B
:1004600093F900309A4208D0194B93F900301A469C
:10047000184B1B681344174A1360124B93F9002062
:10048000124B1A70134B1B68002B05DA114B1B68BB
:100490001E33104A13600FE00E4B1A680E4B83FB9D
:1004A000021313441911D317C91A0B461B015B1A07
:1004B0005B00D11A074B1960064B1B68184680BDBC
:1004C00000040048810000208200002080000020FD
:1004D00088000020840000208988888880B400AFCC
:1004E000584B1B68574A23F040631360554B1B68F9
:1004F000544A23F040531360524B1B68514A23F077
:10050000404313604F4BDB684E4A43F08063D36037
:100510004C4BDB684B4A43F08053D360494BDB685C
:10052000484A43F08043D3604FF090431B684FF03C
:10053000904243F4805313604FF090431B684FF098
:10054000904243F4802313603F4B1B683E4A43F4C0
:10055000804313604FF090435B684FF0904223F468
:10056000805353604FF090435B684FF0904223F408
:1005700080235360344B5B68334A23F480435360D9
:100580004FF090431B684FF0904243F40003136018
:100590004FF090431B684FF0904243F0007313609C
:1005A0004FF090435B6A4FF0904243F42043536214
:1005B0004FF090435B6A4FF0904243F42023536224
:1005C000204B1B681F4A43F4005313601D4B1B6AEA
:1005D0001C4A43F0A06313624FF090431B684FF036
:1005E000904243F4007313604FF090431B684FF048
:1005F000904243F4006313604FF090431B684FF048
:10060000904243F4004313604FF090431B6A4FF055
:10061000904243F4A02313624FF090431B6A4FF0C3
:10062000904243F4A00313624FF090431B6A4FF0D3
:10063000904243F0A043136200BFBD465DF8047BC7
:10064000704700BF000400480008004880B483B031
:1006500000AF78600B467B807B681A697B8813400B
:10066000002B01D0012300E0002318460C37BD46C3
:100670005DF8047B7047000080B483B000AF034690
:10068000FB7197F90730002B0BDBFB7903F01F029E
:10069000074997F907305B09012000FA02F241F897
:1006A000232000BF0C37BD465DF8047B704700BFB8
:1006B00000E100E080B483B000AF03463960FB7115
:1006C00097F90730002B0ADB3B68DAB20C4997F93F
:1006D00007301201D2B20B4483F800230AE03B68D2
:1006E000DAB20849FB7903F00F03043B1201D2B2DE
:1006F0000B441A7600BF0C37BD465DF8047B70478B
:1007000000E100E000ED00E080B500AF0D4B5B695B
:100710000C4A43F4805353610B4B1B680A4A23F481
:1007200000431360084BDB68074A43F40043D3607F
:1007300000212820FFF7BEFF2820FFF79DFF00BF04
:1007400080BD00BF000001400004014080B483B0C0
:1007500000AF78604FF06043D3F8803E03F00103B0
:10076000002B13D04FF06043D3F8003E03F0010399
:10077000002B0BD000E000BF4FF060431B68002B44
:10078000F9D04FF060437A68D2B21A707B6818468D
:100790000C37BD465DF8047B7047000080B500AFA4
:1007A000FFF78EFDFFF79AFEFFF7AEFF00F0DCF8D3
:1007B0000B4800F0AFFC0B4B5B6A19460A4800F08F
:1007C00023FCFFF71DFE0346084A13604FF4004167
:1007D0000748FFF73BFF0346064A1360F1E700BFF7
:1007E000F41A000800080040081B00088C000020D4
:1007F000000400489000002080B586B000AFF8608B
:10080000B9607A6000237B6100237B6109E0BB68EB
:100810005A1CBA601B781846FFF798FF7B690133B2
:100820007B617A697B689A42F1DB7B6818461837EE
:10083000BD4680BD80B586B000AFF860B9607A6013
:1008400000237B610AE0AFF300800146BB685A1CBD
:10085000BA60CAB21A707B6901337B617A697B68BE
:100860009A42F0DB7B6818461837BD4680BD80B4DD
:1008700083B000AF78604FF0FF3318460C37BD46A9
:100880005DF8047B704780B483B000AF7860396056
:100890003B684FF400525A60002318460C37BD469F
:1008A0005DF8047B704780B483B000AF78600123AB
:1008B00018460C37BD465DF8047B704780B485B0A0
:1008C00000AFF860B9607A60002318461437BD465F
:1008D0005DF8047B7047000080B586B000AF78609B
:1008E000144A154BD31A7B617B693B61134B1B6820
:1008F000002B02D1114B124A1A60104B1A687B6808
:1009000013443A699A4207D200F0B0F803460C2229
:100910001A604FF0FF3309E0084B1B68FB60074B80
:100920001A687B681344054A1360FB681846183739
:10093000BD4680BD0080002000040000940000201F
:10094000A800002080B400AF064BD3F88830054AD9
:1009500043F47003C2F8883000BFBD465DF8047BE5
:10096000704700BF00ED00E080B400AF294B9B68EA
:10097000284A43F003039360264B9B69254A43F0C2
:1009800001039361234B9B69224A43F48073936173
:10099000204B9B691F4A43F0A00393611D4B9B6949
:1009A0001C4A43F4204393611A4B1B6A194A23F0F3
:1009B00002031362174B1B6A164A23F008031362E3
:1009C000144B1B6A134A23F020031362114B1B6A5A
:1009D000104A23F0800313620E4B9B6A0D4A23F0EA
:1009E000010393620B4B1B680A4A43F080031360B8
:1009F000084BDB6A074A43F0FF03D362054B1B68D1
:100A0000044A43F00103136000BFBD465DF8047B58
:100A1000704700BF000800400D488546FFF792FF71
:100A20000C480D490D4A002302E0D458C450043349
:100A3000C4188C42F9D30A4A0A4C002301E013601F
:100A40000432A242FBD300F0CFF9FFF7A7FEFEE786
:100A5000008000200000002064000020BC1B000873
:100A600064000020A8000020FEE70000014B186889
:100A7000704700BF000000208A892DE9F04105463B
:100A800010070C4658D44B68002B05DC0B6C002B70
:100A900002DC0020BDE8F081E66A002EF9D00023D8
:100AA00012F480522F682B6032D0606DA3895A07F0
:100AB00005D56368C01A636B0BB1236CC01A0023A1
:100AC0000246E66A216A2846B047431CA38906D13C
:100AD00029681D292CD82A4ACA40D60728D50022C1
:100AE0006260D9042269226004D5421C01D12B68BE
:100AF00003B96065616B2F600029CAD004F144031B
:100B0000994202D0284600F09FF900206063C1E7B7
:100B1000216A01232846B047411CC7D12B68002B0E
:100B2000C4D01D2B01D0162B01D12F60B1E7A389B2
:100B300043F04003A381ADE70F69002FA9D09307CD
:100B40000E6808BF4B690F6018BF0023A6EB0708AB
:100B50008B60B8F1000F9CDD216AA66A43463A46D5
:100B60002846B047002806DCA38943F04003A38150
:100B70004FF0FF308EE70744A8EB0008E9E700BF1D
:100B80000100402038B50B6905460C4613B9002515
:100B9000284638BD18B183690BB900F087F8144BAB
:100BA0009C421BD16C68B4F90C30002BEFD0626E04
:100BB000D00704D4990502D4A06D00F03AF9284674
:100BC0002146FFF759FF636EDA070546E0D4A38993
:100BD0009B05DDD4A06D00F02DF9D9E7054B9C42B3
:100BE00001D1AC68DFE7044B9C4208BFEC68DAE750
:100BF0003C1B00085C1B00081C1B0008002310B5F0
:100C00000446C0E90033C0E9043383608181436650
:100C1000C2818361194608225C3000F00CF9054B53
:100C20006362054BA362054BE362054B24622363B9
:100C300010BD00BF45110008671100089F11000892
:100C4000C3110008014900F0AFB800BF850B0008D0
:100C500070B568224D1E55430E4605F1740100F033
:100C60005FF9044640B10021C0E900160C30A060D5
:100C700005F1680200F0DFF8204670BD014800F081
:100C8000D8B800BF99000020014800F0D3B800BFD9
:100C900099000020014800F0CCB800BF9A00002065
:100CA000014800F0C7B800BF9A00002010B5044604
:100CB000FFF7F0FFA3691BB1BDE81040FFF7F0BFDD
:100CC000C4E912332365134B134A1B68A262A34283
:100CD00004BF0123A361204600F020F86060204695
:100CE00000F01CF8A060204600F018F80022E06038
:100CF00004216068FFF782FFA06801220921FFF745
:100D00007DFFE06802221221FFF778FF0123A36133
:100D1000D2E700BF7C1B0008450C0008F8B5074669
:100D2000FFF7ACFF1E4B1E68B36913B93046FFF7DF
:100D3000BDFF4836D6E90134013B03D533680BB318
:100D40003668F7E7B4F90C50D5B9164BE36004F1F7
:100D50005800656600F06CF8FFF796FFC4E901558E
:100D6000C4E904552560A5610822294604F15C0008
:100D700000F061F8C4E90D55C4E912552046F8BDEC
:100D80006834D9E704213846FFF762FF0446306033
:100D90000028D5D1FFF778FF0C233B60EEE700BFBA
:100DA0007C1B00080100FFFF2DE9F843064688463A
:100DB00000F148040027D4E90195B9F1010905D5EE
:100DC0002468002CF7D13846BDE8F883AB89012BA5
:100DD00007D9B5F90E30013303D029463046C04754
:100DE00007436835E9E7000070B50D4D0D4C641BF5
:100DF000A4100026A64209D10B4D0C4C00F06EFE4B
:100E0000641BA4100026A64205D170BD55F8043B12
:100E100098470136EEE755F8043B98470136F2E76C
:100E2000B41B0008B41B0008B41B0008B81B000862
:100E300070477047704702440346934200D17047A1
:100E400003F8011BF9E7000037B5002944D051F839
:100E5000043C0190002BA1F10404B8BFE41800F099
:100E60000FFB1E4A0198136833B96360146003B026
:100E7000BDE8304000F00ABBA34208D925686119DB
:100E80008B4201BF19685B6849192160EDE71A467A
:100E90005B680BB1A342FAD911685518A5420BD172
:100EA000246821445418A3421160E0D11C685B6897
:100EB000536021441160DAE702D90C230360D6E7BE
:100EC000256861198B4204BF19685B68636004BFC1
:100ED000491921605460CAE703B030BD9C0000206E
:100EE00070B50E4E0C463168054611B900F01AF97E
:100EF00030602146284600F015F9431C0AD0C41C76
:100F000024F00304A04207D0211A284600F00AF971
:100F1000013001D14FF0FF34204670BDA000002009
:100F20002DE9F041CD1C25F0030508350C2D38BF07
:100F30000C25002D074601DBA94205D90C233B6097
:100F400000263046BDE8F0812E4E00F099FA336855
:100F50001C4634BB29463846FFF7C2FF431C0446F3
:100F60004DD134682646002E40D12368314638469C
:100F700004EB030800F0D6F880453AD12168033528
:100F80006D1A25F0030508350C2D38BF0C252946B0
:100F90003846FFF7A5FF01302BD023682B44236090
:100FA0000EE02268521B1ED40B2A16D96119A342E7
:100FB000256018BF5960636808BF316062514B609B
:100FC000384604F10B0600F061FA26F00706231DEF
:100FD000F21AB6D09B1BA350B3E76268A3420CBFC2
:100FE00032605A60ECE723466468B2E734467668BC
:100FF000B9E70C233B60384600F048FAA1E72560CA
:10100000DEE700BF9C0000200FB40A4B13B51C683C
:1010100024B1A36913B92046FFF748FE05AB049A33
:10102000A1680193204600F061FA02B0BDE81040CB
:1010300004B070470000002070B50E46054618B198
:1010400083690BB9FFF732FEAB69AC6813B9284668
:10105000FFF72CFE2C4B9C4220D16C68636EDB07A3
:1010600005D4A389980502D4A06DFFF7E2FEA389F9
:1010700019071DD52369DBB1013EA36816F8011FCE
:10108000013BA36039BB002B38DA22460A212846EF
:1010900000F09CF8013011D00A2511E01B4B9C4256
:1010A00001D1AC68DAE71A4B9C4208BFEC68D5E77F
:1010B0002146284600F0EEF80028DDD04FF0FF353D
:1010C000636EDA0705D4A3899B0502D4A06DFFF7F0
:1010D000B1FE284670BD002B04DAA2699A4206DCF4
:1010E0000A2904D023685A1C22601970C5E72246D9
:1010F000284600F06BF80130BFD1DFE723680A25EE
:101100005A1C22601D70DBE73C1B00085C1B0008BA
:101110001C1B0008024B01461868FFF78DBF00BF7B
:101120000000002038B5064D0023044608462B6019
:10113000FFF7D2FB431C02D12B6803B1236038BDFB
:10114000A400002010B50C46B1F90E1000F092FC7E
:101150000028ABBF636DA3891B1823F48053ACBF79
:101160006365A38110BD2DE9F0411F468B89DB0526
:1011700005460C46164605D5B1F90E10022300228D
:1011800000F006F9A389B4F90E1023F48053A3816B
:1011900032463B462846BDE8F04100F069B810B53C
:1011A0000C46B1F90E1000F0F3F8431CA38915BFEB
:1011B000606523F4805343F48053A38118BFA38157
:1011C00010BDB1F90E1000F0D3B80000F8B50E460E
:1011D0001446054618B183690BB9FFF767FD214B2B
:1011E0009C422BD16C68A369A360A3891A072FD5F1
:1011F00023696BB323692068C01A6369F6B283421E
:10120000374604DC21462846FFF7BCFC30BBA36808
:10121000013BA36023685A1C22601E706369013081
:10122000834204D0A389DB0706D50A2E04D12146C8
:101230002846FFF7A7FC88B93846F8BD0A4B9C4200
:1012400001D1AC68CFE7094B9C4208BFEC68CAE704
:101250002146284600F01EF80028CBD04FF0FF377B
:10126000EAE700BF3C1B00085C1B00081C1B0008D1
:1012700038B5074D04460846114600222A601A4632
:10128000FFF7BAFA431C02D12B6803B1236038BDC3
:10129000A4000020324B70B51D6806460C4625B1EF
:1012A000AB6913B92846FFF701FD2E4B9C420FD1C5
:1012B0006C68A389B4F90C2019072CD4DD0611D46D
:1012C0000923336042F04003A3814FF0FF303EE03A
:1012D000254B9C4201D1AC68EBE7244B9C4208BFF4
:1012E000EC68E6E7580712D5616B41B104F144039D
:1012F000994202D03046FFF7A7FD00236363A3891C
:1013000023F02403A3810023636023692360A3895E
:1013100043F00803A38123694BB9A38903F4207325
:10132000B3F5007F03D02146304600F069F8A0896C
:10133000B4F90C2010F001030AD00023A360636904
:101340005B42A361236943B910F08000BAD170BD3C
:10135000810758BF6369A360F4E70020F7E700BF87
:10136000000000203C1B00085C1B00081C1B000840
:1013700038B5064D0023044608462B60FFF777FA80
:10138000431C02D12B6803B1236038BDA4000020A8
:1013900038B5074D04460846114600222A601A4611
:1013A000FFF78CFA431C02D12B6803B1236038BDD0
:1013B000A400002070B50E46B1F90E10002996B0B9
:1013C00014461D4608DAB6F90C3000222A601A06C7
:1013D00010D44FF480630EE06A4600F05DFB0028F5
:1013E000F1DB019A02F47042A2F500535A425A41CD
:1013F0002A60EEE740230020236016B070BD000095
:101400008B8973B59D0706460C4607D504F1470343
:10141000236023610123636102B070BD01AB6A46A2
:10142000FFF7C8FF009905463046FFF779FD48B938
:10143000B4F90C309A05EFD423F0030343F0020310
:10144000A381E3E70D4BB362A389206043F08003DF
:10145000A381009B6361019B20615BB1B4F90E1015
:10146000304600F02BFB28B1A38923F0030343F09F
:101470000103A381A0890543A581CDE7450C0008A0
:101480000148FFF7D6BC00BF980000200148FFF7D5
:10149000D1BC00BF980000209368013B002B10B422
:1014A000936008DA9469A34201DB0A2903D15DF84D
:1014B000044BFFF78BBE1368581C10601970084668
:1014C0005DF8044B7047F8B506460F461446D5182C
:1014D000AC4201D1002007E014F8011B3A46304627
:1014E000FFF7DAFF431CF3D1F8BD00002DE9F04F00
:1014F0000D469DB014469846064618B183690BB94F
:10150000FFF7D4FB894B9D421BD175686B6ED907E1
:1015100005D4AB899A0502D4A86DFFF78AFCAB8984
:101520001B0701D52B69EBB929463046FFF7B2FE00
:10153000C0B16B6EDC070ED54FF0FF301DB0BDE8BB
:10154000F08F7B4B9D4201D1B568DFE7794B9D421F
:1015500008BFF568DAE7AB899805EDD4A86DFFF709
:1015600069FCE9E70023099320238DF82930CDF8A1
:101570000C803023DFF8C0818DF82A304FF001094C
:1015800023469A4613F8012B0AB1252AF9D1BAEB62
:10159000040B0BD05B46224629463046FFF793FFEB
:1015A000013000F0AA80099A5A4409929AF8003052
:1015B000002B00F0A28000234FF0FF32CDE905237D
:1015C0000AF1010A049307938DF853301A93544695
:1015D000052214F8011B5848FEF722FE049AD8B9D8
:1015E000D10644BF20238DF85330130744BF2B236B
:1015F0008DF853309AF800302A2B15D0079A5446AC
:1016000000204FF00A0C214611F8013B303B092B1A
:101610004ED9B0B1079214E0A0EB080309FA03F326
:1016200013430493A246D2E7039B191D1B68039141
:10163000002BBBBF5B4242F0020207930793B8BF87
:10164000049223782E2B0CD163782A2B35D1039B5F
:101650001A1D1B680392002BB8BF4FF0FF330234F2
:101660000593DFF8E4A0217803225046FEF7D8FD69
:1016700040B14023A0EB0A0003FA00F0049B0343AF
:101680000134049314F8011B2C488DF8281006220D
:10169000FEF7C6FD00283FD0294B1BBB039B073339
:1016A00023F0070308330393099B3B44099367E73F
:1016B0000CFB02320C460120A5E700230134059300
:1016C00019464FF00A0C204610F8012B303A092A2F
:1016D00003D9002BC5D00591C3E70CFB01210446BB
:1016E0000123F0E703AB00932A46164B04A93046CA
:1016F000AFF300800746781CD6D16B6ED90705D4AE
:10170000AB899A0502D4A86DFFF794FBAB895B0601
:101710003FF512AF099811E703AB00932A46094B36
:1017200004A9304600F080F8E4E700BF3C1B000845
:101730005C1B00081C1B0008801B00088A1B00089B
:1017400000000000C7140008861B00082DE9F047C0
:10175000164699468A680B69DDF820809342B8BF27
:101760001346336091F8432007460C460AB1013313
:1017700033602368990642BF3368023333602568BB
:1017800015F0060506D104F1190AE36832689B1AC0
:10179000AB4226DC94F84320131E226818BF0123B5
:1017A00092062BD404F1430249463846C047013023
:1017B0001ED02368E568326803F00603042B08BFD7
:1017C000AD1AA36822690CBF25EAE575002593428E
:1017D000C4BF9B1AED1800261A34B5421AD1002056
:1017E00008E00123524649463846C047013003D13C
:1017F0004FF0FF30BDE8F0870135C6E7E1185A1C0D
:10180000302081F84300224494F8451082F84310B8
:101810000233C7E70123224649463846C047013014
:10182000E6D00136D9E700002DE9FF470F7E0C9D79
:10183000782F914680460C469A4601F1430207D81C
:10184000622F0AD8002F00F0D880582F00F0A38014
:1018500004F1420584F842703AE0A7F16303152BC6
:10186000F6D801A151F823F0C1180008D5180008D6
:1018700051180008511800085118000851180008A4
:10188000D518000851180008511800085118000810
:1018900051180008E119000805190008C3190008CB
:1018A0005118000851180008031A000851180008C0
:1018B000051900085118000851180008CB19000834
:1018C0002B681A1D1B682A6004F1420584F8423017
:1018D0000123A3E020682968060601F104030AD564
:1018E0000E682B60002E03DA2D23764284F84330F5
:1018F0005E480A2319E00E682B6010F0400F18BFF5
:1019000036B2EFE72B682068191D2960010601D562
:101910001E6802E04606FBD51E8854486F2F0CBF98
:1019200008230A23002184F843106568A560002D70
:10193000A2BF216821F0040121600EB9002D4DD015
:101940001546B6FBF3F103FB1167C75D05F8017D92
:101950003746BB420E46F4D9082B0BD12368DE076D
:1019600008D5236961689942DEBF302305F8013C40
:1019700005F1FF35521B2261CDF800A04B4603AAAA
:1019800021464046FFF7E2FE01304CD14FF0FF30D8
:1019900004B0BDE8F087354881F8457029682368B0
:1019A00051F8046B29601D0614D5DF0744BF43F0CE
:1019B000200323601EB9236823F020032360102333
:1019C000B0E7236843F0200323607823284884F895
:1019D0004530E3E7590648BFB6B2E6E71546BBE730
:1019E0002B6826686169181D286035061B6801D5BB
:1019F000196002E07006FBD51980002323611546AB
:101A0000BAE72B681A1D2A601D6862680021284603
:101A1000FEF706FC08B1401B606063682361002389
:101A200084F84330A8E723692A4649464046D04710
:101A30000130ABD023689B0713D4E068039B984226
:101A4000B8BF1846A4E70123324649464046D0476E
:101A500001309BD00135E36803995B1AAB42F2DC9D
:101A6000EBE7002504F11906F5E700BF911B00081C
:101A7000A21B000838B5074D04460846114600224F
:101A80002A601A46FEF7D6FE431C02D12B6803B12A
:101A9000236038BDA400002038B5074D002304465C
:101AA000084611462B60FEF7EEFE431C02D12B6860
:101AB00003B1236038BD00BFA400002038B5064D37
:101AC0000023044608462B60FEF7EDFE431C02D1BE
:101AD0002B6803B1236038BDA4000020F8B500BF17
:101AE000F8BC08BC9E467047F8B500BFF8BC08BCFF
:041AF0009E46704757
:101AF400496E697469616C697A6174696F6E206496
:101B04006F6E650054696D657220436F756E743A2B
:101B14002025640A0000000000000000000000000E
:101B240000000000000000000000000000000000B1
:101B340000000000000000000000000000000000A1
:101B44000000000000000000000000000000000091
:101B54000000000000000000000000000000000081
:101B64000000000000000000000000000000000071
:101B7400000000000000000004000020232D302B92
:101B84002000686C4C00656667454647003031327A
:101B940033343536373839414243444546003031D1
:101BA4003233343536373839616263646566000030
:041BB400050200081E
:041BB800E10100083F
:101BBC0004000020000000003C1B00085C1B000817
:101BCC001C1B0008000000000000000000000000CA
:101BDC0000000000000000000000000000000000F9
:101BEC0000000000000000000000000000000000E9
:101BFC0000000000000000000000000000000000D9
:101C0C0000000000000000000000000000000000C8
:041C1C0000000000C4
:0400000508000A19CC
:00000001FF
