:020000040800F2
:1000000000800020E10200083103000831030008ED
:10001000310300083103000831030008000000002C
:100020000000000000000000000000003103000894
:10003000310300080000000031030008310300080C
:1000400031030008310300083103000831030008C0
:1000500031030008310300083103000831030008B0
:1000600031030008310300083103000831030008A0
:100070003103000831030008310300083103000890
:1000800031030008000000003103000831030008BC
:100090003103000831030008310300083103000870
:1000A0003103000831030008310300083103000860
:1000B0003103000831030008310300083103000850
:1000C0003103000831030008310300083103000840
:1000D0003103000831030008310300083103000830
:1000E0003103000831030008310300083103000820
:1000F000310300083103000831030008000000004C
:100100000000000031030008000000003103000877
:10011000310300080000000031030008310300082B
:1001200031030008310300083103000831030008DF
:100130003103000800000000000000003103000847
:1001400031030008310300083103000800000000FB
:10015000000000000000000000000000000000009F
:100160000000000000000000000000003103000853
:100170003103000800000000000000000000000043
:100180000000000031030008000000000000000033
:100190000000000031030008000000000000000023
:1001A00000000000000000003103000831030008D7
:1001B000310300083103000831030008000000008B
:1001C00000000000310300080000000000000000F3
:0801D0003103000831030008AF
:1001D80010B5054C237833B9044B13B10448AFF379
:1001E80000800123237010BD0000002000000000E3
:1001F8007C03000808B5034B1BB103490348AFF360
:10020800008008BD00000000040000207C030008F6
:1002180080B400AF0B4B1B680A4A43F48033136069
:1002280000BF084B1B6803F40033002BF9D0054BC3
:100238009B6D044A43F08053936500BFBD465DF84B
:10024800047B70470010024080B483B000AF134BAA
:10025800DB6C124A43F00103D364104BDB6C0F4A8A
:1002680043F00203D3640D4BDB6C0C4A43F00403E8
:10027800D36400237B6002E07B6801337B607B688A
:10028800B3F57A7FF8DB4FF0904300221A6000BF85
:100298000C37BD465DF8047B704700BF0010024074
:1002A80080B500AFFFF7B4FFFFF7CEFF0023184675
:1002B80080BD000080B400AF064BD3F88830054AF3
:1002C80043F47003C2F8883000BFBD465DF8047B74
:1002D800704700BF00ED00E00D488546FFF7EAFFD4
:1002E8000C480D490D4A002302E0D458C450043389
:1002F800C4188C42F9D30A4A0A4C002301E013605F
:100308000432A242FBD300F011F8FFF7C9FFFEE761
:100318000080002000000020000000209C0300084E
:10032800000000201C000020FEE7000070B50D4D05
:100338000D4C641BA4100026A64209D10B4D0C4C91
:1003480000F018F8641BA4100026A64205D170BD61
:1003580055F8043B98470136EEE755F8043B9847B3
:100368000136F2E794030008940300089403000898
:1003780098030008F8B500BFF8BC08BC9E46704753
:0C038800F8B500BFF8BC08BC9E467047EA
:04039400FD0100085F
:04039800D90100087F
:04000005080002E10C
:00000001FF
