:020000040800F2
:1000000000800020D10C0008210D0008210D0008FF
:10001000210D0008210D0008210D0008000000003E
:10002000000000000000000000000000210D00089A
:10003000210D000800000000210D0008210D00081E
:10004000210D0008210D0008210D0008210D0008D8
:10005000210D0008210D0008210D0008210D0008C8
:10006000210D0008210D0008210D0008210D0008B8
:10007000210D0008210D0008210D0008210D0008A8
:10008000210D000800000000210D0008210D0008CE
:10009000210D0008210D0008210D0008210D000888
:1000A00031080008210D0008210D0008210D00086D
:1000B000210D0008D9070008210D0008210D0008B6
:1000C000210D0008210D0008210D0008210D000858
:1000D000210D0008210D0008210D0008210D000848
:1000E00071070008210D0008210D0008210D0008EE
:1000F000210D0008210D0008210D0008000000005E
:1001000000000000210D000800000000210D000883
:10011000210D000800000000210D0008210D00083D
:10012000210D0008210D0008210D0008210D0008F7
:10013000210D00080000000000000000210D000853
:10014000210D0008210D0008210D0008000000000D
:10015000000000000000000000000000000000009F
:10016000000000000000000000000000210D000859
:10017000210D000800000000000000000000000049
:1001800000000000210D0008000000000000000039
:1001900000000000210D0008000000000000000029
:1001A0000000000000000000210D0008210D0008E3
:1001B000210D0008210D0008210D0008000000009D
:1001C00000000000210D00080000000000000000F9
:0801D000210D0008210D0008BB
:1001D80010B5054C237833B9044B13B10448AFF379
:1001E80000800123237010BD64000020000000007F
:1001F8008417000808B5034B1BB103490348AFF344
:10020800008008BD00000000680000208417000876
:1002180080B400AF524B1B68514A43F0040313608B
:10022800504B1B684F4A43F48073136000BF4D4B1B
:100238001B6803F48063002BF9D04A4B494A9B683A
:100248009360484B474A9B689360464B454A9B6876
:100258009360444BDB68434A43F00203D360414B4D
:10026800DB68404A43F03003D3603E4BDB683D4ACD
:1002780043F4AA43D3603B4B3A4ADB68D360394B1B
:10028800384ADB68D360374B364ADB68D360354B76
:10029800344ADB68D360334BDB68324A43F08073FF
:1002A800D360304B2F4ADB68D3602E4BDB682D4A76
:1002B80043F08053D3602B4B1B682A4A43F080736A
:1002C800136000BF274B1B6803F00073002BF9D0A5
:1002D800244B9B68234A43F00303936000BF214BE0
:1002E8009B6803F00C03002BF9D01E4B1B6E1D4AB4
:1002F80043F0010313661B4BDB6C1A4A43F00103FE
:10030800D364184BDB6C174A43F00203D364154BD4
:10031800DB6C144A43F00403D364124B9B6D114AFF
:1003280043F0020393650F4B9B6D0E4A43F00403A1
:1003380093650C4B1B6E0B4A43F400531366094B31
:100348001B6E084A43F480331366064B1B6E054A3E
:1003580043F48053136600BFBD465DF8047B7047C5
:10036800002002400010024080B500AF4FF4005159
:10037800294800F033F903465AB2284B1A704FF453
:100388008041254800F02AF903465AB2244B1A70D6
:10039800224B93F90020224B93F900309A4210D057
:1003A8001E4B93F900301AB21E4BB3F900309A4233
:1003B80003D01D4B01221A701BE01B4BFF221A7041
:1003C80017E0164B93F900301AB2164BB3F9003008
:1003D8009A4208D0144B93F900301A46134B1B6805
:1003E8001344124A13600D4B93F900301AB20D4BA7
:1003F8001A800E4B1B68002B03DA0C4B00221A6084
:1004080006E00A4B1B68642B02DD084B64221A6065
:10041800064B1B68184680BD000400488200002077
:100428008300002080000020880000208400002035
:1004380080B400AF4FF090431B684FF0904203F038
:100448007C431360634B1B68624A03F47073136048
:10045800614B1B68604B00221A605E4B1B685D4A4B
:1004680023F0406313605B4B1B685A4A23F04053E8
:100478001360584B1B68574A23F040431360554B91
:10048800DB68544A43F08063D360524BDB68514ABF
:1004980043F08053D3604F4BDB684E4A43F08043B0
:1004A800D3604FF090431B684FF0904243F4805361
:1004B80013604FF090431B684FF0904243F4802341
:1004C8001360454B1B68444A43F4804313604FF064
:1004D80090435B684FF0904223F4805353604FF091
:1004E80090435B684FF0904223F4802353603A4B6B
:1004F8005B68394A23F4804353604FF090431B688C
:100508004FF0904243F4000313604FF090431B6890
:100518004FF0904243F0007313604FF090435B6AD2
:100528004FF0904243F4204353624FF090435B6A8C
:100538004FF0904243F420235362264B1B68254A10
:1005480043F400531360234B1B6A224A43F0A06311
:1005580013624FF090431B684FF0904243F40073CE
:1005680013604FF090431B684FF0904243F40063D0
:1005780013604FF090431B684FF0904243F40043E0
:1005880013604FF090431B6A4FF0904243F4A0234E
:1005980013624FF090431B6A4FF0904243F4A0035C
:1005A80013624FF090431B6A4FF0904243F0A04310
:1005B8001362084B1B68074A43F004031360054B9A
:1005C8005B68044A23F00403536000BFBD465DF82E
:1005D800047B7047000400480008004880B483B0DA
:1005E80000AF78600B467B807B681A697B88134074
:1005F800002B01D0012300E0002318460C37BD462C
:100608005DF8047B704780B483B000AF78600B4618
:100618007B8013467B707B78002B05D17B881B047D
:100628001A467B689A6105E07B78012B02D17A88AB
:100638007B689A6100BF0C37BD465DF8047B704744
:1006480080B483B000AF78600B467B807B685A69C2
:100658007B881340002B05D07B881B041A467B68D7
:100668009A6102E07A887B689A6100BF0C37BD46C0
:100678005DF8047B7047000080B483B000AF034688
:10068800FB7197F90730002B0BDBFB7903F01F0296
:10069800074997F907305B09012000FA02F241F88F
:1006A800232000BF0C37BD465DF8047B704700BFB0
:1006B80000E100E080B483B000AF03463960FB710D
:1006C80097F90730002B0ADB3B68DAB20C4997F937
:1006D80007301201D2B20B4483F800230AE03B68CA
:1006E800DAB20849FB7903F00F03043B1201D2B2D6
:1006F8000B441A7600BF0C37BD465DF8047B704783
:1007080000E100E000ED00E080B500AF144B5B694C
:10071800134A43F480535361124B1B68114A43F444
:10072800004313600F4BDB680E4A43F40043D36069
:1007380000212820FFF7BEFF2820FFF79DFF00219A
:100748001D20FFF7B7FF1D20FFF796FF0021182097
:10075800FFF7B0FF1820FFF78FFF00BF80BD00BF75
:10076800000001400004014080B500AF144B5B69F4
:1007780003F40043002B21D0114B4FF400425A617F
:10078800104B5B6B002B15D10F4BB3F90030002BCE
:1007980002D0012B07D00EE0012000F0C5F80A4B6B
:1007A80001221A8007E0002000F0BEF8064B002264
:1007B8001A8000E000BF054800F050FB00BF80BD74
:1007C80000040140003401408C0000209C17000800
:1007D80080B500AF104B1B6903F00103002B19D043
:1007E8000D4B6FF001021A61FFF7BEFD03461AB206
:1007F8000A4B1A80094BB3F90030184600F0C0F8CC
:1008080000F0D8F803461A46054B1A80022105481D
:10081800FFF716FF00BF80BD000400408A000020DB
:100828008E0000200004004880B400AF074B1B690D
:1008380003F00103002B03D0044B6FF001021A618F
:1008480000BFBD465DF8047B704700BF0040014013
:1008580080B483B000AF78604FF06043D3F8803E37
:1008680003F00103002B13D04FF06043D3F8003E90
:1008780003F00103002B0BD000E000BF4FF06043F2
:100888001B68002BF9D04FF060437A68D2B21A7017
:100898007B6818460C37BD465DF8047B704700003E
:1008A80080B500AFFFF7B4FCFFF7C2FDFFF72CFFE0
:1008B80000F02AF900F046F900F096F900F0E0F9A6
:1008C800002000F031F8002000F05AF8044800F049
:1008D800C5FA044B5B6A1A46034B1A60F9E700BF76
:1008E800B0170008000800409000002080B586B0CE
:1008F80000AFF860B9607A6000237B6100237B61F8
:1009080009E0BB685A1CBA601B781846FFF7A0FFBD
:100918007B6901337B617A697B689A42F1DB7B688A
:1009280018461837BD4680BD80B582B000AF034673
:10093800FB71FB79002B02D0012B0DD019E00122AD
:1009480080210E48FFF75FFE00224FF400714FF040
:100958009040FFF758FE0CE0002280210748FFF77F
:1009680052FE01224FF400714FF09040FFF74BFE0A
:1009780000BF00BF0837BD4680BD00BF0008004863
:1009880080B483B000AF0346FB80B7F90630642B10
:1009980007DCB7F90630002B03DB054AB7F9063048
:1009A800536300BF0C37BD465DF8047B704700BF3A
:1009B8000034014080B483B000AF054B5B6AFB8014
:1009C800B7F9063018460C37BD465DF8047B70470A
:1009D8000008004080B586B000AFF860B9607A6062
:1009E80000237B610AE0AFF300800146BB685A1C14
:1009F800BA60CAB21A707B6901337B617A697B6815
:100A08009A42F0DB7B6818461837BD4680BD80B433
:100A180083B000AF78604FF0FF3318460C37BD46FF
:100A28005DF8047B704780B483B000AF78603960AC
:100A38003B684FF400525A60002318460C37BD46F5
:100A48005DF8047B704780B483B000AF7860012301
:100A580018460C37BD465DF8047B704780B485B0F6
:100A680000AFF860B9607A60002318461437BD46B5
:100A78005DF8047B7047000080B586B000AF7860F1
:100A8800144A154BD31A7B617B693B61134B1B6876
:100A9800002B02D1114B124A1A60104B1A687B685E
:100AA80013443A699A4207D200F038F903460C22F7
:100AB8001A604FF0FF3309E0084B1B68FB60074BD7
:100AC8001A687B681344054A1360FB681846183790
:100AD800BD4680BD00800020000400009400002076
:100AE800A800002080B400AF064BD3F88830054A30
:100AF80043F47003C2F8883000BFBD465DF8047B3C
:100B0800704700BF00ED00E080B400AF0C4B1B68DD
:100B18000B4A43F004031360094BDB68084A43F0AF
:100B28000103D360064B54229A62054B1B68044AA2
:100B380043F00103136000BFBD465DF8047B7047B6
:100B48000004004080B400AF264B9B68254A43F060
:100B580003039360234B9B69224A43F0010393618B
:100B6800204B9B691F4A43F4807393611D4B9B691B
:100B78001C4A43F0A00393611A4B9B69194A43F43A
:100B880020439361174B1B6A164A23F00203136232
:100B9800144B1B6A134A23F008031362114B1B6A98
:100BA800104A23F0200313620E4B1B6A0D4A23F0F0
:100BB800800313620B4B00229A620A4B1B68094A96
:100BC80043F080031360074B4FF6FF72DA62054B60
:100BD8001B68044A43F00103136000BFBD465DF87B
:100BE800047B70470008004080B400AF234B9B692A
:100BF800224A43F060039361204B9B691F4A43F0EC
:100C0800080393611D4B1B681C4A43F08003136063
:100C18001A4B1B68194A23F060031360174B1B6AB1
:100C2800164A23F002031362144B1B6A134A43F05B
:100C380001031362114B1B6A104A23F00403136269
:100C48000E4B5B6C0D4A43F4004353640B4B632219
:100C5800DA620A4BA9229A62084B5B69074A43F099
:100C680001035361054B1B68044A43F001031360F9
:100C780000BFBD465DF8047B704700BF00340140EB
:100C880080B400AF0F4B1B680E4A43F00403136097
:100C98000C4BDB680B4A43F00103D360094B40F26D
:100CA800A3629A62074B4CF24F32DA62054B1B681B
:100CB800044A43F00103136000BFBD465DF8047B9E
:100CC800704700BF004001400D488546FFF70AFF06
:100CD8000C480D490D4A002302E0D458C45004338F
:100CE800C4188C42F9D30A4A0A4C002301E0136065
:100CF8000432A242FBD300F017F8FFF7D1FDFEE75C
:100D08000080002000000020640000203418000843
:100D180064000020A8000020FEE70000014B1868CE
:100D2800704700BF0000002070B50D4D0D4C641BCE
:100D3800A4100026A64209D10B4D0C4C00F01EFD54
:100D4800641BA4100026A64205D170BD55F8043BCB
:100D580098470136EEE755F8043B98470136F2E725
:100D68002C1800082C1800082C1800083018000847
:100D780002440346934200D1704703F8011BF9E788
:100D880070B50E46054618B183690BB900F048FAEC
:100D9800AB69AC6813B9284600F042FA2C4B9C4268
:100DA80020D16C68636EDB0705D4A389980502D44B
:100DB800A06D00F0D3FAA38919071DD52369DBB10B
:100DC800013EA36816F8011F013BA36039BB002B45
:100DD80038DA22460A21284600F048F8013011D0B6
:100DE8000A2511E01B4B9C4201D1AC68DAE71A4B8B
:100DF8009C4208BFEC68D5E72146284600F088F8F1
:100E08000028DDD04FF0FF35636EDA0705D4A389DB
:100E18009B0502D4A06D00F0A2FA284670BD002BF5
:100E280004DAA2699A4206DC0A2904D023685A1C0B
:100E380022601970C5E72246284600F017F80130ED
:100E4800BFD1DFE723680A255A1C22601D70DBE743
:100E5800EC1700080C180008CC170008024B0146D4
:100E68001868FFF78DBF00BF00000020F8B50E46D8
:100E78001446054618B183690BB900F0D1F9214B26
:100E88009C422BD16C68A369A360A3891A072FD54C
:100E980023696BB323692068C01A6369F6B2834279
:100EA800374604DC2146284600F026F930BBA36803
:100EB800013BA36023685A1C22601E7063690130DD
:100EC800834204D0A389DB0706D50A2E04D1214624
:100ED800284600F011F988B93846F8BD0A4B9C42FB
:100EE80001D1AC68CFE7094B9C4208BFEC68CAE760
:100EF8002146284600F00CF80028CBD04FF0FF37E9
:100F0800EAE700BFEC1700080C180008CC17000827
:100F1800324B70B51D6806460C4625B1AB6913B94E
:100F2800284600F07DF92E4B9C420FD16C68A389AE
:100F3800B4F90C2019072CD4DD0611D40923336029
:100F480042F04003A3814FF0FF303EE0254B9C4226
:100F580001D1AC68EBE7244B9C4208BFEC68E6E79C
:100F6800580712D5616B41B104F14403994202D08C
:100F7800304600F05BFA00236363A38923F024035F
:100F8800A3810023636023692360A38943F00803D6
:100F9800A38123694BB9A38903F42073B3F5007FB8
:100FA80003D02146304600F001FAA089B4F90C209C
:100FB80010F001030AD00023A36063695B42A361B8
:100FC800236943B910F08000BAD170BD810758BFBA
:100FD8006369A360F4E70020F7E700BF0000002082
:100FE800EC1700080C180008CC1700088A892DE9AE
:100FF800F041054610070C4658D44B68002B05DC19
:101008000B6C002B02DC0020BDE8F081E66A002EA4
:10101800F9D0002312F480522F682B6032D0606D13
:10102800A3895A0705D56368C01A636B0BB1236C93
:10103800C01A00230246E66A216A2846B047431CC4
:10104800A38906D129681D292CD82A4ACA40D6075F
:1010580028D500226260D9042269226004D5421C86
:1010680001D12B6803B96065616B2F600029CAD074
:1010780004F14403994202D0284600F0D7F9002031
:101088006063C1E7216A01232846B047411CC7D1E4
:101098002B68002BC4D01D2B01D0162B01D12F603B
:1010A800B1E7A38943F04003A381ADE70F69002F9F
:1010B800A9D093070E6808BF4B690F6018BF0023BB
:1010C800A6EB07088B60B8F1000F9CDD216AA66AC1
:1010D80043463A462846B047002806DCA38943F031
:1010E8004003A3814FF0FF308EE70744A8EB0008C8
:1010F800E9E700BF0100402038B50B6905460C46FA
:1011080013B90025284638BD18B183690BB900F01A
:1011180087F8144B9C421BD16C68B4F90C30002B37
:10112800EFD0626ED00704D4990502D4A06D00F008
:1011380015F928462146FFF759FF636EDA07054679
:10114800E0D4A3899B05DDD4A06D00F008F9D9E7A8
:10115800054B9C4201D1AC68DFE7044B9C4208BFB9
:10116800EC68DAE7EC1700080C180008CC17000840
:10117800002310B50446C0E90033C0E90433836096
:1011880081814366C2818361194608225C30FFF77A
:10119800EFFD054B6362054BA362054BE362054B0C
:1011A8002462236310BD00BF151600083716000817
:1011B8006F16000893160008014900F0AFB800BF89
:1011C8000111000870B568224D1E55430E4605F101
:1011D800740100F097F9044640B10021C0E90016F7
:1011E8000C30A06005F16802FFF7C2FD204670BD13
:1011F800014800F0B3B800BF99000020014800F092
:10120800AEB800BF99000020014800F0A7B800BFA1
:101218009A000020014800F0A2B800BF9A00002000
:1012280010B50446FFF7F0FFA3691BB1BDE81040F5
:10123800FFF7F0BFC4E912332365134B134A1B6849
:10124800A262A34204BF0123A361204600F020F854
:101258006060204600F01CF8A060204600F018F8F6
:101268000022E06004216068FFF782FFA068012285
:101278000921FFF77DFFE06802221221FFF778FFBE
:101288000123A361D2E700BFC8170008C1110008F5
:10129800F8B50746FFF7ACFF1E4B1E68B36913B9D4
:1012A8003046FFF7BDFF4836D6E90134013B03D588
:1012B80033680BB33668F7E7B4F90C50D5B9164B59
:1012C800E36004F15800656600F047F8FFF796FF01
:1012D800C4E90155C4E904552560A56108222946D9
:1012E80004F15C00FFF744FDC4E90D55C4E912554B
:1012F8002046F8BD6834D9E704213846FFF762FF75
:10130800044630600028D5D1FFF778FF0C233B60F6
:10131800EEE700BFC81700080100FFFF2DE9F843FA
:101328000646884600F148040027D4E90195B9F13A
:10133800010905D52468002CF7D13846BDE8F883A3
:10134800AB89012B07D9B5F90E30013303D02946F3
:101358003046C04707436835E9E77047704770472C
:1013680070B50E46B1F90E10002996B014461D4608
:1013780008DAB6F90C3000222A601A0610D44FF4A5
:1013880080630EE06A4600F0A7F90028F1DB019AB5
:1013980002F47042A2F500535A425A412A60EEE71D
:1013A80040230020236016B070BD00008B8973B500
:1013B8009D0706460C4607D504F1470323602361C1
:1013C8000123636102B070BD01AB6A46FFF7C8FF35
:1013D80000990546304600F095F848B9B4F90C3044
:1013E8009A05EFD423F0030343F00203A381E3E754
:1013F8000D4BB362A389206043F08003A381009B57
:101408006361019B20615BB1B4F90E10304600F0B6
:1014180075F928B1A38923F0030343F00103A381DD
:10142800A0890543A581CDE7C111000837B500297A
:1014380044D051F8043C0190002BA1F10404B8BF3A
:10144800E41800F07DF91E4A0198136833B9636007
:10145800146003B0BDE8304000F078B9A34208D961
:10146800256861198B4201BF19685B6849192160B9
:10147800EDE71A465B680BB1A342FAD91168551813
:10148800A5420BD1246821445418A3421160E0D12D
:101498001C685B68536021441160DAE702D90C23A9
:1014A8000360D6E7256861198B4204BF19685B6839
:1014B800636004BF491921605460CAE703B030BDB6
:1014C8009C00002070B50E4E0C463168054611B9D7
:1014D80000F08CF830602146284600F087F8431C5D
:1014E8000AD0C41C24F00304A04207D0211A2846BD
:1014F80000F07CF8013001D14FF0FF34204670BD78
:10150800A00000202DE9F041CD1C25F00305083589
:101518000C2D38BF0C25002D074601DBA94205D943
:101528000C233B6000263046BDE8F0812E4E00F0CB
:1015380007F933681C4634BB29463846FFF7C2FF13
:10154800431C04464DD134682646002E40D12368FA
:101558003146384604EB030800F048F880453AD194
:10156800216803356D1A25F0030508350C2D38BFA1
:101578000C2529463846FFF7A5FF01302BD02368F4
:101588002B4423600EE02268521B1ED40B2A16D966
:101598006119A342256018BF5960636808BF3160AC
:1015A80062514B60384604F10B0600F0CFF826F084
:1015B8000706231DF21AB6D09B1BA350B3E7626837
:1015C800A3420CBF32605A60ECE723466468B2E776
:1015D80034467668B9E70C233B60384600F0B6F825
:1015E800A1E72560DEE700BF9C00002038B5064D66
:1015F8000023044608462B60FFF73EFA431C02D13D
:101608002B6803B1236038BDA400002010B50C4638
:10161800B1F90E1000F0A0F80028ABBF636DA389E4
:101628001B1823F48053ACBF6365A38110BD2DE95B
:10163800F0411F468B89DB0505460C46164605D545
:10164800B1F90E100223002200F068F8A389B4F95A
:101658000E1023F48053A38132463B462846BDE84A
:10166800F04100F017B810B50C46B1F90E1000F0B3
:1016780055F8431CA38915BF606523F4805343F4D0
:101688008053A38118BFA38110BDB1F90E1000F0DB
:1016980013B8000038B5074D044608461146002225
:1016A8002A601A46FFF722F9431C02D12B6803B1BE
:1016B800236038BDA400002038B5064D0023044639
:1016C80008462B60FFF7A3F9431C02D12B6803B12E
:1016D800236038BDA400002038B5074D0023044618
:1016E800084611462B60FFF79EF9431C02D12B6870
:1016F80003B1236038BD00BFA400002038B5064DF3
:101708000023044608462B60FFF79DF9431C02D1CD
:101718002B6803B1236038BDA400002038B5074DFD
:1017280004460846114600222A601A46FFF796F931
:10173800431C02D12B6803B1236038BDA4000020EC
:101748000148FFF70BBE00BF980000200148FFF7D3
:1017580006BE00BF9800002038B5074D044608466D
:10176800114600222A601A46FFF734F9431C02D1B9
:101778002B6803B1236038BDA4000020F8B500BF72
:10178800F8BC08BC9E467047F8B500BFF8BC08BC5A
:041798009E467047B2
:10179C0073776974636820696E746572727570749E
:1017AC0000000000496E697469616C697A61746942
:1017BC006F6E20646F6E652E000000000400002028
:1017CC00000000000000000000000000000000000D
:1017DC0000000000000000000000000000000000FD
:1017EC0000000000000000000000000000000000ED
:1017FC0000000000000000000000000000000000DD
:10180C0000000000000000000000000000000000CC
:10181C0000000000000000000000000000000000BC
:04182C00FD010008B2
:04183000D9010008D2
:101834000400002000000000EC1700080C18000849
:10184400CC170008000000000000000000000000A9
:101854000000000000000000000000000000000084
:101864000000000000000000000000000000000074
:101874000000000000000000000000000000000064
:101884000000000000000000000000000000000054
:041894000000000050
:0400000508000CD112
:00000001FF
