:020000040800F2
:1000000000800020011F0008511F0008511F000838
:10001000511F0008511F0008511F00080000000078
:10002000000000000000000000000000511F000858
:10003000511F000800000000511F00086115000852
:10004000511F0008511F0008511F0008511F0008D0
:10005000511F0008511F0008511F0008511F0008C0
:10006000511F0008511F0008511F0008511F0008B0
:10007000511F0008511F0008511F0008511F0008A0
:10008000511F000800000000511F0008511F000808
:10009000511F0008511F0008511F0008511F000880
:1000A000D9140008511F0008511F0008511F0008F3
:1000B000511F0008A1140008511F0008511F00081B
:1000C000511F0008511F0008511F0008511F000850
:1000D000511F0008511F0008511F0008511F000840
:1000E00055140008511F0008511F0008511F000837
:1000F000511F0008511F0008511F00080000000098
:1001000000000000511F000800000000511F0008FF
:10011000511F000800000000511F0008511F000877
:10012000511F0008511F0008511F0008511F0008EF
:10013000511F00080000000000000000511F0008CF
:10014000511F0008511F0008511F00080000000047
:10015000000000000000000000000000000000009F
:10016000000000000000000000000000511F000817
:10017000511F000800000000000000000000000007
:1001800000000000511F00080000000000000000F7
:1001900000000000511F00080000000000000000E7
:1001A0000000000000000000511F0008511F00085F
:1001B000511F0008511F0008511F000800000000D7
:1001C00000000000511F00080000000000000000B7
:0801D000511F0008511F000837
:1001E00010B5054C237833B9044B13B10448AFF371
:1001F00000800123237010BD680000200000000073
:10020000444B000808B5034B1BB103490348AFF347
:10021000008008BD000000006C000020444B000876
:1002200001F0FF01102A2BDB10F0070F08D010F8A7
:10023000013B013A8B422DD010F0070F42B3F6D1AB
:10024000F0B441EA012141EA014122F007047FF0C4
:1002500000070023F0E80256083C85EA010586EA1B
:10026000010685FA47F5A3FA87F586FA47F6A5FA57
:1002700087F68EB9EED1F0BC01F0FF0102F0070263
:1002800032B110F8013B013A83EA010313B1F8D10E
:100290000020704701387047002D06BF35460338EF
:1002A000073815F0010F07D1013015F4807F02BF28
:1002B000013015F4C03F0130F0BC0138704700BF79
:1002C00081F0004102E000BF83F0004330B54FEA07
:1002D00041044FEA430594EA050F08BF90EA020F74
:1002E0001FBF54EA000C55EA020C7FEA645C7FEA07
:1002F000655C00F0E2804FEA5454D4EB5555B8BF2A
:100300006D420CDD2C4480EA020281EA030382EA9A
:10031000000083EA010180EA020281EA0303362D2C
:1003200088BF30BD11F0004F4FEA01314FF4801CFF
:100330004CEA113102D0404261EB410113F0004F11
:100340004FEA03334CEA133302D0524263EB4303C8
:1003500094EA050F00F0A780A4F10104D5F1200E66
:100360000DDB02FA0EFC22FA05F2801841F10001C1
:1003700003FA0EF2801843FA05F359410EE0A5F195
:1003800020050EF1200E012A03FA0EFC28BF4CF0C6
:10039000020C43FA05F3C01851EBE37101F000457C
:1003A00007D54FF0000EDCF1000C7EEB00006EEB89
:1003B0000101B1F5801F1BD3B1F5001F0CD3490813
:1003C0005FEA30004FEA3C0C04F101044FEA44526A
:1003D00012F5800F80F09A80BCF1004F08BF5FEAF1
:1003E000500C50F1000041EB045141EA050130BDD1
:1003F0005FEA4C0C404141EB0101013C28BFB1F5E3
:10040000801FE9D291F0000F04BF01460020B1FA2D
:1004100081F308BF2033A3F10B03B3F120020CDA00
:100420000C3208DD02F1140CC2F10C0201FA0CF0DE
:1004300021FA02F10CE002F11402D8BFC2F1200C43
:1004400001FA02F120FA0CFCDCBF41EA0C019040F9
:10045000E41AA2BF01EB0451294330BD6FEA040442
:100460001F3C1CDA0C340EDC04F11404C4F120022D
:1004700020FA04F001FA02F340EA030021FA04F33F
:1004800045EA030130BDC4F10C04C4F1200220FA96
:1004900002F001FA04F340EA0300294630BD21FAD4
:1004A00004F0294630BD94F0000F83F4801306BF9A
:1004B00081F480110134013D4EE77FEA645C18BF8E
:1004C0007FEA655C29D094EA050F08BF90EA020F25
:1004D00005D054EA000C04BF1946104630BD91EA1D
:1004E000030F1EBF0021002030BD5FEA545C05D120
:1004F0004000494128BF41F0004130BD14F580045F
:100500003CBF01F5801130BD01F0004545F0FE41D2
:1005100041F470014FF0000030BD7FEA645C1ABF07
:10052000194610467FEA655C1CBF0B46024650EA3E
:10053000013406BF52EA033591EA030F41F400216A
:1005400030BD00BF90F0000F04BF0021704730B5F0
:100550004FF4806404F132044FF000054FF00001C5
:1005600050E700BF90F0000F04BF0021704730B586
:100570004FF4806404F1320410F0004548BF40425B
:100580004FF000013EE700BF42004FEAE2014FEAB0
:1005900031014FEA02701FBF12F07F4393F07F4F8B
:1005A00081F06051704732F07F4208BF704793F08E
:1005B0007F4F04BF41F40021704730B54FF46074A1
:1005C00001F0004521F000411CE700BF50EA0102A4
:1005D00008BF704730B54FF000050AE050EA01024D
:1005E00008BF704730B511F0004502D5404261EBBD
:1005F00041014FF4806404F132045FEA915C3FF4FE
:10060000D8AE4FF003025FEADC0C18BF03325FEA9A
:10061000DC0C18BF033202EBDC02C2F1200300FA4B
:1006200003FC20FA02F001FA03FE40EA0E0021FA70
:1006300002F11444BDE600BF70B54FF0FF0C4CF45E
:10064000E06C1CEA11541DBF1CEA135594EA0C0F10
:1006500095EA0C0F00F0DEF82C4481EA030621EA4B
:100660004C5123EA4C5350EA013518BF52EA033586
:1006700041F4801143F4801338D0A0FB02CE4FF038
:100680000005E1FB02E506F00042E0FB03E54FF068
:100690000006E1FB03569CF0000F18BF4EF0010E60
:1006A000A4F1FF04B6F5007F64F5407404D25FEA5C
:1006B0004E0E6D4146EB060642EAC62141EA55510F
:1006C0004FEAC52040EA5E504FEACE2EB4F1FD0C51
:1006D00088BFBCF5E06F1ED8BEF1004F08BF5FEACF
:1006E000500E50F1000041EB045170BD06F0004681
:1006F00046EA010140EA020081EA0301B4EB5C042E
:10070000C2BFD4EB0C0541EA045170BD41F4801125
:100710004FF0000E013C00F3AB8014F1360FDEBF4A
:10072000002001F0004170BDC4F10004203C35DA26
:100730000C341BDC04F11404C4F1200500FA05F3A9
:1007400020FA04F001FA05F240EA020001F000424A
:1007500021F0004110EBD37021FA04F642EB0601C0
:100760005EEA430E08BF20EAD37070BDC4F10C04EA
:10077000C4F1200500FA04F320FA05F001FA04F2AE
:1007800040EA020001F0004110EBD37041F100019A
:100790005EEA430E08BF20EAD37070BDC4F12005A5
:1007A00000FA05F24EEA020E20FA04F301FA05F20D
:1007B00043EA020321FA04F001F0004121FA04F2B5
:1007C00020EA020000EBD3705EEA430E08BF20EA85
:1007D000D37070BD94F0000F0FD101F000464000BF
:1007E00041EB010111F4801F08BF013CF7D041EA41
:1007F000060195F0000F18BF704703F00046520045
:1008000043EB030313F4801F08BF013DF7D043EA15
:100810000603704794EA0C0F0CEA135518BF95EACB
:100820000C0F0CD050EA410618BF52EA4306D1D152
:1008300081EA030101F000414FF0000070BD50EA71
:10084000410606BF1046194652EA430619D094EAFB
:100850000C0F02D150EA013613D195EA0C0F05D1E5
:1008600052EA03361CBF104619460AD181EA030139
:1008700001F0004141F0FE4141F470014FF00000F1
:1008800070BD41F0FE4141F4780170BD70B54FF08C
:10089000FF0C4CF4E06C1CEA11541DBF1CEA13550C
:1008A00094EA0C0F95EA0C0F00F0A7F8A4EB0504EE
:1008B00081EA030E52EA03354FEA013100F08880E5
:1008C0004FEA03334FF0805545EA131343EA1263AE
:1008D0004FEA022245EA111545EA10654FEA002663
:1008E0000EF000419D4208BF964244F1FD0404F51C
:1008F000407402D25B084FEA3202B61A65EB030578
:100900005B084FEA32024FF480104FF4002CB6EB34
:10091000020E75EB030E22BFB61A754640EA0C00B4
:100920005B084FEA3202B6EB020E75EB030E22BFF4
:10093000B61A754640EA5C005B084FEA3202B6EB35
:10094000020E75EB030E22BFB61A754640EA9C00F4
:100950005B084FEA3202B6EB020E75EB030E22BFC4
:10096000B61A754640EADC0055EA060E18D04FEA82
:10097000051545EA16754FEA06164FEAC30343EA22
:1009800052734FEAC2025FEA1C1CC0D111F4801FEF
:100990000BD141EA00014FF000004FF0004CB6E7E8
:1009A00011F4801F04BF01430020B4F1FD0C88BF87
:1009B000BCF5E06F3FF6AFAEB5EB030C04BFB6EB92
:1009C000020C5FEA500C50F1000041EB045170BD85
:1009D0000EF0004E4EEA113114EB5C04C2BFD4EBB2
:1009E0000C0541EA045170BD41F480114FF0000E36
:1009F000013C90E645EA060E8DE60CEA135594EAB2
:100A00000C0F08BF95EA0C0F3FF43BAF94EA0C0FB4
:100A10000AD150EA01347FF434AF95EA0C0F7FF429
:100A200025AF104619462CE795EA0C0F06D152EA7D
:100A300003353FF4FDAE1046194622E750EA410661
:100A400018BF52EA43067FF4C5AE50EA41047FF472
:100A50000DAF52EA43057FF4EBAE12E74FEA4102D5
:100A600012F5001215D211D56FF47873B3EB625200
:100A700012D94FEAC12343F0004343EA505311F027
:100A8000004F23FA02F018BF404270474FF00000B9
:100A9000704750EA013005D111F0004008BF6FF0F7
:100AA000004070474FF00000704700BF80B500AFB6
:100AB0004FF0A0439B684FF0A04223F00053936097
:100AC0004FF0A0439B684FF0A04243F080539360E7
:100AD000012001F0FDF94FF0A043D3F8B0304FF002
:100AE000A04223F00403C2F8B030254B9B68244A8F
:100AF00043F4402393604FF0A0439B684FF0A04223
:100B000023F0804393604FF0A0439B684FF0A042D6
:100B100043F00043936000BF4FF0A0439B68002B5D
:100B2000FADB4FF0A04301221A604FF0A0439B680C
:100B30004FF0A04243F00103936000BF4FF0A04389
:100B40001B6803F00103002BF8D04FF0A043DB68D3
:100B50004FF0A04223F01803D3604FF0A0431B6B6B
:100B60004FF0A04223F00A0313634FF0A0431B6B26
:100B70004FF0A04243F08003136300BF80BD00BF6D
:100B80000003005080B400AF5F4B1B685E4A43F027
:100B9000040313605D4B1B685C4A43F4807313606D
:100BA00000BF5A4B1B6803F48063002BF9D0574BEE
:100BB000564A9B689360554B544A9B689360534BCD
:100BC000524A9B689360514BDB68504A43F00203E2
:100BD000D3604E4BDB684D4A43F03003D3604B4B40
:100BE000DB684A4A43F4AA43D360484B474ADB6870
:100BF000D360464B454ADB68D360444B434ADB68CD
:100C0000D360424B414ADB68D360404BDB683F4ACC
:100C100043F08073D3603D4B3C4ADB68D3603B4B71
:100C2000DB683A4A43F08053D360384B1B68374A3D
:100C300043F08073136000BF344B1B6803F00073F4
:100C4000002BF9D0314B9B68304A43F0030393608B
:100C500000BF2E4B9B6803F00C03002BF9D02B4BED
:100C60009B6D2A4A43F080539365284B1B6E274A9D
:100C700043F001031366254BDB6C244A43F0010368
:100C8000D364224BDB6C214A43F00203D3641F4B35
:100C9000DB6C1E4A43F00403D3641C4BDB6C1B4A21
:100CA00043F00803D364194B9B6D184A43F00203C9
:100CB0009365164B9B6D154A43F004039365134BE4
:100CC0001B6E124A43F400531366104B1B6E0F4AFF
:100CD00043F4803313660D4B9B6D0C4A43F4004381
:100CE00093650A4BDB6C094A43F40053D364074B0A
:100CF000D3F88830054A43F00053C2F8883000BF6B
:100D0000BD465DF8047B70470020024000100240A1
:100D100080B500AF01224FF400414FF0904000F049
:100D200004FB0A2001F0D4F80A4B0B4A0B490C488B
:100D300001F0FEF90A4802F0C7FD0021084802F060
:100D4000D2FD0A2001F0C4F8054801F05FF900BFA8
:100D500080BD00BF650D0008610E0008DC5400086E
:100D60008400002080B584B000AFF8607B600B4643
:100D7000FB721346BB72FB7A283B232B68D801A277
:100D800052F823F0150E0008250E00081D0E00086D
:100D9000510E0008510E0008510E0008510E0008B7
:100DA000510E0008510E0008510E0008510E0008A7
:100DB000510E0008510E0008510E0008510E000897
:100DC000510E0008510E0008510E0008510E000887
:100DD000510E0008510E0008510E0008510E000877
:100DE000510E0008510E0008510E0008510E000867
:100DF000510E0008510E0008510E0008510E000857
:100E0000510E0008510E0008510E0008310E000866
:100E10003F0E0008012001F05BF819E0012001F00D
:100E200057F815E0BB7A9BB2184601F051F80FE075
:100E3000BB7A1A460421094800F077FA08E0BB7A29
:100E40001A464FF400414FF0904000F06EFA00BF98
:100E5000012318461037BD4680BD00BF000C004876
:100E600080B586B000AFF8607B600B46FB7213461E
:100E7000BB72FB7A143B0C2B3BD801A252F823F037
:100E8000F70E0008F30E0008F30E0008B50E000878
:100E9000E70E0008ED0E0008F30E0008F30E000840
:100EA000F30E0008F30E0008F30E0008F30E00081E
:100EB000D90E00087B687B610AE07B691B781846C5
:100EC00000F0DAFD7B6901337B61BB7A013BBB72C9
:100ED000BB7A002BF1D10FE0BB7A1A4604210948F6
:100EE00000F023FA08E000F0E1FD05E000F0F6FD77
:100EF00002E0002301E000BF012318461837BD4679
:100F000080BD00BF000C004880B588B002AF00F083
:100F100063FD0346FB82B7F9162007F10C03454930
:100F2000184602F017FE00F063FD0346BB82B7F9D6
:100F3000142007F108033F49184602F00BFE00F0A9
:100F40003FFD03467B82B7F91230002B06D13B1DD3
:100F5000394A3A49184602F0FDFD05E03B1D384A82
:100F60003649184602F0F6FD00F0B0FE03463B821B
:100F7000B7F910203B462F49184602F0EBFD3148E7
:100F800001F044F8402300938023002200212D48E3
:100F900000F0DFFF2C492B4801F07AFE07F10C032B
:100FA0000E220321274801F0D1FD284B0E221E21DD
:100FB000244801F0CBFD264B1C220321214801F0DF
:100FC000C5FD07F108031C222D211E4801F0BEFDBE
:100FD00025231C2242211B4801F00AFD1D4B2A2219
:100FE0000321184801F0B2FD3B1D2A224F2115486C
:100FF00001F0ACFD184B38220321124801F0A6FD88
:101000003B46382257210F4801F0A0FDB02338227B
:101010006C210C4801F0ECFC104B3822732109487C
:1010200001F094FD074801F064F800BF1837BD4691
:1010300080BD00BF5C4B0008604B0008644B00089B
:10104000684B000884000020C44B00086C4B00086B
:10105000704B0008784B0008844B0008944B000844
:1010600080B500AF4FF40051284800F049F903461D
:101070005AB2274B9A704FF48041244800F040F94F
:1010800003465AB2224BDA70214B93F90220204BCF
:1010900093F903309A4210D01D4B93F902301AB2E3
:1010A0001B4BB3F900309A4203D0194B01221A723C
:1010B0001AE0174BFF221A7216E0154B93F9023013
:1010C0001AB2134BB3F900309A4207D0104B5B6849
:1010D0000F4A92F9082013440D4A53600C4B93F9C0
:1010E00002301AB20A4B1A80094B5B68002B03DAF4
:1010F000074B00225A6006E0054B5B68642B02DD5B
:10110000034B64225A6000BF80BD00BF000400484A
:101110001801002080B400AF034B5B681846BD4641
:101120005DF8047B704700BF1801002080B400AF59
:101130004FF090431B684FF0904203F07C431360E4
:101140006C4B1B686B4A03F4707313606A4B1B682B
:10115000694B00221A60694B1B68684B00221A60B9
:10116000644B1B68634A23F040631360614B1B6848
:10117000604A23F0405313605E4B1B685D4A23F0C6
:10118000404313605B4BDB685A4A43F08063D36093
:10119000584BDB68574A43F08053D360554BDB68AC
:1011A000544A43F08043D3604FF090431B684FF0A4
:1011B000904243F0804313604F4B1B684E4A43F408
:1011C000800313604D4B1B684C4A43F010031360BF
:1011D0004FF090431B684FF0904243F4802313601C
:1011E000454B1B68444A43F4804313604FF09043DF
:1011F0005B684FF0904223F0804353603E4B5B6846
:101200003D4A23F4800353603C4B5B683B4A23F028
:10121000100353604FF090435B684FF0904223F40B
:1012200080235360344B5B68334A23F4804353601C
:101230004FF090431B684FF0904243F4000313605B
:101240004FF090431B684FF0904243F000731360DF
:101250004FF090435B6A4FF0904243F42043536257
:101260004FF090435B6A4FF0904243F42023536267
:10127000204B1B681F4A43F4005313601D4B1B6A2D
:101280001C4A43F0A06313621B4B1B681A4A43F4C9
:1012900000131360184B1B68174A43F00073136068
:1012A000154B5B6A144A43F4C0635362124B5B6A8A
:1012B000114A43F4C02353624FF090431B684FF030
:1012C000904243F00C0313604FF090431B684FF0C3
:1012D000904243F4806313604FF090435B684FF09B
:1012E000904223F48063536000BFBD465DF8047BE9
:1012F000704700BF0004004800080048000C004888
:1013000080B483B000AF78600B467B807B681A693D
:101310007B881340002B01D0012300E000231846F6
:101320000C37BD465DF8047B704780B483B000AFD6
:1013300078600B467B8013467B707B78002B05D151
:101340007B881B041A467B689A6105E07B78012B39
:1013500002D17A887B689A6100BF0C37BD465DF880
:10136000047B704780B483B000AF0346FB7197F9EC
:101370000730002B0BDBFB7903F01F02074997F9BD
:1013800007305B09012000FA02F241F8232000BF78
:101390000C37BD465DF8047B704700BF00E100E0FC
:1013A00080B483B000AF03463960FB7197F9073012
:1013B000002B0ADB3B68DAB20C4997F907301201BF
:1013C000D2B20B4483F800230AE03B68DAB2084942
:1013D000FB7903F00F03043B1201D2B20B441A76DF
:1013E00000BF0C37BD465DF8047B704700E100E0AC
:1013F00000ED00E080B500AF144B5B69134A43F485
:1014000080535361124B1B68114A43F4004313602D
:101410000F4BDB680E4A43F40043D36000212820C1
:10142000FFF7BEFF2820FFF79DFF00211D20FFF7DB
:10143000B7FF1D20FFF796FF00211820FFF7B0FF30
:101440001820FFF78FFF00BF80BD00BF00000140E4
:101450000004014080B500AF0F4B5B6903F400430B
:10146000002B13D00C4B4FF400425A6100F0A8FA45
:101470000346002B02D0012B04D008E0012000F02D
:101480005BF904E0002000F057F900E000BF0348DA
:1014900002F058FB00BF80BD00040140984B0008DB
:1014A00080B500AF0B4B1B6903F00103002B0ED07E
:1014B000084B6FF001021A61FFF7D2FDFFF72AFE19
:1014C00003461BB2184600F071F900F08DF900BF19
:1014D00080BD00BF0004004080B400AF1B4B1B69FF
:1014E00003F00103002B2BD0184B6FF001021A619F
:1014F000174B93F90030DBB20133DBB25AB2144B15
:101500001A70134B93F90030002B05DD104B0022AD
:101510001A70104B01221A700F4B93F90030DBB296
:101520000133DBB25AB20C4B1A700B4B93F90030FB
:10153000132B05DD084B00221A70084B01221A708C
:1015400000BFBD465DF8047B704700BF004001400E
:101550002401002026010020250100202701002071
:1015600080B400AF054B1B889BB201339AB2034B8A
:101570001A8000BFBD465DF8047B7047AE010020B5
:1015800080B483B000AF03463960FB7197F9073030
:10159000002B0ADB3B68DAB20C4997F907301201DD
:1015A000D2B20B4483F800230AE03B68DAB2084960
:1015B000FB7903F00F03043B1201D2B20B441A76FD
:1015C00000BF0C37BD465DF8047B704700E100E0CA
:1015D00000ED00E080B582B000AF78607B68013B31
:1015E000B3F1807F01D301230FE00A4A7B68013BFE
:1015F00053600F214FF0FF30FFF7C2FF054B002271
:101600009A60044B07221A60002318460837BD462B
:1016100080BD00BF10E000E080B483B000AF786010
:101620004FF06043D3F8803E03F00103002B13D04A
:101630004FF06043D3F8003E03F00103002B0BD0C2
:1016400000E000BF4FF060431B68002BF9D04FF063
:1016500060437A68D2B21A707B6818460C37BD4670
:101660005DF8047B7047000080B500AFFFF78AFA91
:101670001D4B1B681D4AA2FB03239B091846FFF75D
:10168000A9FFFFF753FDFFF7B5FE00F02BFB00F0BD
:1016900051FB00F0A1FB00F0EBFBFFF707FA00F0B5
:1016A000B3F9002000F048F8002000F07FF8FFF7C1
:1016B0002FFB00F0CBFA0E4802F044FA0D4B1B78DA
:1016C0005BB2012B04D10B4B00221A70FFF71CFCFC
:1016D000094B1B785BB2012BF0D1074B00221A702B
:1016E00000F0B4FAEAE700BF00000020D34D62101A
:1016F000AC4B0008260100202701002080B586B0F1
:1017000000AFF860B9607A6000237B6100237B61E1
:1017100009E0BB685A1CBA601B781846FFF77CFFCB
:101720007B6901337B617A697B689A42F1DB7B6874
:1017300018461837BD4680BD80B582B000AF03465D
:10174000FB71174B5B6B002B25D1FB79002B02D073
:10175000012B10D01FE0012280211248FFF7E5FD88
:1017600000224FF400714FF09040FFF7DEFD0E4B6A
:1017700000225A800FE0002280210A48FFF7D5FDA1
:1017800001224FF400714FF09040FFF7CEFD064B61
:1017900001225A8000BF00BF0837BD4680BD00BF90
:1017A00000340140000800482801002080B483B0C4
:1017B00000AF0346FB80B7F90630642B0ADCB7F9AB
:1017C0000630002B06DB064AB7F906305363054A9C
:1017D000FB88138000BF0C37BD465DF8047B704763
:1017E000003401402801002080B500AF364B5B6A11
:1017F0001A46364B1A60344B1B681BB203F01003B9
:101800001AB2324B9A81314B1A68304B5B689A425C
:101810000AD12F4B00229A8000F082F803461A4624
:101820002B4BA3F86A204DE0284BB3F90C30002B6A
:101830001AD1264B1A68254B5B689A420CDA234B67
:101840001B681946204BDB6A204A52689B1A0B44DE
:101850001A461E4B9A6021E01C4B1A681B4B5B68B2
:10186000D31A1A4A936019E0184B1A68174B5B6831
:101870009A420CDD154B5B681946134BDB6A134A21
:1018800012689B1A0B441A46104B9A6006E00F4BE5
:101890005A680E4B1B68D31A0C4A93600B4B9B681B
:1018A000184600F019F803461A46094B9A8000F0D2
:1018B00037F803461A46064BA3F86A20034B1B6809
:1018C000024A536080BD00BF000800409401002020
:1018D000280100200000000080B584B000AF7860CF
:1018E0007A6813461B019B1A9B001846FEF73AFEC6
:1018F00009A3D3E90023FEF7C9FF02460B461046B1
:101900001946FFF7ABF80346FB81B7F90E301846CE
:101910001037BD4680BD00BFA6272CF180324B405A
:1019200080B483B000AF244B93F900301846234BAA
:10193000B3F90410214A430013440A46DA801E4BCF
:1019400093F90030DBB20133DBB25AB21A4B1A7092
:101950003222194B93F900309A4202DC164B0022D6
:101960001A700023FB8000237B7111E097F905308A
:10197000124A5B001344B3F906309AB2FB88134451
:101980009BB2FB8097F90530DBB20133DBB27B7190
:10199000322297F905309342E8DBB7F9063032225C
:1019A00093FBF2F37B80B7F9023018460C37BD4643
:1019B0005DF8047B704700BFA401002028010020CF
:1019C00080B400AF034BB3F902301846BD465DF852
:1019D000047B70472801002080B400AF034BB3F9AB
:1019E0006A301846BD465DF8047B70472801002028
:1019F00080B400AF034BB3F900301846BD465DF824
:101A0000047B70472801002080B500AF184B1B688D
:101A1000174A43F400731360154B1B68144A43F4D0
:101A200080731360124B1B68114A43F02803136044
:101A30000F4B1B680E4A43F0040313600C4B1B68EA
:101A40000B4A23F002031360094B1B68084A23F07A
:101A500001031360064B5B68054A43F4E06353607F
:101A600001224FF400610348FFF75FFC00BF80BD17
:101A7000003C00400008004880B582B000AF03463B
:101A8000FB71084AFB79137000BF074B9B6803F09A
:101A90000203002BF9D0022000F01AFA00BF083729
:101AA000BD4680BD0C3C0040003C004080B500AF0E
:101AB00000224FF400610748FFF737FC022000F0D6
:101AC00007FA054B1B68044A43F04003136000BF4C
:101AD00080BD00BF00080048003C004080B500AF5A
:101AE00000BF0B4B9B6803F08003002BF9D1012250
:101AF0004FF400610748FFF718FC022000F0E8F9F6
:101B0000034B1B68024A23F04003136000BF80BDF3
:101B1000003C00400008004880B586B000AFF86087
:101B2000B9607A6000237B610AE0AFF30080014670
:101B3000BB685A1CBA60CAB21A707B6901337B61F8
:101B40007A697B689A42F0DB7B6818461837BD4695
:101B500080BD80B483B000AF78604FF0FF3318468B
:101B60000C37BD465DF8047B704780B483B000AF8E
:101B7000786039603B684FF400525A600023184681
:101B80000C37BD465DF8047B704780B483B000AF6E
:101B90007860012318460C37BD465DF8047B70471A
:101BA00080B485B000AFF860B9607A600023184651
:101BB0001437BD465DF8047B7047000080B586B0E1
:101BC00000AF7860144A154BD31A7B617B693B6187
:101BD000134B1B68002B02D1114B124A1A60104B99
:101BE0001A687B6813443A699A4207D201F00AFFE7
:101BF00003460C221A604FF0FF3309E0084B1B68C4
:101C0000FB60074B1A687B681344054A1360FB6846
:101C100018461837BD4680BD008000200004000033
:101C2000A8010020C005002080B400AF064BD3F807
:101C30008830054A43F47003C2F8883000BFBD46BF
:101C40005DF8047B704700BF00ED00E080B485B014
:101C500000AF4FF0A0439B684FF0A04243F0040355
:101C6000936000BF4FF0A0431B6803F00403002BF8
:101C7000F8D04FF0A0431B6CBB60BB6807EE903AF6
:101C8000F8EE677A9FED0E7A67EE877AC7ED037AF2
:101C9000D7ED037A9FED0B7A37EEC77AF2EE046A3E
:101CA000C7EE267AFDEEE77AC7ED017A3B795AB2A4
:101CB000054B1A7000BF1437BD465DF8047B7047B2
:101CC00000204B3F0000FA43AC01002080B400AF7D
:101CD000034B93F900301846BD465DF8047B70470E
:101CE000AC01002080B400AF114B1B68104A43F0D8
:101CF000040313600E4B1B680D4A43F0800313600E
:101D00000B4BDB680A4A43F00103D360084B5422B3
:101D10009A62074B4FF6FF72DA62054B1B68044A62
:101D200043F00103136000BFBD465DF8047B7047BC
:101D30000004004080B400AF264B9B68254A43F066
:101D400003039360234B9B69224A43F00103936191
:101D5000204B9B691F4A43F4807393611D4B9B6921
:101D60001C4A43F0A00393611A4B9B69194A43F440
:101D700020439361174B1B6A164A23F00203136238
:101D8000144B1B6A134A23F008031362114B1B6A9E
:101D9000104A23F0200313620E4B1B6A0D4A23F0F6
:101DA000800313620B4B00229A620A4B1B68094A9C
:101DB00043F080031360074B4FF6FF72DA62054B66
:101DC0001B68044A43F00103136000BFBD465DF881
:101DD000047B70470008004080B400AF234B9B6930
:101DE000224A43F060039361204B9B691F4A43F0F2
:101DF000080393611D4B1B681C4A43F0800313606A
:101E00001A4B1B68194A23F060031360174B1B6AB7
:101E1000164A23F002031362144B1B6A134A43F061
:101E200001031362114B1B6A104A23F0040313626F
:101E30000E4B5B6C0D4A43F4004353640B4B63221F
:101E4000DA620A4BA9229A62084B5B69074A43F09F
:101E500001035361054B1B68044A43F001031360FF
:101E600000BFBD465DF8047B704700BF00340140F1
:101E700080B400AF154B1B68144A43F00403136091
:101E8000124B1B68114A43F0800313600F4BDB6851
:101E90000E4A43F00103D3600C4B40F2A3629A62F6
:101EA0000A4B4CF24F32DA62084B1B68074A43F088
:101EB00080031360054B1B68044A43F00103136061
:101EC00000BFBD465DF8047B704700BF0040014085
:101ED00080B483B000AF0346FB80084B00221A8019
:101EE00000BF064B1B889BB2FA889A42F9D800BF04
:101EF00000BF0C37BD465DF8047B7047AE01002083
:101F00000D488546FFF790FE0C480D490D4A002309
:101F100002E0D458C4500433C4188C42F9D30A4A9E
:101F20000A4C002301E013600432A242FBD301F00B
:101F30006FFDFFF799FBFEE7008000200000002006
:101F400068000020F855000868000020C005002047
:101F5000FEE780B588B002AFF860084611461A4621
:101F600003467B810B463B811346FB807B89FB82CA
:101F70007A89FB88134498B23A893B8C13449BB20C
:101F80003A89798900930346F86800F0C8FF034650
:101F9000002B37D0FB883A89798900200090F868B7
:101FA00000F0FFFE3B8C012B2DD93B8C023B3B8488
:101FB0003B8901333B813B8C002B1AD03B8C3A8907
:101FC000798901200090F86800F0EBFE7A89FB889F
:101FD00013447B817B89013B7B813B8C3A897989E6
:101FE00001200090F86800F0DCFE3A893B8C134435
:101FF0003B81FB883A89F98A00200090F86800F05C
:10200000D0FE00E000BF1837BD4680BD80B584B06B
:1020100000AF78607B681B681B7CFB607B6893F873
:1020200038301A46FB6802FB03F3FB60FB68DB00F9
:10203000FB607B685B6BFA680021184601F00CFDC1
:1020400000BF1037BD4680BD80B586B002AF786056
:102050000B46FB701346BB707B681B681B7CFB73D5
:10206000FB78BB817B685B6BBB60FB7B9BB2BA89F7
:1020700012FB03F3BB81BB89DB00BB81BB89BA6860
:102080001344BB60F97BBA78BB6800930B46002110
:10209000786801F0E8FB00BF1037BD4680BD80B511
:1020A00084B000AF78600023FB737B6893F838300E
:1020B0007B737B6893F83930BB737B681B685B7CF0
:1020C0003B73BA7BFB7B19467868FFF7BDFFFB7B50
:1020D0000133FB73BB7B0133BB73FA7B7B7B9A427F
:1020E00003D2BA7B3B7B9A42EBD300BF1037BD468D
:1020F00080BD80B582B000AF78607868FFF7CFFF11
:10210000786801F001FC00BF0837BD4680BD0000C3
:1021100080B483B000AF78607B6808221A70034BEC
:1021200018460C37BD465DF8047B7047B0010020AF
:1021300080B588B002AFF860B9607A603B603B68F8
:1021400000937B680B4A0C49F86801F03DFC07F1ED
:1021500013031846FFF7DCFF7861FA7CBB68009335
:10216000064B7969F86800F0C4FF00BF1837BD4618
:1021700080BD00BF8935000861370008752F000851
:1021800080B483B000AF78600B46FB70FB787A6850
:1021900013447B607B681B7818460C37BD465DF89E
:1021A000047B704780B485B000AF78600B46FB704D
:1021B000FB787A6813447B607B681B78FB817B68C3
:1021C00001337B60FB891B02FB817B681B789AB221
:1021D000FB891344FB81FB8918461437BD465DF823
:1021E000047B704780B582B000AF78603960002111
:1021F0003868FFF7C5FF03461A467B681A7001214D
:102200003868FFF7BDFF03461A467B685A70022103
:102210003868FFF7B5FF03461A467B689A700321BA
:102220003868FFF7ADFF03461A467B68DA70042171
:102230003868FFF7A5FF03461A467B681A71052127
:102240003868FFF79DFF03461A467B685A710621DE
:102250003868FFF795FF03461A467B689A71072195
:102260003868FFF78DFF03461A467B68DA7108214C
:102270003868FFF785FF03461A467B681A72092102
:102280003868FFF77DFF03465AB27B685A720A210D
:102290003868FFF775FF03465AB27B689A720B21C4
:1022A0003868FFF76DFF03465AB27B68DA720C217B
:1022B0003868FFF765FF03465AB27B681A730D2131
:1022C0003868FFF75DFF03465AB27B685A730E21E8
:1022D0003868FFF755FF03465AB27B689A730F219F
:1022E0003868FFF74DFF03465AB27B68DA73102156
:1022F0003868FFF745FF03465AB27B681A7411210C
:102300003868FFF74FFF03461A467B685A8213214D
:102310003868FFF747FF03461A467B689A82152103
:102320003868FFF73FFF03461A467B68DA8200BF32
:102330000837BD4680BD80B485B000AF78600B46DD
:10234000FB707B681B7B7B737B681B681B78FB7354
:10235000FA7B7B7B42FA03F3FB737B7BBB73BA7B19
:10236000FB781344BB73BB7B072B1AD908233B7341
:102370003A7B7B7BD31A3B737B681B685A1C7B6858
:102380001A607B681B681B781A463B7B02FA03F3D2
:102390005AB297F90F3013435BB2FB73BB7B083B18
:1023A000BB73FB784FF0FF3202FA03F3DBB2DB437F
:1023B000DAB2FB7B1340FB737B68BA7B1A73FB7B3F
:1023C00018461437BD465DF8047B704780B584B06D
:1023D00000AF78600B46FB70FB7819467868FFF712
:1023E000AAFF0346FB730123BB73FB78013BFB7021
:1023F00097F90E20FB7802FA03F3BB73FA7BBB7BE1
:10240000D31ADBB2FB7397F90F3018461037BD466D
:1024100080BD90B482B000AF0446084611461A460B
:102420002346FB8003467B710B463B711346FB70D2
:10243000FB78022B14D0022B19DC002B02D0012BCD
:1024400007D014E097F904309AB2FB881344FB805C
:1024500014E097F905309AB2FB881344FB800DE035
:1024600097F904309BB2FA88D31AFB8006E097F9FB
:1024700005309BB2FA88D31AFB8000BFFB88184650
:102480000837BD4690BC704790B482B000AF044698
:10249000084611461A462346FB8003467B710B46CD
:1024A0003B711346FB70FB78022B14D0022B19DC16
:1024B000002B02D0012B07D014E097F905309AB217
:1024C000FB881344FB8014E097F904309BB2FA8830
:1024D000D31AFB800DE097F905309BB2FA88D31A26
:1024E000FB8006E097F904309AB2FB881344FB8026
:1024F00000BFFB8818460837BD4690BC704780B5C2
:1025000088B002AF78600B46FB701346BB707B68E7
:1025100060333B61FB78FB753B6993F908307B7551
:102520003B6993F909303B753B6993F90A30FB73BA
:10253000FA7B7B7DD31AFB73FB7BBB75FA7DFB7B40
:102540009A4201D2FB7DBB753B699B88BB813B698D
:10255000DB887B8197F9151097F914203B691B7C68
:10256000B889FFF791FF0346BB8197F9151097F9DA
:1025700014203B691B7C7889FFF74BFF03467B8166
:10258000BB78002B10D03B699A7B7B6883F8922044
:10259000BB7D98B23B691B7C7A89B989009303465D
:1025A000786800F0FEFB13E03B695B7B002B0FD1EA
:1025B0003B69DA7B7B6883F89220BB7D98B23B69EC
:1025C0001B7C7A89B98900930346786800F0E9FB9F
:1025D000FA7DFB7B9A4209D3FA7DFB7BD31AFB750C
:1025E00000237B753B7D01333B759DE700BF7A7D02
:1025F000FB7D13447B7597F915203B691A7297F997
:1026000014203B695A7200BF1837BD4680BD80B5A3
:1026100084B000AF786039607B686033FB60FB6832
:102620003A681A60FB6800221A737B6893F8783066
:102630001946F868FFF77FFE03465AB2FB689A72A4
:102640007B6893F879301946F868FFF774FE034603
:102650005AB2FB68DA727B6893F89220FB689A732F
:10266000FB689B7B002B0CBF01230023DBB21A46C7
:10267000FB68DA7300BF1037BD4680BD80B58AB0F5
:1026800002AF786039607B6860337B613968786855
:10269000FFF7BDFF7B6893F86B30FB747B6893F8A2
:1026A0007A3019467869FFF791FE0346BB747B6860
:1026B00093F87B3019467869FFF788FE03467B74F0
:1026C0007B6893F87C3019467869FFF77FFE0346F4
:1026D0003B747B6993F90A30002B40F3D7807B6908
:1026E0009888FA7C7B7C1344DBB25B42DBB25AB243
:1026F0007B691B7C97F91210FFF7C6FE03461A464A
:102700007B699A807B69D888FA7C7B7C1344DBB236
:102710005B42DBB25AB27B691B7C97F91210FFF760
:1027200078FE03461A467B69DA807B699B88FB83C7
:102730007B69DB887B83FB8BBB837B8B3B837B69E8
:102740001B7C032B5AD801A252F823F05D27000806
:1027500079270008A1270008D52700087B6993F98D
:102760000A309AB2BB8B1344BB8397F913309AB2E9
:102770003B8B13443B8341E097F913309BB2FA8BB8
:10278000D31AFB83FB8B0133FB83BB8B0133BB83EE
:102790007B6993F90A309AB23B8B13443B832DE05B
:1027A0007B6993F90A309BB2FA8BD31AFB83FB8BBC
:1027B0000133FB83BB8B0133BB8397F913309BB28F
:1027C0007A8BD31A7B837B8B01337B833B8B0133E7
:1027D0003B8313E097F913309AB2BB8B1344BB834E
:1027E0007B6993F90A309BB27A8BD31A7B837B8BFC
:1027F00001337B833B8B01333B8300BFB88B7A8BE8
:10280000F98B3B8B00930346786800F088FB034606
:10281000002B02D197F910303AE07B6900221A723E
:102820007B6900225A727B6893F876301946786982
:10283000FFF781FD0346FB737B6893F877301946F9
:102840007869FFF778FD0346BB73FB7B00221946CE
:102850007868FFF754FEBB7B012219467868FFF7C2
:102860004EFE01217869FFF766FD0346002BECD18F
:102870007B6993F9093097F913209A4200DDD2E77A
:1028800000BF7B699A7B7B6883F8922097F91030B0
:1028900018462037BD4680BD80B586B000AF786051
:1028A0000B467B807B689B6D7B617B6917337B610B
:1028B0007B88FF2B2AD87B88602B07D97B68B3F8ED
:1028C00088301A467B6913447B6109E07B88402B82
:1028D00006D97B68B3F886301A467B6913447B615E
:1028E0007B6901331B78002B4ED07B691B789BB230
:1028F0007A889A4202D17B69023349E07B690133CD
:102900001B781A467B6913447B61E9E77B68B3F85F
:102910008A301A467B6913447B617B693B610021E5
:102920003869FFF73FFC03461A467B6913447B6115
:1029300002213869FFF736FC0346FB813B6904330B
:102940003B61FA897B889A42E9D37B691B78FB81DA
:10295000FB891B02FB817B6901331B789AB2FB89DF
:102960001343FB81FB89002B10D0FA897B889A42A4
:1029700002D17B6903330BE07B6902331B781A4673
:102980007B6913447B61E0E700BF00E000BF0023E8
:1029900018461837BD4680BD80B586B000AFF860D8
:1029A000084611461A4603467B810B463B81134677
:1029B000FB800023FB82FB687A89A3F86420FB6814
:1029C0003A89A3F86620FB881946F868FFF764FF88
:1029D00038613B69002B05D03969F868FFF74EFE76
:1029E0000346FB82FB8A18461837BD4680BD0000AF
:1029F00080B584B000AFF860084611461A46034619
:102A00007B810B463B811346FB80FB6893F870305B
:102A1000032B33D801A252F823F000BF2D2A00085F
:102A2000412A0008552A0008692A0008FB68DB6D66
:102A3000F868984703461A463B8913443B811DE0DA
:102A4000FB68DB6DF868984703461A467B899B1A3A
:102A50007B8113E0FB68DB6DF868984703461A46F4
:102A60003B899B1A3B8109E0FB68DB6DF86898475E
:102A700003461A467B8913447B8100BFFB883A8951
:102A80007989F868FFF788FF034618461037BD4676
:102A900080BD00BF80B586B000AFF8607B600B469C
:102AA0007B8113463B81F86800F06AFC0023FB82BF
:102AB000FB685B687A6812781146F86898470346A5
:102AC000BB82BB8A4FF6FF72934238D07B680133DA
:102AD0007B60BB8A4FF6FE729342E9D0BB8A3A898B
:102AE0007989F868FFF784FF03467B82FB6893F8D7
:102AF0007030032B1ED801A252F823F00D2B0008D2
:102B0000172B0008212B00082B2B00087A897B8AC1
:102B100013447B810EE03A897B8A13443B8109E0B0
:102B20007A897B8AD31A7B8104E03A897B8AD31A1B
:102B30003B8100BFFA8A7B8A1344FB82B8E700BF5F
:102B4000FB8A18461837BD4680BD00BF80B584B0EB
:102B500000AFF8607B600B467B8113463B81FB68CE
:102B6000064A5A603A8979897B68F868FFF792FFCC
:102B7000034618461037BD4680BD00BF9D33000890
:102B800080B483B000AF78607B689B6D002B5DD014
:102B90007B6893F981207B6883F88E207B6893F9AA
:102BA00082207B6883F88F207B6893F88D30002B20
:102BB0004DD07B6893F88D30012B1CD17B6893F945
:102BC0008E207B6893F983309A4205DA7B6893F90B
:102BD00083207B6883F88E207B6893F98F207B6845
:102BE00093F984309A4232DD7B6893F984207B68C4
:102BF00083F88F202BE07B6893F98E301A467B6830
:102C000093F97E3019467B6893F980300B449A42E1
:102C10000DDA7B6893F97E30DAB27B6893F9803005
:102C2000DBB21344DBB25AB27B6883F88E207B6838
:102C300093F98F207B6893F980309A4207DD7B6897
:102C400093F980207B6883F88F2000E000BF0C3769
:102C5000BD465DF8047B704780B483B000AF7860F8
:102C6000002318460C37BD465DF8047B7047000012
:102C700080B483B000AF78607B68044ADA6500BF37
:102C80000C37BD465DF8047B704700BF592C000827
:102C900080B582B000AF786039607B689B6D3A6820
:102CA0009A420BD07B683A689A657B6874333968BE
:102CB0001846FFF797FA7868FFF762FF00BF0837FA
:102CC000BD4680BD80B487B000AFF860B9601146E2
:102CD0001A460B46FB801346BB80FB681B88FB82B1
:102CE000FB8ABB82BB681A88BB8A1344BB82FA8A00
:102CF000BB8A9A420BD9FA8ABB889A4205D2BB8812
:102D0000BB82BB8A013BBB8201E0FB88FB82FA8A63
:102D1000BB889A4201D300231CE0BA8AFB889A42FE
:102D200001D8002316E0FA8AFB889A4201D2FB8878
:102D3000FB82BA8ABB889A4201D9BB88BB82FB68F6
:102D4000FA8A1A80BA8AFB8AD31ABB82BB68BA8A0B
:102D50001A80012318461C37BD465DF8047B704776
:102D600090B587B002AFF860084611461A46034690
:102D70007B810B463B811346FB80FB68DB8F3A89E6
:102D8000D31A3B81FB68DC6AF8883A89798997F81D
:102D9000203000930346F868A04700BF1437BD46B3
:102DA00090BD90B587B002AFF860084611461A464C
:102DB00003467B810B463B811346FB80FB6893F8FF
:102DC0008C30002B75D0FB88002B72D0FB88012B38
:102DD0001AD997F82030022B09D17A89FB88D31AA7
:102DE0009BB27B817B8901339BB27B810CE097F89E
:102DF0002030032B08D13A89FB88D31A9BB23B8140
:102E00003B8901339BB23B8197F8203003F00103EB
:102E100087F8203097F82030002B1AD1FB68B3F8E0
:102E20004C203B899A423BD8FB68B3F84E203B8943
:102E30009A4237D9FB68B3F84820FB68B3F84A30A8
:102E4000B91D07F10A00FFF73DFF0346002B1AD119
:102E50002FE0FB68B3F848207B899A4224D8FB68AE
:102E6000B3F84A207B899A4220D9FB68B3F84C20FA
:102E7000FB68B3F84E30B91D07F10800FFF722FFD9
:102E80000346002B14D0FB681B6B9C6879893A8938
:102E9000F88897F8203000930346F868A04708E0C8
:102EA00000BF06E000BF04E000BF02E000BF00E09A
:102EB00000BF1437BD4690BD90B482B000AF044649
:102EC000084611461A462346FB800346BB800B4644
:102ED0007B8013463B807A88BB889A420DD23A8821
:102EE000FB889A4201D9012314E07A883B889A42F0
:102EF00001D901230EE000230CE03A88FB889A42B6
:102F000007D97A883B889A4201D9012302E000233D
:102F100000E0002318460837BD4690BC704780B5D6
:102F200084B000AFF860084611461A4603467B811C
:102F30000B463B811346FB80FB68B3F84C00FB68F3
:102F4000B3F84E103B8B3A89FFF7B6FF0346002BD0
:102F500001D100230AE0FB68B3F84800FB68B3F82E
:102F60004A10FB887A89FFF7A7FF034618461037F7
:102F7000BD4680BD80B489B000AFF86008461146F8
:102F80001A4603467B810B463B811346FB803B89F7
:102F9000FB76FB7E03F00703FB7601233B763A7E4C
:102FA000FB7E02FA03F33B760023BB7600237B769D
:102FB000FB6893F89230012B01D83B7EBB76FB680F
:102FC00093F89230012B01D03B7E7B763B89FB82CC
:102FD000FB8A23F00703FB82FB681B681B7C9BB208
:102FE000FA8A12FB03F3FB82FB685B6BFB61FB8AD3
:102FF000FA691344FB617B89FA691344FB6197F812
:103000002830002B17D1FB691A78BB7E1343DAB244
:10301000FB691A70FB691A787B7E5340DAB2FB6950
:103020001A70FB690133FB61FB88013BFB80FB8865
:10303000002BE8D138E0FB691A78BB7E1343DAB283
:10304000FB691A70FB691A787B7E5340DAB2FB6920
:103050001A70FB7E0133FB76FB7E03F00703FB76E1
:10306000FB88013BFB80FB7E002B14D1FB685B8F50
:103070001A46FB691344FB61FB6893F89230012BFD
:1030800001D80123BB76FB6893F89230012B08D05E
:1030900001237B7605E0BB7E5B00BB767B7E5B001D
:1030A0007B76FB88002BC6D100BF2437BD465DF878
:1030B000047B704780B582B000AF78607B680022E7
:1030C000A3F850207B680022A3F854207B684FF6B9
:1030D000FF72A3F852207B684FF6FF72A3F85620C8
:1030E0007B681B6B5B687868984700BF0837BD46F4
:1030F00080BD80B584B000AFF860B9603B60134616
:10310000FB71FB6800229A65FB683A68DA62FB682B
:10311000BA685A63FB68FA7983F83820FB680022A2
:1031200083F83920FB68002283F86D20FB680022B9
:1031300083F89120FB68002283F88D20FB68012230
:1031400083F89220FB68012283F89320FB68BA6918
:103150001A63FB681B6B1B68F8689847F868FFF7F1
:10316000A9FFF868FFF784FDFB68002283F8702050
:1031700000BF1037BD4680BD80B485B000AF786019
:103180007B681B68BB607B6893F83830FB81FB89E8
:10319000DB00FB817B68FA899A87BB681B7CFB811B
:1031A000FB89DB00FB817B68FA895A877B6893F88F
:1031B0003930FB81FB89DB00FB817B68FA89DA8788
:1031C0007B6893F83830FB81FB897A6892F8392064
:1031D0001344BA68527C934208DDBB685B7C9AB2A8
:1031E0007B6893F839309BB2D31AFB81FB89DB00F3
:1031F000FB817B68DA8F7B68A3F840207B68B3F89B
:1032000040207B68A3F842207B68B3F84220FB890A
:1032100013449AB27B68A3F84220BB689A8A7B6801
:10322000A3F84420BB68DA8A7B68A3F8462000BF75
:103230001437BD465DF8047B704780B584B002AF9B
:1032400078607B68B3F850107B68B3F854207B68D3
:10325000B3F852007B68B3F85630009303467868A1
:10326000FFF75DFE0346002B04D17B68002283F844
:103270008C203BE07B68012283F88C207B68B3F8CC
:1032800048207B68B3F850309A4205D27B68B3F887
:1032900050207B68A3F848207B68B3F84A207B68FD
:1032A000B3F852309A4205D97B68B3F852207B6854
:1032B000A3F84A207B68B3F84C207B68B3F85430FD
:1032C0009A4205D27B68B3F854207B68A3F84C205F
:1032D0007B68B3F84E207B68B3F856309A4205D924
:1032E0007B68B3F856207B68A3F84E2000BF0837F0
:1032F000BD4680BD80B582B000AF78607868FFF7CA
:103300003BFF00BF0837BD4680BD80B582B000AF2F
:1033100078607B680022A3F848207B68B3F84420DB
:103320007B68A3F84A207B68B3F840207B68A3F849
:103330004C207B68B3F842207B68A3F84E20786865
:10334000FFF77BFF00BF0837BD4680BD80B586B064
:1033500002AFF860084611461A4603467B810B46C9
:103360003B811346FB80F8883A8979893B7E00933C
:103370000346F868FFF7F4FC00BF1037BD4680BD78
:1033800080B483B000AF78607B68002283F8262089
:1033900000BF0C37BD465DF8047B704780B483B036
:1033A00000AF78600B46FB70FB78002B02D0FB78F7
:1033B0000A2B02D14FF6FF7301E0FB789BB218464F
:1033C0000C37BD465DF8047B704790B583B000AF05
:1033D00078600B46FB707B681C69FA78002320211B
:1033E0007868A047034618460C37BD4690BD90B597
:1033F00085B000AFF8600B467A60FB72FB681C6911
:10340000FA7A7B681721F868A047034618461437F4
:10341000BD4690BD80B582B000AF78600B46FB70B2
:10342000FB1C1A4601217868FFF7E1FF03461846A6
:103430000837BD4680BD90B583B000AF78600B46BD
:10344000FB707B68DC68FA78002315217868A04758
:10345000034618460C37BD4690BD90B583B000AF0B
:1034600078600B46FB707B68DC68FA7800231621D5
:103470007868A047034618460C37BD4690BD90B506
:1034800085B000AFF8600B467A60FB72FB68DC68C1
:10349000FA7A7B681721F868A04703461846143764
:1034A000BD4690BD90B583B000AF78607B68DC68A6
:1034B0000023002218217868A047034618460C37DD
:1034C000BD4690BD90B583B000AF78607B68DC6886
:1034D0000023002219217868A047034618460C37BC
:1034E000BD4690BD90B585B000AF786039603B684F
:1034F0001B78FB733B6801333B60FB7BFE2B31D0B9
:10350000FE2B3DDC192B3BDC182B23DA162B02DCBF
:10351000152B03DA34E0172B0ED031E03B681B7813
:10352000BB737B68DC68BA7BF97B00237868A047B3
:103530003B6801333B6022E03B681B78BB7307F1BB
:103540000E031A4601217868FFF799FF3B680133A3
:103550003B6014E07B68DC68F97B0023002278681C
:10356000A0470CE03B681B78BB73BB7B1A46292144
:10357000786800F0D8F93B6801333B6000BFB6E7DC
:1035800000BF1437BD4690BD90B585B000AFF86060
:103590007B600B46FB721346BB72FB7A143B052B18
:1035A0002FD801A252F823F0F1350008C1350008E8
:1035B000D5350008E9350008F1350008F135000877
:1035C0000021F868FFF701FFBB7A1946F868FFF79A
:1035D00021FF18E00021F868FFF7F7FEBB7A1946D3
:1035E000F868FFF717FF0EE00121F868FFF7EDFE1E
:1035F000FB681C69BA7AF97A7B68F868A0470346C9
:1036000002E0002300E0012318461437BD4690BDB8
:1036100080B586B000AFF8607B600B46FB72134646
:10362000BB72FB7A0B3B042B00F28A8001A252F89A
:1036300023F000BF49360008413700086336000810
:1036400095360008B5360008BB7A002B04D14049F6
:10365000F868FFF747FF75E03E49F868FFF742FF5B
:1036600070E0BB7A002B0AD13B49F868FFF73AFFBC
:10367000FB681B689A7CFB6883F8222062E037496C
:10368000F868FFF72FFFFB681B68DA7CFB6883F89C
:10369000222057E0F868FFF705FF8121F868FFF75F
:1036A000CAFEBB7A1946F868FFF7D7FEF868FFF73D
:1036B00009FF47E0F868FFF7F5FE7B685B79FB756B
:1036C000FB7DDB00FB75FB6893F82220FB7D134438
:1036D000FB754021F868FFF7AEFEFB7D1B09DBB2EE
:1036E00043F01003DBB21946F868FFF7A4FEFB7D38
:1036F00003F00F03DBB21946F868FFF7AEFE7B68F4
:103700009B7963F04F03DBB21946F868FFF7A5FE1B
:103710007B681B79BB757B681B683B61BB7DDB00ED
:10372000DBB23A691946F868FFF7A9FEBB7A013B9C
:10373000BB72BB7A002BEBD1F868FFF7C3FE01E048
:10374000002300E0012318461837BD4680BD00BFA6
:103750002055000828550008305500083855000845
:1037600080B584B000AFF8607B600B46FB721346F7
:10377000BB72BA7AF97A7B68F868FFF749FF0346AB
:10378000002B01D0012314E0FB7A092B09D00A2B6E
:103790000CD1F86800F02AF80849F868FFF7A2FE93
:1037A00006E00749F86800F00DF801E0002300E0AA
:1037B000012318461037BD4680BD00BFE8540008FD
:1037C0004055000880B483B000AF786039607B68F2
:1037D0003A681A607B681B689A7C7B6883F82220B1
:1037E00000BF0C37BD465DF8047B704790B583B0D1
:1037F00000AF78607B685C6900230022282178682C
:10380000A0477B68DC680023002214217868A04769
:1038100001224B21786800F086F87B681B681B79D1
:103820001A462921786800F07EF800224B2178683A
:1038300000F079F87B681B681B791A4629217868A3
:1038400000F071F801224B21786800F06CF87B6879
:103850001B685B791A462921786800F064F800BF7C
:103860000C37BD4690BD90B585B000AF7860084676
:1038700011461A460346FB700B46BB7013467B701D
:10388000FB787B73BB78BB737B783B733B6ABB6015
:103890007B689C6807F1080301220F217868A04724
:1038A000034618461437BD4690BD90B583B000AFAF
:1038B00078607B689C680023002209217868A04713
:1038C00000BF0C37BD4690BD90B583B000AF7860A7
:1038D0007B689C68002300220A217868A04700BF0B
:1038E0000C37BD4690BD90B583B000AF78600B46F5
:1038F000FB707B689C68FA7800230B217868A047EE
:1039000000BF0C37BD4690BD90B583B000AF786066
:103910007B689C680023002210217868A04700BFC4
:103920000C37BD4690BD90B583B000AF78600B46B4
:10393000FB701346BB707B685C69BA78F97800232A
:103940007868A04700BF0C37BD4690BD80B485B0F5
:1039500000AFF8607B600B46FB721346BB7200231E
:1039600018461437BD465DF8047B704780B483B0B9
:1039700000AF78607B6800221A607B68114A9A6009
:103980007B68104ADA607B680E4A1A617B680D4AD0
:103990005A617B68002283F823207B68002283F829
:1039A00026207B6800229A617B68FF2283F824200E
:1039B0007B68FF2283F8282000BF0C37BD465DF8E6
:1039C000047B70474D39000880B584B000AFF860C3
:1039D000B9607A603B60F868FFF7C8FFFB68BA68B7
:1039E0009A60FB687A68DA60FB683A681A61FB687B
:1039F000BA695A61F868FFF758FF00BF1037BD4633
:103A000080BD0000014B1868704700BF0400002013
:103A100070B50D4D0D4C641BA4100026A64209D1B3
:103A20000B4D0C4C01F08EF8641BA4100026A6422E
:103A300005D170BD55F8043B98470136EEE755F8BF
:103A4000043B98470136F2E7F0550008F0550008AE
:103A5000F0550008F455000802440346934200D193
:103A6000704703F8011BF9E770B50E46054618B11B
:103A700083690BB900F068FAAB69AC6813B92846E2
:103A800000F062FA2C4B9C4220D16C68636EDB071D
:103A900005D4A389980502D4A06D00F0F3FAA38998
:103AA00019071DD52369DBB1013EA36816F8011F74
:103AB000013BA36039BB002B38DA22460A21284695
:103AC00000F068F8013011D00A2511E01B4B9C4230
:103AD00001D1AC68DAE71A4B9C4208BFEC68D5E725
:103AE0002146284600F0A8F80028DDD04FF0FF3529
:103AF000636EDA0705D4A3899B0502D4A06D00F09C
:103B0000C2FA284670BD002B04DAA2699A4206DC8C
:103B10000A2904D023685A1C22601970C5E722467E
:103B2000284600F037F80130BFD1DFE723680A25C7
:103B30005A1C22601D70DBE77C5500089C5500086C
:103B40005C550008024B01461868FFF78DBF00BFA7
:103B5000040000200EB400B59CB01DAB029006908E
:103B60006FF00041094807910491094953F8042B6B
:103B700005910068019302A900F028FC029B002235
:103B80001A701CB05DF804EB03B07047040000200D
:103B90000802FFFFF8B50E461446054618B18369C2
:103BA0000BB900F0D1F9214B9C422BD16C68A36971
:103BB000A360A3891A072FD523696BB323692068F3
:103BC000C01A6369F6B28342374604DC21462846B0
:103BD00000F026F930BBA368013BA36023685A1CA0
:103BE00022601E7063690130834204D0A389DB0721
:103BF00006D50A2E04D12146284600F011F988B9CD
:103C00003846F8BD0A4B9C4201D1AC68CFE7094B5E
:103C10009C4208BFEC68CAE72146284600F00CF831
:103C20000028CBD04FF0FF37EAE700BF7C550008F3
:103C30009C5500085C550008324B70B51D6806465F
:103C40000C4625B1AB6913B9284600F07DF92E4B1F
:103C50009C420FD16C68A389B4F90C2019072CD4AD
:103C6000DD0611D40923336042F04003A3814FF0F5
:103C7000FF303EE0254B9C4201D1AC68EBE7244B82
:103C80009C4208BFEC68E6E7580712D5616B41B16A
:103C900004F14403994202D0304600F05BFA00235D
:103CA0006363A38923F02403A38100236360236952
:103CB0002360A38943F00803A38123694BB9A38937
:103CC00003F42073B3F5007F03D02146304600F0A3
:103CD00001FAA089B4F90C2010F001030AD00023E6
:103CE000A36063695B42A361236943B910F080005C
:103CF000BAD170BD810758BF6369A360F4E70020A3
:103D0000F7E700BF040000207C5500089C55000820
:103D10005C5500088A892DE9F041054610070C46DC
:103D200058D44B68002B05DC0B6C002B02DC002008
:103D3000BDE8F081E66A002EF9D0002312F480522B
:103D40002F682B6032D0606DA3895A0705D5636850
:103D5000C01A636B0BB1236CC01A00230246E66ADB
:103D6000216A2846B047431CA38906D129681D292A
:103D70002CD82A4ACA40D60728D500226260D90426
:103D80002269226004D5421C01D12B6803B9606509
:103D9000616B2F600029CAD004F14403994202D01C
:103DA000284600F0D7F900206063C1E7216A0123AB
:103DB0002846B047411CC7D12B68002BC4D01D2B0F
:103DC00001D0162B01D12F60B1E7A38943F0400346
:103DD000A381ADE70F69002FA9D093070E6808BF34
:103DE0004B690F6018BF0023A6EB07088B60B8F182
:103DF000000F9CDD216AA66A43463A462846B04732
:103E0000002806DCA38943F04003A3814FF0FF3074
:103E10008EE70744A8EB0008E9E700BF0100402057
:103E200038B50B6905460C4613B90025284638BD40
:103E300018B183690BB900F087F8144B9C421BD171
:103E40006C68B4F90C30002BEFD0626ED00704D44C
:103E5000990502D4A06D00F015F928462146FFF718
:103E600059FF636EDA070546E0D4A3899B05DDD4CC
:103E7000A06D00F008F9D9E7054B9C4201D1AC6870
:103E8000DFE7044B9C4208BFEC68DAE77C5500088A
:103E90009C5500085C550008002310B50446C0E995
:103EA0000033C0E90433836081814366C28183614A
:103EB000194608225C30FFF7CFFD054B6362054BC6
:103EC000A362054BE362054B2462236310BD00BF70
:103ED00015490008374900086F4900089349000850
:103EE000014900F0AFB800BF213E000870B568225C
:103EF0004D1E55430E4605F1740100F097F9044636
:103F000040B10021C0E900160C30A06005F1680244
:103F1000FFF7A2FD204670BD014800F0B3B800BF16
:103F2000B1050020014800F0AEB800BFB105002087
:103F3000014800F0A7B800BFB2050020014800F01A
:103F4000A2B800BFB205002010B50446FFF7F0FF8D
:103F5000A3691BB1BDE81040FFF7F0BFC4E91233FD
:103F60002365134B134A1B68A262A34204BF0123BB
:103F7000A361204600F020F86060204600F01CF8A5
:103F8000A060204600F018F80022E060042160687C
:103F9000FFF782FFA06801220921FFF77DFFE0689B
:103FA00002221221FFF778FF0123A361D2E700BFAD
:103FB00058550008E13E0008F8B50746FFF7ACFF8A
:103FC0001E4B1E68B36913B93046FFF7BDFF483674
:103FD000D6E90134013B03D533680BB33668F7E704
:103FE000B4F90C50D5B9164BE36004F1580065667E
:103FF00000F047F8FFF796FFC4E90155C4E90455FE
:104000002560A5610822294604F15C00FFF724FD24
:10401000C4E90D55C4E912552046F8BD6834D9E706
:1040200004213846FFF762FF044630600028D5D1EE
:10403000FFF778FF0C233B60EEE700BF5855000800
:104040000100FFFF2DE9F8430646884600F14804C9
:104050000027D4E90195B9F1010905D52468002CA0
:10406000F7D13846BDE8F883AB89012B07D9B5F9FC
:104070000E30013303D029463046C0470743683528
:10408000E9E770477047704770B50E46B1F90E10FA
:10409000002996B014461D4608DAB6F90C30002205
:1040A0002A601A0610D44FF480630EE06A4600F0CE
:1040B00097FC0028F1DB019A02F47042A2F500534C
:1040C0005A425A412A60EEE740230020236016B08E
:1040D00070BD00008B8973B59D0706460C4607D559
:1040E00004F14703236023610123636102B070BDC3
:1040F00001AB6A46FFF7C8FF00990546304600F05D
:1041000095F848B9B4F90C309A05EFD423F00303BD
:1041100043F00203A381E3E70D4BB362A389206060
:1041200043F08003A381009B6361019B20615BB12D
:10413000B4F90E10304600F065FC28B1A38923F0D5
:10414000030343F00103A381A0890543A581CDE7C3
:10415000E13E000837B5002944D051F8043C0190F5
:10416000002BA1F10404B8BFE41800F095FC1E4A2E
:104170000198136833B96360146003B0BDE8304040
:1041800000F090BCA34208D9256861198B4201BF99
:1041900019685B6849192160EDE71A465B680BB145
:1041A000A342FAD911685518A5420BD124682144BD
:1041B0005418A3421160E0D11C685B68536021442D
:1041C0001160DAE702D90C230360D6E7256861198C
:1041D0008B4204BF19685B68636004BF49192160A2
:1041E0005460CAE703B030BDB405002070B50E4E70
:1041F0000C463168054611B900F07CFB3060214661
:10420000284600F077FB431C0AD0C41C24F00304AA
:10421000A04207D0211A284600F06CFB013001D1E2
:104220004FF0FF34204670BDB80500202DE9F04165
:10423000CD1C25F0030508350C2D38BF0C25002DAD
:10424000074601DBA94205D90C233B600026304616
:10425000BDE8F0812E4E00F01FFC33681C4634BBD5
:1042600029463846FFF7C2FF431C04464DD1346847
:104270002646002E40D123683146384604EB030819
:1042800000F038FB80453AD1216803356D1A25F0DE
:10429000030508350C2D38BF0C2529463846FFF795
:1042A000A5FF01302BD023682B4423600EE0226849
:1042B000521B1ED40B2A16D96119A342256018BFC0
:1042C0005960636808BF316062514B60384604F141
:1042D0000B0600F0E7FB26F00706231DF21AB6D006
:1042E0009B1BA350B3E76268A3420CBF32605A60C5
:1042F000ECE723466468B2E734467668B9E70C23F6
:104300003B60384600F0CEFBA1E72560DEE700BF4A
:10431000B40500202DE9F0478E689E4282460C4687
:1043200090461F4638D88A8912F4906F32D025689B
:104330000969A5EB0109656905EB450505EBD5752F
:1043400001334B446D109D4238BF1D46530531D596
:104350002946FFF76BFF064650B90C23CAF8003018
:10436000A38943F04003A3814FF0FF30BDE8F087FD
:1043700021694A4600F068FBA38923F4906343F067
:104380008003A381266165614E44A5EB0905266083
:10439000A5603E46BE4200D93E46206832464146B0
:1043A00000F060FBA3689B1BA36023683344236079
:1043B0000020DBE72A4600F07BFB06460028E1D11F
:1043C00021695046FFF7C6FEC7E700002DE9F04F10
:1043D00098468B891B069DB007460D4614460ED5A0
:1043E0000B6963B94021FFF721FF2860286120B9DC
:1043F0000C233B604FF0FF30D1E040236B61002382
:10440000099320238DF82930CDF80C803023DFF874
:10441000A8818DF82A304FF0010923469A4613F8F7
:10442000012B0AB1252AF9D1BAEB040B0BD05B465C
:10443000224629463846FFF76DFF013000F0AA807A
:10444000099A5A4409929AF80030002B00F0A28091
:1044500000234FF0FF32CDE905230AF1010A04934E
:1044600007938DF853301A935446052214F8011B14
:104470005148FBF7D5FE049AD8B9D00644BF202393
:104480008DF85330110744BF2B238DF853309AF821
:1044900000302A2B15D0079A544600204FF00A0C02
:1044A000214611F8013B303B092B4ED9B0B10792A0
:1044B00014E0A0EB080309FA03F313430493A246A4
:1044C000D2E7039B191D1B680391002BBBBF5B4206
:1044D00042F0020207930793B8BF049223782E2B71
:1044E0000CD163782A2B35D1039B1A1D1B680392CC
:1044F000002BB8BF4FF0FF3302340593DFF8C8A09C
:10450000217803225046FBF78BFE40B14023A0EBFD
:104510000A0003FA00F0049B03430134049314F8E7
:10452000011B26488DF828100622FBF779FE00288B
:1045300038D0234B1BBB039B073323F007030833FF
:104540000393099B3344099367E70CFB02320C4643
:104550000120A5E700230134059319464FF00A0C0A
:10456000204610F8012B303A092A03D9002BC5D078
:104570000591C3E70CFB012104460123F0E703ABDF
:1045800000932A460F4B04A93846AFF30080421C23
:104590000646D6D1AB895B063FF52CAF09981DB016
:1045A000BDE8F08F03AB00932A46064B04A93846BA
:1045B00000F07AF8EBE700BFBC550008C6550008CC
:1045C0000000000015430008C25500082DE9F0471F
:1045D000164699468A680B69DDF820809342B8BF79
:1045E0001346336091F8432007460C460AB1013365
:1045F00033602368990642BF33680233336025680D
:1046000015F0060506D104F1190AE36832689B1A11
:10461000AB4226DC94F84320131E226818BF012306
:1046200092062BD404F1430249463846C047013074
:104630001ED02368E568326803F00603042B08BF28
:10464000AD1AA36822690CBF25EAE57500259342DF
:10465000C4BF9B1AED1800261A34B5421AD10020A7
:1046600008E00123524649463846C047013003D18D
:104670004FF0FF30BDE8F0870135C6E7E1185A1C5E
:10468000302081F84300224494F8451082F843100A
:104690000233C7E70123224649463846C047013066
:1046A000E6D00136D9E700002DE9FF470F7E0C9DCB
:1046B000782F914680460C469A4601F1430207D86E
:1046C000622F0AD8002F00F0D880582F00F0A38066
:1046D00004F1420584F842703AE0A7F16303152B18
:1046E000F6D801A151F823F04147000855470008CA
:1046F000D1460008D1460008D1460008D14600083E
:1047000055470008D1460008D1460008D1460008A8
:10471000D146000861480008854700084348000862
:10472000D1460008D146000883480008D146000859
:1047300085470008D1460008D14600084B480008CC
:104740002B681A1D1B682A6004F1420584F8423068
:104750000123A3E020682968060601F104030AD5B5
:104760000E682B60002E03DA2D23764284F8433046
:104770005E480A2319E00E682B6010F0400F18BF46
:1047800036B2EFE72B682068191D2960010601D5B4
:104790001E6802E04606FBD51E8854486F2F0CBFEA
:1047A00008230A23002184F843106568A560002DC2
:1047B000A2BF216821F0040121600EB9002D4DD067
:1047C0001546B6FBF3F103FB1167C75D05F8017DE4
:1047D0003746BB420E46F4D9082B0BD12368DE07BF
:1047E00008D5236961689942DEBF302305F8013C92
:1047F00005F1FF35521B2261CDF800A04B4603AAFC
:1048000021464046FFF7E2FE01304CD14FF0FF3029
:1048100004B0BDE8F087354881F845702968236801
:1048200051F8046B29601D0614D5DF0744BF43F01F
:10483000200323601EB9236823F020032360102384
:10484000B0E7236843F0200323607823284884F8E6
:104850004530E3E7590648BFB6B2E6E71546BBE781
:104860002B6826686169181D286035061B6801D50C
:10487000196002E07006FBD51980002323611546FC
:10488000BAE72B681A1D2A601D6862680021284655
:10489000FBF7C6FC08B1401B60606368236100231E
:1048A00084F84330A8E723692A4649464046D04762
:1048B0000130ABD023689B0713D4E068039B984278
:1048C000B8BF1846A4E70123324649464046D047C0
:1048D00001309BD00135E36803995B1AAB42F2DCEF
:1048E000EBE7002504F11906F5E700BFCD550008F8
:1048F000DE55000838B5064D0023044608462B60F7
:10490000FDF75CF9431C02D12B6803B1236038BD6D
:10491000BC05002010B50C46B1F90E1000F0F8F8F7
:104920000028ABBF636DA3891B1823F48053ACBF71
:104930006365A38110BD2DE9F0411F468B89DB051E
:1049400005460C46164605D5B1F90E100223002285
:1049500000F068F8A389B4F90E1023F48053A38102
:1049600032463B462846BDE8F04100F017B810B586
:104970000C46B1F90E1000F055F8431CA38915BF81
:10498000606523F4805343F48053A38118BFA3814F
:1049900010BDB1F90E1000F013B8000038B5074D86
:1049A00004460846114600222A601A46FCF7A6FE75
:1049B000431C02D12B6803B1236038BDBC05002025
:1049C00038B5064D0023044608462B60FDF7C1F8B4
:1049D000431C02D12B6803B1236038BDBC05002005
:1049E00038B5074D00230446084611462B60FDF7F5
:1049F000BCF8431C02D12B6803B1236038BD00BF53
:104A0000BC05002038B5064D0023044608462B603F
:104A1000FDF7BBF8431C02D12B6803B1236038BDFE
:104A2000BC05002038B5074D044608461146002253
:104A30002A601A46FDF7B4F8431C02D12B6803B173
:104A4000236038BDBC0500200A44914200F1FF33C9
:104A500000D1704710B511F8014B03F8014F914296
:104A6000F9D110BD884210B501EB020402D984428D
:104A7000234607D8431EA14208D011F8012B03F8A2
:104A8000012FF8E7024401468A4200D110BD13F815
:104A9000014D02F8014DF7E70148FFF7F3BA00BFF7
:104AA000B00500200148FFF7EEBA00BFB0050020B6
:104AB0002DE9F041804614460E4621B9BDE8F0418B
:104AC0001146FFF7B3BB2AB9FFF744FB254628463A
:104AD000BDE8F08100F02EF88442074602D8B4EB1E
:104AE000500F12D821464046FFF7A0FB054600288C
:104AF000EDD0BC422246314628BF3A46FFF7A4FF1C
:104B000031464046FFF726FBE1E73546DFE7000088
:104B100038B5074D04460846114600222A601A4659
:104B2000FCF7FAFF431C02D12B6803B1236038BDA8
:104B3000BC05002051F8043C181F002BBCBF0B58CB
:104B4000C0187047F8B500BFF8BC08BC9E46704757
:0C4B5000F8B500BFF8BC08BC9E467047DA
:104B5C0025640000435700002573000043435700B1
:104B6C0052504D00447574793A20000044697265C6
:104B7C006374696F6E3A200054656D706572617470
:104B8C007572653A20000000430000007377697469
:104B9C00636820696E746572727570740000000031
:104BAC00496E697469616C697A6174696F6E2064AD
:104BBC006F6E652E00000000BF00030203040305A6
:104BCC0004060D00FE09FE0900017002E408FB203A
:104BDC000500EE072107C9C3C7210922071BDB47C4
:104BEC006209230EBDC64F294906A53228A524010A
:104BFC00240CBDC6573628D9960C5A0425104EC223
:104C0C004FA6444914A6612989122D01260D3EC2D6
:104C1C008F16B56951A2454B00270699DBC70028B2
:104C2C000B4BC3571225512DCA02290C4BC34716E7
:104C3C006551254A22002A0C2ECA4F9449C3A4451B
:104C4C0009002B0AADCA57180D5218012C089CBE2E
:104C5C00CFA264002D068DD2C7202E081BBF4FB2E9
:104C6C0024002F0BCDC2672DCC8A591802300D4E63
:104C7C00C2971625A1C724CA2400310BCDC25726D2
:104C8C0025614F8300320E4EC2CF9084621A665A51
:104C9C00980E03330D4EC2C7352CCEA9980C0900C3
:104CAC00340F4EC267A82551254BB26418D3043576
:104CBC000E4EC2C721AD2C5A9A8AC99000360E4EA0
:104CCC00C2D714A6954513C5644800370C4EC2C70D
:104CDC0035AC8669988600380F4EC2CF9084C66476
:104CEC00484263322400390D4EC2CF908436654958
:104CFC008BD1043A0B43BF4FB2E448B224003B0BB8
:104D0C00C4BE5734E5D8A264003C08CDC267D6B502
:104D1C00033D0826CAC71D1D063E09CDC247DAADA4
:104D2C0023003F0D4EC2CF9084621A56733002405E
:104D3C00104EC2CF9084A6218994644AE42101418B
:104D4C000D4EC2971625A1711844630042124EC233
:104D5C00C72065499664C91065499664C302430C23
:104D6C004EC2CF90846A8FC9900044124EC2C720A5
:104D7C0065499664499664499664C302450C4EC2D3
:104D8C00C721AD0E515A1D06460B4EC2C721AD0EA2
:104D9C0051DA0A470D4EC2CF90846AD3106ACA12F8
:104DAC00480B4EC247E8380CA26300490ACDC2C773
:104DBC0020857D1A044A0B4EC2DF98F692451300EB
:104DCC004B104EC247A825512513932CAA256100E0
:104DDC004C094EC247DAAFC3004D0B4EC247380DDB
:104DEC00D1E2D1314E0D4EC247286E4A2425DA68E5
:104DFC000C4F0B4EC2CF90847E4C8604500C4EC28E
:104E0C00C7A084C661495B01510E56BECF9084BECB
:104E1C004452920C7100520E4EC2C7A084C661A9B6
:104E2C0045B5240C530F4EC2CF90846A3CC4A9984C
:104E3C000C09005409CDC2C72085FD04550A4EC289
:104E4C0047E88FC99000560C4EC247684CA2DE440E
:104E5C001300570B4EC247E8C5651AA231580E4EC7
:104E6C00C2472826519B16B5846200590CCDC24707
:104E7C00A625A5240B3B015A0B4EC2C7352C8AAD77
:104E8C00C3005B09DCBEC7A0F5B7215C0BCDC247E4
:104E9C00988669310D035D09DCBEC790F5B7415E9C
:104EAC00089DDA5796D4025F060EBEC70160061243
:104EBC00E34714610C36C2CF1027C3A8294B0062FC
:104ECC000D4EC247DAB268A2B8290B00630C36C289
:104EDC00CF90846A31191200640B4EC26FCBA28D35
:104EEC00366509650D36C2CF9084C3A086C9900083
:104EFC00660D4EC2D79425693864692300670F4646
:104F0C00BACFA2255934C54312264302680B4EC2B0
:104F1C0047DAB268A26300690AC5C2578E889D063B
:104F2C00016A0CD5BA678E888D9A962C006B0D4E43
:104F3C00C247DA9644D116D592306C09CDC28FD8BF
:104F4C004F83006D0DB5C287D2A2244AA2245A0009
:104F5C006E0A36C247B268A263006F0B36C2CF909E
:104F6C00848EC99000700C46BA47B268E2A62C69D0
:104F7C0015710B46BACFA28D9AB2A40D720A36C225
:104F8C0047326549DA08730D36C2CF908489AC84F8
:104F9C00C99000740C46C24F1A0E59DA162D0075C2
:104FAC000936C247E84D5902760BB5C247664B4AE3
:104FBC00491601770BB5C24766499444E902780C4F
:104FCC0036C247984499A8454918790D46BA47E81E
:104FDC00A62CA9980C09007A0836C2C7B1E3307B1D
:104FEC000CDDBED7125623350BAB037C06C9C3C7E9
:104FFC00037D0DDDBEC71AD652290D2B13007E0979
:10500C009DDA4FA4245202A00500EE07A108C9C3E3
:10501C0047320C01A20EC5C657B65494288992CAC1
:10502C001601A30D4EC2D794256938A6356501A487
:10503C000C36C647980C51A7210903A50F4DC24742
:10504C00A625A52419A46890C208A608C9C3C790B0
:10505C000C01A70ED4C28F12894A2425A2942800D1
:10506C00A80794DE472405A9114EC2CF90848A2547
:10507C00522225528CC99000AA0CBDCACF9A0C5A48
:10508C0032A48300AB0F3EC65F122551122561126C
:10509C00266112AC079DCAC72016AD068CD2C7106C
:1050AC00AE114EC2CF90848A255992C5928CC9906C
:1050BC0000AF068DE2C720B009A4D68F1249890231
:1050CC00B10BBDC657180D52980F02B208B3D24F90
:1050DC0053521AB309B3D2C794644A05B40612E307
:1050EC008F02B50A3EBE47E8382D5600B6134EC2A5
:1050FC00CF3028C9922C919225599225599200B7FC
:10510C00060AD38700B80612BB8F02B908B3D24F78
:10511C0022B50CBA0AB4CE8F1249893A04BB103EA0
:10512C00C6471226611226511225519201BC0E5609
:10513C00C24FA8B60D89966449B606BD0D56C24F2E
:10514C00A83625439286D501BE1056C2C71AC65939
:10515C00122591966449B606BF0D4EC2570EA66134
:10516C003514932101C00F56C2579C635A9484E2A4
:10517C0030886200C10F56C25F98835A9484E23023
:10518C00886200C20F56C29716E5901625A1380CFE
:10519C00A218C30F56C28F6487B42809C56110C505
:1051AC0000C40F56C24FD40E6951128AC3208A0113
:1051BC00C50F56C2971665A21625A1380CA218C6A3
:1051CC00124EC24F322459922559724BB2244B863F
:1051DC0000C70D5EBACF90846A8FC910D600C80F75
:1051EC0056C2579C23C390A64394A6C300C90F561E
:1051FC00C25F9843C390A64394A6C300CA0F56C27D
:10520C009716E5C390A64394A6C300CB0E56C24F87
:10521C00D43E0C693A44693A0CCC0BD5C24F9A0F68
:10522C0052D86910CD0CD5C25796238314761A0424
:10523C00CE0CD5C25796C48314761A04CF0CD5C2A3
:10524C0047A6A58314761A04D0124EC2C72065490E
:10525C009664439464499664C302D10F56C28F641A
:10526C000F3725522229D1C600D20D56C2579C4366
:10527C0043127A4C8604D30D56C25F986343127A5C
:10528C004C8604D40E56C29716E5C890841E932102
:10529C0001D50E56C28F64478624F4980C0900D6AB
:1052AC000E56C24FD48E0C49E831191200D70C3669
:1052BC00C647984499A8454918D8145EBE6F322445
:1052CC00D9944889122991126DC990A400D90C5611
:1052DC00C2579C23A18FC99000DA0C56C25F984329
:1052EC00A18FC99000DB0C56C29716E5A18FC9900F
:1052FC0000DC0C56C24FD41EFA980C0900DD0BD5FD
:10530C00C25F3DD3925AD804DE0D4EC2473A28A153
:10531C007158D22A00DF0ECDC28F54899252125589
:10532C00328B02E00E4EC2579C43439C0CA3A62C1E
:10533C0001E10E4EC25F9863439C0CA3A62C01E2C4
:10534C000F4EC29716E5C81027C3A8294B00E30ED1
:10535C004EC28F6447863819464D5902E40E4EC230
:10536C004FD48E0C71328C9AB204E50F56C297163C
:10537C00653A34C4C9306ACA12E60D36C28F122699
:10538C00C930B5244A02E70D46BACF90846A311968
:10539C00C21A00E80F4EC2579C4343120E831A26C2
:1053AC004302E90F4EC25F986343120E831A2643E1
:1053BC0002EA104EC29716E5C89084C3A086C99025
:1053CC0000EB104EC24FD48E0C49380C6A980C0965
:1053DC0000EC0ACDC24F9A2362A741ED0ACDC25709
:1053EC00964362A741EE0ACDC28F54173B0D02EFD4
:1053FC000BCDC2479444B9D86910F01056C24F94E3
:10540C0069491C0D49E8980C0900F10B4EC28F64D8
:10541C004F164D740CF20D4EC2579C4343123A2654
:10542C004302F30D4EC25F986343123A264302F4D3
:10543C000E4EC29716E5C890848EC99000F50D4E9D
:10544C00C28F64478624744C8604F60E4EC24FD429
:10545C008E0C49E8980C0900F70ABDC657980F7ACC
:10546C001801F80F46BE6F3224D99428D1960C49F6
:10547C000AF90B4EC2579C23A1376509FA0B4EC291
:10548C005F9843A1376509FB0B4EC29716E5A13710
:10549C006509FC0B4EC24FD41E7A539600FD0F5E6D
:1054AC00BA5F9843A19BB2A462322400FE0E56BA96
:1054BC00475A593451DC94254D01FF0E5EBA4FD436
:1054CC001EBA294B2A26430200000004FFFF0000ED
:1054DC00F53200080B3300084D3300081815AE15D3
:1054EC00D5168015A8163F15D316001540158D1628
:1054FC00141520160015A115C815DA1612158116EB
:10550C00CF15D916F115DB1640152E15A415A619B5
:10551C00FF0000001815AF19FF0000001815AE1998
:10552C00FF0000001815A115C819FF001815A015CB
:10553C00C019FF000001140A6464323200127A00B0
:10554C00000428961008000080004000080000208D
:10555C00000000000000000000000000000000003F
:10556C00000000000000000000000000000000002F
:10557C00000000000000000000000000000000001F
:10558C00000000000000000000000000000000000F
:10559C0000000000000000000000000000000000FF
:1055AC0000000000000000000000000000000000EF
:1055BC00232D302B2000686C4C00656667454647F0
:1055CC000030313233343536373839414243444573
:1055DC0046003031323334353637383961626364E2
:0455EC0065660000F0
:0455F00005020008A8
:0455F400E1010008C9
:1055F8000024F40008000020000000007C5500088A
:105608009C5500085C5500080000000000000000E0
:105618000000000000000000000000000000000082
:105628000000000000000000000000000000000072
:105638000000000000000000000000000000000062
:105648000000000000000000000000000000000052
:0856580000000000000000004A
:0400000508001F01CF
:00000001FF
